:020000040800F2
:10000000A81100205D020008095D000841500008A9
:10001000B95C0008AD280008058800080000000051
:10002000000000000000000000000000A5620008C1
:100030004D2B00080000000005600008317A000820
:1000400077020008770200087702000877020008AC
:10005000770200087702000877020008770200089C
:1000600077020008752B00087B2B00087702000838
:10007000492A0008552A0008612A00086D2A00084C
:10008000792A0008852A000877020008770200080C
:10009000770200087702000877020008770200085C
:1000A000770200087702000877020008770200084C
:1000B000770200087702000877020008770200083C
:1000C000770200087702000877020008770200082C
:1000D00077020008E1870008ED870008F98700082B
:1000E0004F2B00087702000877020008770200080B
:1000F00077020008770200087702000877020008FC
:100100007702000877020008D97A00087702000811
:10011000C983000845840008E57A0008F17A0008E0
:100120007702000877020008912A00087702000889
:1001300077020008770200087702000877020008BB
:1001400077020008770200087702000877020008AB
:1001500077020008770200089D2A0008770200084D
:10016000770200087702000877020008770200088B
:1001700077020008770200087702000800000000FC
:10018000770200087702000800F002F800F057F844
:100190000AA090E8000C82448344AAF10107DA45E2
:1001A00001D100F04CF8AFF2090EBAE80F0013F0DD
:1001B000010F18BFFB1A43F0010318471C9D0000F4
:1001C0003C9D0000103A24BF78C878C1FAD8520785
:1001D00024BF30C830C144BF04680C6070470000C1
:1001E0000023002400250026103A28BF78C1FBD840
:1001F000520728BF30C148BF0B607047662909F01D
:100200008785642900F03481732900F02886002056
:1002100070471FB509F06FFD01F0F8F804000020E9
:10022000002108F085FF401C60600020002108F0DC
:1002300069FFE06000F05EFB1FBD10B510BD01F06E
:10024000ABFB1146FFF7E5FF08F054FD01F0FCFDA4
:1002500003B4FFF7F2FF03BC08F0B6FC094880477F
:1002600009480047FEE7FEE7FEE7FEE7FEE7FEE798
:10027000FEE7FEE7FEE7FEE704480549054A064BB0
:1002800070470000C97A000889010008A80B002007
:10029000A8110020A80D0020A80D0020704770476D
:1002A00053EA020C00F069802DE9F04B4FF0000694
:1002B000002B1FBFB3FA83F503FA05F424FA05F601
:1002C0005E4012BF1643B2FA82F502FA05F4C5F198
:1002D00020051EBF22FA05FC44EA0C04203556EA2C
:1002E000044C4FEA144418BF641C4FF000084FF050
:1002F0000009904271EB030C39D3002919BFB1FA00
:1003000081F701FA07F6B0FA80F700FA07F6C7F1AD
:1003100020071EBF20FA07FC46EA0C062037B6FB72
:10032000F4FCA7EB0507103F07F01F0BCBF12006ED
:100330000CFA0BFB2CFA06F644BFB3460026202F1E
:10034000A4BF5E464FF0000B5BEA060C08BF4FF0FF
:10035000010B19EB0B09ABFB027C48EB0608C01B39
:1003600006FB02CC0BFB03CC71EB0C01C1E70B4687
:10037000024641464846BDE8F08B13B54FF00000F9
:100380004FF00001AFF30080BDE81C407047000053
:100390000FB4044910B503AA029800F065FD10BC23
:1003A0005DF814FB680000200FB41CB5074B06AACB
:1003B0007B4469460090059800F027FD00206946BF
:1003C00000F036FD1CBC5DF814FB00007D0A000047
:1003D00070B5044685690068C10601D5302600E085
:1003E0002026C00707D070BDD4E9012130469047D0
:1003F000206A401C20626D1EF6D570BD70B50446A3
:1004000085690078C00707D170BDD4E9012120209B
:100410009047206A401C20626D1EF6D570BD70B5F5
:100420000C460546012A05D02878800600D5EA69E1
:10043000002302E0012305E05B1C934202D2E05C52
:100440000028F9D1A869E618C01AA861286A1844DA
:1004500028622846FFF7BCFF04E0D5E9012114F823
:10046000010B9047B442F8D32846FFF7C7FF70BD91
:100470002DE9F0410646002410687529314616A57D
:1004800010D0AFF30080002802DA404213A507E045
:1004900031688A0701D512A502E0490704D511A5E4
:1004A000012401E0AFF3008000210A2206F12407B5
:1004B00009E0B0FBF2FCB0FBF2F302FB1C003030B1
:1004C00078541846491C0028F3D123462A46304662
:1004D000BDE8F04100F02BBA000000002D00000044
:1004E0002B000000200000002DE9F0474FF0000A2B
:1004F00089460446C0F820A02046E16888470028C5
:1005000076D0252806D0D4E901219047206A401CE6
:100510002062F1E7E168204600258847C4F81CA066
:1005200006460027C4F818A02A2E09D0304608F045
:10053000C2FA38B304EB8708303EC8F8186019E0F7
:1005400059F8041B204604EB87029161E168884753
:10055000012F064618D1E069002820DA25F0200591
:100560001DE0D8F8180000EB800006EB40003038A2
:10057000C8F818002046E1688847064608F09BFA4C
:100580000028EED1012F0AD02E2E08D12046E16896
:1005900088477F1C0646022F45F02005C4DBA06972
:1005A000002803DA404245F00105A061E80701D0C8
:1005B00025F01005B6B1A6F14100192802D8203661
:1005C00045F400654A463146204625604D46FFF712
:1005D00015FE58B1012806D0ED1D25F0070000F1E9
:1005E000080989E704E005F1040985E730468AE750
:1005F000206ABDE8F08700000FB400B58DB010A9E7
:10060000099000910B904FF0FF300A9000200C9061
:10061000064878440690064878446A4607900F9941
:1006200009A800F0C3FE0DB05DF814FBB70D000083
:10063000CF0D00002DE9FF5F1D464FF0FF3B9146B7
:100640004FF000085F46D5E90146A96901987F1C73
:100650008847296A824688470028F6D1BAF1FF3FC9
:100660000CD0002E24F4C06419DD600614D5BAF154
:100670002B0F09D0BAF12D0F0ED103E0584604B06C
:10068000BDE8F09F44F48064A96901987F1C884705
:10069000761E8246002E02DDBAF1300F03D0B9F18A
:1006A000000F26D032E0A969761E01987F1C44F421
:1006B00000748847002E824605DDBAF1780F06D017
:1006C000BAF1580F03D0B9F1000F10D01EE0B9F104
:1006D000000F02D0B9F1100F18D1A969761E019848
:1006E0007F1C24F4007488478246102002E0082012
:1006F00000E00A20814609E0A96908FB0908761E86
:1007000001987F1C44F4007488478246002E05DD62
:100710004946504600F0BAFB0028EDDAE969019835
:100720008847A00502D46FF00100A8E7E00725D1B3
:10073000600613D5600502D5C8F1000000E0404610
:1007400029680A1D2A600968220501D5087015E08C
:10075000220701D5088011E008600FE02868011D1C
:1007600029600068210502D580F8008006E0210795
:1007700002D5A0F8008001E0C0F8008038467EE78E
:100780002DE9FF5F4FF000089946144646469169EF
:10079000D2E901A7DDF838B001988847054659EA43
:1007A0000B0005D009E0A1690198761C8847054631
:1007B000216A284688470028F5D1681C03D05FEAE3
:1007C000CA7005D015E04FF0FF3004B0BDE8F09FCF
:1007D0002068011D2160D0F800800AE05FEACA703D
:1007E00001D108F8015BA169761C01987F1E88473A
:1007F0000546002F1ADD681C18D0B9F1000F0DD086
:10080000E81705EBD060421120F01F0059F82210C4
:100810002A1A012090400142E0D107E0BBF1000F0D
:10082000DCD12846216A88470028D7D0E1690198A1
:100830008847BBF1000F07D1002E05DD5FEACA70C3
:1008400002D1002188F80010A068B84203DDBBF196
:10085000000F03D017B16FF00100B6E73046B4E7E0
:1008600010B5431C02E010F8011B71B18107FAD1E9
:100870004FF0013202C88C1A8C4314EAC211F9D02D
:10088000C01A0A0603D0C01E10BDC01A10BD0A044B
:1008900001D0801E10BD0902FCD0401E10BD4FF0DB
:1008A000000200B5134694469646203922BFA0E8C0
:1008B0000C50A0E80C50B1F12001BFF4F7AF0907CC
:1008C00028BFA0E80C5048BF0CC05DF804EB8900BD
:1008D00028BF40F8042B08BF704748BF20F8022B00
:1008E00011F0804F18BF00F8012B70477047704718
:1008F0007047000070B5064C7C44064D7D4403E013
:10090000206820448047241DAC42F9D170BD00000E
:10091000389700003897000010B500F07BFD0068A4
:1009200010BD10B5044600F075FD046010BD2DE942
:10093000F0470D4699469246044600F124080168A6
:10094000880604D5E06921F01001216000E0012053
:10095000A84201DD471B00E00027A1697A1902EBDC
:100960000900081AA0612078C00602D42046FFF7CB
:100970002FFD002608E0D4E901211AF8060090476F
:10098000206A401C761C20624E45F4DB2078C006AD
:100990000AD52046FFF71CFD06E0D4E901213020EE
:1009A0009047206A401C2062381EA7F10107F4DC42
:1009B00007E0D4E9012118F805009047206A401C9F
:1009C0002062281EA5F10105F3DC2046FFF716FD85
:1009D0002078000602D50220BDE8F0870120FBE761
:1009E00070472DE9FF4F0C461E464FF0FF378BB086
:1009F000D2E90001DDF860800A908A46C1F30A5509
:100A000005B93D46002108464FF00000BAF1000F3D
:100A100000F4400005DA00EB80004FF4400101EAE9
:100A200050004FEA9059B9F1010F00DDB9460A981C
:100A300050EA4A000ED044F61050A5F2FF35454367
:100A40002F14B8F1000F1ED07542291E1EDDC9F10A
:100A500000021CE0B8F1010F4FF0000001D030217E
:100A600003E0F24305E02154401CB042FBDB30467A
:100A70000022002121540B99C1F80880C1E900200F
:100A80000FB0BDE8F08FBD1B6D1CDEE74A4600DAF3
:100A9000694206A800F00AFF06AB93E8070003AB23
:100AA00083E8070050460A9901F02BFA8DE8070009
:100AB000A0F500501F3800900398002D0ADD42F287
:100AC0001F014A460844002303A90390684601F029
:100AD000D7FC09E0A0F500504A461F38002303A9BF
:100AE0000390684601F0F6FC8DE807000004000C56
:100AF00003D04FF0FF30410800E01046B8F1000F7E
:100B000003D00022009215461EE0751E05D400F0A9
:100B100085FC303262556D1EF9D5B346012208437B
:100B200002D000227F1C04E02078302801D100226E
:100B30007F1E002A099784D01DE0112D07DA00F0EE
:100B40006DFC303262556D1C50EA0102F5D108434C
:100B500002D00098C8B10EE00021681E05E0235CB9
:100B6000625C63542254401E491C8142F7DBAB4651
:100B7000A81B401E0990002004F80B000B98099A4E
:100B8000C0F80880C0E9002B7AE711264FF0000872
:100B900057E72DE9F04F88460446D21D22F00701A1
:100BA00091B0D1E90001CDE90A0107F02CFE02461F
:100BB0000B98C00F01D02D2007E02068810701D5D8
:100BC0002B2002E0202101EAC000032A099001D075
:100BD000072A05DB03464146204600F06DFC0BE189
:100BE0002078800601D5E06900E00620B8F1650FA5
:100BF000814606D0B8F1660F18D0B8F1670F70D1F2
:100C000031E00020B9F1110F009001DB112301E068
:100C100009F101030AAA01A90CA8FFF7E2FEDDE928
:100C20000C70002609F10105834647E001204B4680
:100C300000904FF000470AAA01A90CA8FFF7D1FEC7
:100C4000DDE90DB00C995D46002610B909F10100EF
:100C50000D18B9EB050003D4C0F1FF3609F1010509
:100C6000A5EB09002BE0B9F1010F01DA4FF0010902
:100C70000020B9F1110F0090484601DD112300E07A
:100C800003460AAA01A90CA8FFF7ABFEDDE90C7028
:100C90004D4600268346207800070AD4AB4500DA8B
:100CA0005D4601A8012D04DD411911F8011C302910
:100CB00007D04F4502DA17F1040F04DA012082460B
:100CC0000FE06D1EEEE7002F02DCED1B3E4403E05B
:100CD000781CA84200DD7D1CB81B00F1010A4FF012
:100CE00000472078000703D4AA4501DB4FF0FF3A04
:100CF0000021B7F1004F0DF143088DF8431024D0C7
:100D000002202B23002F01DA7F422D230A21021E0D
:100D1000A0F1010000DC5FB197FBF1FC97FBF1F261
:100D200001FB1C7C17460CF1300C08F801CDEEE7F6
:100D3000A8F1010003702188090501D5452100E0D3
:100D40006521A0F1010800F8011C09980FA9A1EB89
:100D50000807FF1D00B10120411901EBEA70A169EC
:100D60003844081A401EA0612078C00602D42046EC
:100D7000FFF72EFB099828B1D4E901219047206A9A
:100D8000401C20622078C00622D52046FFF720FBB9
:100D90001EE0002E04DBB34502DD01A8805D00E00B
:100DA0003020D4E901219047206A401C2062761C43
:100DB000AAF101005FEA000A0AD100F027FBC0682F
:100DC0000168405CD4E901219047206A401C206200
:100DD000281EA5F10105DCDC07E0D4E9012118F8A3
:100DE000010B9047206A401C2062381EA7F10107C2
:100DF000F3DC2046FFF702FB032011B041E60000C0
:100E000001694A1C02610878704700B58FB0CDE9CE
:100E100001310021059105497944CDE903101146BE
:100E20006846FFF761FB0FB000BD0000E5FFFFFF64
:100E30000A6802F8010B0A60704710B5436913B1E4
:100E4000AFF3008001E0FFF7EAFA012010BD12784D
:100E500000F124010A7000224A700122EDE71168B6
:100E60004FF0FF32E9E70000074B70B50D467B44B9
:100E7000FFF7CBFF0446284607F0A7FE10B14FF05E
:100E8000FF3070BD204670BD5F7D00003A2800D263
:100E9000303820F02002412A01D3A2F137008842E5
:100EA00001D34FF0FF3070472DE9FF4F06468BB05E
:100EB0000878FF2806D0491C2D2805D000244FF0C3
:100EC000000908E000200CE00124F8E709EB8903A1
:100ED000491C00EB43090878FF28F7D114B1C9F188
:100EE00000008146107800252C46AA4629462D2868
:100EF00001D02B2804D1521C2D2813D0002082466B
:100F00008B461078FF280FD04FF0000C0A21521C9E
:100F1000A5FB017804FB018105FB0C11C5194BEB06
:100F20000104EEE70120EAE7002108464FF0000047
:100F3000BAF1000F02D000EB80004008C0F38157E7
:100F4000012F01DD4FF0FF370E9955EA040009EB40
:100F500001080BD04FF0020918F5FA7F16DA4FEAB4
:100F6000CA70002F706008DD012007E04FEACA70E8
:100F7000C6E900B00FB0BDE8F08F0020306000F08F
:100F800049FAC0F800901821084616E0B8F5FA7F33
:100F900018DD002F02DAF748784401E0F64878447B
:100FA000D0E90010C6E9001040EACA70706000F095
:100FB00031FAC0F80090142108460FB0BDE8F04F98
:100FC00008F0A3BE002108464FF00000B8F1000170
:100FD000099002DAC7F1000200E03A4601DAC8F1EE
:100FE000000106A800F062FC06AB93E8070003AB23
:100FF00083E8070044F23E005BEA04010090584693
:1010000004D144F21E012C465D460091210C0904D6
:10101000014306D10099240444EA15442D041039F3
:10102000009104F07F41014306D10099240244EA73
:1010300015642D020839009104F07041014306D176
:101040000099240144EA15742D01091F009104F050
:101050004041014306D10099A40044EA9574AD00D3
:10106000891E009104F00041084304D100986D19D5
:101070006441401E00904FF001033A466846B8F1C3
:10108000000FCDE9014503A902DD01F038FA01E0C6
:1010900001F00BFABAF1000F04460D4601D084F0BE
:1010A0000044002108464FF00000099940F2FF7704
:1010B000484010F00C0F07D124F00040284303D023
:1010C000C4F30A50B84212D100F0A4F9C0F800905D
:1010D000C4F30A50B8420AD1A8487844D0E90010B5
:1010E000C6E9001004F000410843706042E7C6E919
:1010F00000543FE72DE9FF4F1F464FF0000A4FF025
:10110000FF38454691B0D7E90146CDF83CA000F044
:101110007DF9C0680168405C1090B96912986D1C37
:101120008847396A814688470028F6D1B9F1FF3FE0
:101130000AD0002E24F4D06411DDB9F12B0F08D0B1
:10114000B9F12D0F0BD102E0404615B013E744F47E
:101150008064B96912986D1C8847761E81466005C7
:1011600004A901D52D2000E02B20002E01F1010B58
:101170000DF130088DF810003FDDB9F1690F08D08E
:10118000B9F1490F05D0B9F16E0F02D0B9F14E0F88
:101190001CD13B4601A8009580E85002DDE91212FF
:1011A0006FF0020008F01AFEC11CCED10EE0B96942
:1011B00012986D1C884781461398761E44F400747B
:1011C00005600F98401C002E0F9016DDB9F1300F0E
:1011D000EDD0B9F1780F02D0B9F1580F0DD10F98B9
:1011E00001280AD13B46CDE90054DDE91212001F67
:1011F000029608F0F1FDC11CA7D1109989453ED196
:1012000044F0800406E01399681CAAF1010A44F432
:1012100000740860B9696D1C1298761E88473028E2
:101220008146F0D02BE01099894505D1200603D4E2
:10123000761E44F0800418E0484607F03CFC08B3F2
:10124000761E0DF123018B4544F4007408D2A9F1F8
:1012500030000BF8010B200607D5AAF1010003E0CE
:10126000200602D40AF101008246A00502D5139996
:10127000681C0860B96912986D1C88478146002E69
:10128000D1DC53E0002E51DDB9F1650F02D0B9F188
:10129000450F4BD1A00549D5B9696D1C1298761E32
:1012A00024F440748847002E81460CDD2B2804D09E
:1012B000B9F12D0F07D144F48074B96912986D1CEF
:1012C0008847761E8146E00501D52D2100E02B21BF
:1012D00008F8011BCDF8008021E0761E0DF13901E0
:1012E000884544F400740CD2A9F1300010F0FF00DE
:1012F00088F8000002D10099884509D908F1010851
:1013000006E0E00501D51E4801E042F20F7082467A
:10131000B96912986D1C8847814613980560002EA4
:1013200004DD484607F0C7FB0028D6D1F9691298BA
:101330008847FF2053468BF8000088F80000002003
:101340000A900B9004AA0CA90AA8FFF7ADFDA0050E
:1013500002D46FF00100F8E614F0240F12D0E00779
:101360001CD13868DDE90A12031D3B600068C0E942
:10137000001213E0648F0000568F00001A8E0000E8
:10138000F1D8FFFF0AA9684607F082FBE00705D104
:101390003868009A011D3960006802602846D4E66A
:1013A000026811441378016018467047D1600549FE
:1013B0007944516104497944116200211161114657
:1013C00000F0BAB8EDFFFFFFED000000426842B147
:1013D000016811F8013B23B1521EC0E90012184602
:1013E00070470121C160881E704742685AB1C368C6
:1013F000016843B983688B4205D0491E521CC0E97D
:101400000012002070474FF0FF30704700487047CF
:10141000640B002000487047440B002030B5B0F149
:101420000A024FEA900E71F100034EEA817EB0EBA2
:101430000E0061EB91014FEA101E4EEA017E10EBA7
:101440000E0041EB11114FEA102E4EEA016E10EB27
:101450000E0041EB11214FEA104E4EEA014E10EB07
:101460000E0041EB1141401841F100014FEAD0005C
:1014700040EA41704FEAD10110EB80054FEA810448
:1014800044EA907444EB01046D1944EB0404521BCC
:10149000A3414FF0000348BF0A3200D530BD401CC5
:1014A00041F1000130BD10B5044600F09BFA006820
:1014B000005D00F0010010BD2DE9F0411F4604461B
:1014C00003260168072A01F4006004DB08B116A5B1
:1014D00005E016A503E008B115A500E015A521F06B
:1014E00010002060A069C01EA0610FB1401EA06165
:1014F0002046FEF76DFF4FB1D4E9012138469047F1
:10150000206A401C2062C01C206206E0206AFAE7C4
:10151000D4E9012115F8010B9047761EF8D2204638
:10152000FEF76CFFBDE8F0814E414E006E616E002B
:10153000494E4600696E66002DE9F34F4FF0000AF0
:101540000C4656468DB001200C9001F10C000B901A
:1015500062690B9801219047051E2DD0252D2CD0B6
:10156000216A8847C0B162690B9801219047216ABE
:1015700088470028F7D16269411E0B98904700E028
:10158000761CA1690D988847216A88470028F7D101
:10159000E1690D988847DBE7A1690D988847A84263
:1015A000074601D1761CD3E7E1690D9888477F1C77
:1015B00002D1BAF1000F6FD06CE162690B9800277D
:1015C0003D46394690472A2804D162690B9801218B
:1015D00090470125DFF8D08262690B98012190477E
:1015E000A0F130010A290AD24745E5DC07EB870163
:1015F00000EB4107303FDFD445F01005ECE7E9068A
:1016000001D46FF000476C280AD04C2814D0682809
:1016100015D06A280DD074281CD07A281AD01DE065
:1016200062690B98012190476C2802D045F00405AF
:1016300014E045F002050DE045F020050AE062697E
:101640000B9801219047682802D045F0080505E075
:1016500045F4006562690B9801219047C4E9015780
:1016600065283DD019DC58287AD00CDC452837D0C5
:1016700004DC252826D041289ED131E046282FD0F1
:10168000472899D12CE05B2877D0612828D063289F
:101690007CD0642823D15AE0F7E06F2848D008DCDA
:1016A00066281DD067281BD0692821D06E2816D146
:1016B00027E0702845D0732868D0752847D078284F
:1016C0000DD14DE0A1690D988847252805463FF4C6
:1016D00069AFE1690D9888476D1C3FF46AAFD9E0A6
:1016E0000D9923466A466FF0010008F073FBC6E0CF
:1016F00045F0400023464FF000026060A80736D452
:101700003EE0E8077FF447AF2068011D21600068D4
:10171000290501D506701BE7290701D5068017E7C3
:10172000A90703D5F117C0E9006111E706600FE7CB
:1017300045F0400023464FF008026060A80716D429
:101740001EE040F60E0125EA0100606016E045F05B
:10175000400023464FF00A026060A80707D40FE05C
:1017600045F040006060A80708D5234610220D9977
:101770006FF00100AFF3008081E007E01022234604
:101780000D996FF00100FEF755FF78E04FF000096A
:1017900063284F46C8464B46CB4602D05B2807D04D
:1017A00039E02079C00601D40120A060012732E091
:1017B0006269D4F80CB00B98012190475E2807D1DC
:1017C0004FF0010949466269D4F80CB00B98904774
:1017D000216939B900210A4603AB43F82120491C8D
:1017E0000829FADBD8B3216949B308F10108626915
:1017F0000B98012190475D28F4D1B9F1000F09D071
:10180000002003A951F82020D24341F82020401C99
:101810000828F7DB03AB2069002820794FEA4070E5
:101820001ED05B462246CDF80080CDE901970D9988
:1018300000286FF0010020DAAFF300801FE0C1172D
:1018400003AA00EBD1614B1121F01F0102EB8302CF
:10185000411A13680120884003431360C7E719E069
:101860000D99224600286FF00100009702DAAFF3CD
:10187000008004E0FEF784FF01E0AFF30080002861
:101880000ADA401C06D10C9820B14FF0FF300FB09F
:10189000BDE8F08F5046FAE7E90701D10AF1010AE5
:1018A000064400200C9053E6CCCCCC0C2DE9F0473C
:1018B000814616468AB0354878440DC88DE80D003B
:1018C00032487844801C03AC0DC884E80D0041F612
:1018D0009B300844372190FBF1F290FBF1F5A5F124
:1018E000800501FB12041B3C02D56442012000E08C
:1018F0000020DFF898A080460027FA44AAF1BE0A2B
:101900000EE0E0070AD03246684607EB47010123A4
:101910000AEB810100F0DEFD8DE8070064107F1CFA
:10192000002CEED1194F7F44AE3F19E0E80715D0E7
:1019300007EB04100DF1180A90E80E008AE80E007B
:10194000C068F04201D1981908903246012306A9D7
:1019500003A800F0BFFD03AB83E807006D10641C13
:10196000002DE3D14FF0010332466946B8F1000F74
:1019700003A802D000F084FD01E000F0ABFDC9E94E
:101980000001C9F808200AB0BDE8F087048600000D
:1019900000487047440B00207546FFF7F9FFAE463C
:1019A00005006946534620F00700854618B020B56B
:1019B000FEF762FCBDE820404FF000064FF0000744
:1019C0004FF000084FF0000B21F00701AC46ACE8E7
:1019D000C009ACE8C009ACE8C009ACE8C0098D4654
:1019E0007047000010B5FFF711FD001D10BD00BFCE
:1019F000417700002DE9FF4F1F464FF03C0987B0AB
:101A00004FF00042DDE9141001F10108DDF858A0A3
:101A100002EA4050039000200590834605460446A4
:101A20000490B969461E08988847AAF1010A0290F5
:101A3000BAF1000F3BDD02982E2815D01021FFF7D8
:101A400025FA00282EDB4FF0010B0599014317D032
:101A5000B9F1000F0BDB4A46C11700F03FFA05430E
:101A60000C43A9F1040905E0012004900BE008B142
:101A700045F0010501200590049820B9361D02E0CB
:101A8000049800B1361FB969089808F10108884721
:101A9000BBF1000FAAF1010A0290C9D00999C1F85F
:101AA0000080C5E70298702808D0502806D0F96950
:101AB00008988847BBF1000F14D04FE00020029037
:101AC0000120BBF1000F049009D0B969089808F112
:101AD00001088847AAF10109B9F1000F07DCF9698B
:101AE000089888476FF001000BB0BDE8F08F2B28F5
:101AF00004D02D280CD14FF0FF300490B96908981C
:101B000008F101088847A9F10109B9F1000FE6DDE4
:101B1000411CE4D00A21FFF7B9F90028DFDB029964
:101B200008F1010801EB810100EB41000290B96965
:101B3000089888470A21FFF7A9F9099AA9F101092C
:101B4000B9F1000FC2F8008001DD0028E7DAF96979
:101B5000089888470499029800FB016655EA04003A
:101B600004D004F04041090002D006E0039898E058
:101B7000A40044EA9574AD00B61E04F000410800CC
:101B800002D16D196441761E159810F0240F03D010
:101B90004FF00B095C4803E04FF028096FF07D001F
:101BA0008246564507DAAAEB06018944B9F1410F8E
:101BB00001DD4FF0410901200021A9F1010200F0EF
:101BC0008DF9024628400B462140084301D00121EF
:101BD00000E00021501E029143F1FF3128402140D6
:101BE000084301D0012000E000200299834651EA19
:101BF0000B014FD0002108464FF00000039900F47C
:101C0000400039B100EB80004FF4400100EBD07090
:101C100001EA60008015012802DD4FF0FF3000E08E
:101C200013D0401C36D0029860B3BBF1000F0CD12A
:101C30004A460120002100F051F928402140084384
:101C400001D0012000E00020E0B101204A4600213F
:101C500000F044F9034640190A4661412D1A8C41AF
:101C600011D3B9F1400F09DD159810F0240F02D0FF
:101C7000AAF1340603E0AAF1170600E0761C00255D
:101C80004FF0004406E05B1E42F1FF3220EA0305FC
:101C900021EA0204CAF10100B04206DA1B490398A6
:101CA00008430190002000900EE0039AC4F3D32172
:101CB000E80A0A43164940EA44500A433146CDE94E
:101CC0000002684606F0EDFE159810F0240F0BD0C8
:101CD0001598C00715D13868DDE90012031D3B6077
:101CE0000068C0E900120CE002A8694606F0D0FEC8
:101CF0001598C00705D13868029A011D396000683F
:101D000002604046F0E6000002FCFFFF0000F07FAA
:101D10000000F03F2DE9FF4F92461D4685B04FF081
:101D20000041DDE9124BDDE914727F1E01EA4B50E0
:101D3000414940F0FF4940EA0108002122F020001B
:101D40004928049102D04E2828D04CE03BA001261F
:101D500007C88DE80700A9690698641C88477F1E9C
:101D6000014606D41DF8060018B121F02001814279
:101D70000BD0E96906988847032E34D0082E32D05C
:101D80006FF0010009B0BDE8F08F761C032E01D082
:101D9000082EE0D1601CCAF80000DCE7A9690698AB
:101DA000641C88477F1E2AD420F02000412826D1B9
:101DB000A9690698641C88477F1E20D420F0200063
:101DC0004E281CD1A9690698641C88477F1E48F4D8
:101DD000002849F48009CAF8004001D4282806D018
:101DE000E969069888475FEACB7012D022E0A969BA
:101DF0000698641C88477F1E01D4002803DAE9692D
:101E000006988847BCE72928F1D1641CCAF800402D
:101E1000E9E71BF0240F07D028680499031D2B6005
:101E20000068C0E9001805E02868021D2A60006803
:101E3000C0F800902046A5E70000F07F494E4649D3
:101E40004E4954590000000010B50446AFF300801D
:101E50002046BDE81040FEF7FBB900004FF0013C02
:101E600050F8042B51F8043B9A4221D1A2EB0C0309
:101E7000934313EACC1317D150F8042B51F8043BC9
:101E80009A4215D1A2EB0C03934313EACC130BD166
:101E900050F8042B51F8043B9A4209D1A2EB0C03F1
:101EA000934313EACC13DBD04FF00000704700BF20
:101EB000D01A01BAB1FA81F101F0180122FA01F049
:101EC000CB40C1F12001DBB2C0B2C01A2CFA01F341
:101ED000D11A914311EAC311E6D17047B2F1200340
:101EE0000AD5C2F1200301FA02F120FA03F300FA45
:101EF00002F041EA0301704700FA03F14FF00000DD
:101F000070475FEA400C08BF91F0000F4FEA8C2346
:101F10004FEAC12243EA51514FEA1C5018BF00F565
:101F2000F0404FEA300018BF41F000415FEA6C5CBE
:101F300000F02980BCF1FF3F08BF40F080407047AF
:101F4000130C06BF12044FF0100C4FF0000C130ED0
:101F500004BF12020CF1080C130F04BF12010CF1A4
:101F6000040C930F04BF92000CF1020CD30F04BFBA
:101F700052000CF1010C11464FF00002A0F11F00BD
:101F8000A0EB0C00704711F0004F08BF704731F014
:101F900000413FF4D5AF0B0C06BF09044FF0100C05
:101FA0004FF0000C0B0E04BF09020CF1080C0B0FD4
:101FB00004BF09010CF1040C8B0F04BF89000CF164
:101FC000020CCB0F04BF49000CF1010CCCF1200333
:101FD000A0EB0C0022FA03F302FA0CF241EA03012F
:101FE00000F10100704720F07F4C80EA030023F0ED
:101FF0007F47ACEB070303F57C5300F0004003F18F
:10200000FF032DE980494FEA154B09B44FEA144309
:1020100025EA0B4E24EA03480FF2042606EB1327A9
:1020200049083E785FEA320203FB0667C7F50007FE
:1020300007FB06F64FEA54374FEAD64606F102068A
:1020400007FB066CCCF1005C4FEA1C472CEA074CFE
:1020500007FB06F40CFB06F504EB15464FEA961653
:1020600034BF00204FF000404FEAD13706FB07FC99
:102070004FEA1C4C0CFB0BF7D21B03FB0CF761EB7C
:1020800007010CFB0EF7B0EB074072EB17420CFB9D
:1020900008F734BFA2EB0742B2EB074261EB1741EE
:1020A0004FEA0C444FEA910706FB07FC4FEA1C4C31
:1020B0000CFB0BF7B0EBC74072EB573203FB0CF78E
:1020C00034BFA2EBC742B2EBC74261EB57310CFB06
:1020D0000EF7B0EBC70072EB57720CFB08F734BF7A
:1020E000A2EBC702B2EBC70261EB5771039F4FEA45
:1020F000816141EA921104EBCC044FEAD1374FEAF7
:10210000826206FB07FC42EA90124FEA80604FEAC7
:102110001C4C0CFB0BF7D21B03FB0CF761EB07010C
:102120000CFB0EF7B0EB074072EB17420CFB08F705
:1021300034BFA2EB0742B2EB074261EB17414FEA13
:102140008C554FEA910704EB9C2406FB07FC4FEAF1
:102150001C4C0CFB0BF7B0EBC74072EB573203FB88
:102160000CF734BFA2EBC742B2EBC74261EB573169
:102170000CFB0EF7B0EBC70072EB57720CFB08F7C5
:1021800034BFA2EBC702B2EBC70261EB577115EB8C
:102190004C254FEA816141EA92114FEA82624FEA8F
:1021A000D13742EA901206FB07FC44F100044FEAE3
:1021B00080604FEA1C4C0CFB0BF7D21B03FB0CF7A7
:1021C00061EB07010CFB0EF7B0EB074072EB174217
:1021D0000CFB08F734BFA2EB0742B2EB074261EBFE
:1021E000174115EB1C154FEA813141EA92414FEA44
:1021F000823242EA90424FEA80304FEA0C7644F154
:10220000000448EA03434EEA0B484FF0000EB2EBDD
:10221000080C71EB030724BF624639464EEB0E0EE5
:102220004FF0000B0018524149414BEB0B0BB2EB46
:10223000080C71EB03077BF1000B24BF62463946A3
:102240004EEB0E0E4FF0000B0018524149414BEB84
:102250000B0BB2EB080C71EB03077BF1000B24BFF7
:10226000624639464EEB0E0E51EA020718BF46F0A1
:10227000010616EB0E7655F1000254F1000103D56C
:10228000BDE88901BDE80088BDE88901BDE80048D6
:10229000B619524141EB0101A3F10103704780805F
:1022A0007F7E7D7C7B7A79787776767574737271B0
:1022B00071706F6E6E6D6C6C6B6A6A696868676668
:1022C00066656464636362616160605F5F5E5E5DFA
:1022D0005D5C5C5B5B5A5A5959585857575656556E
:1022E00055555454535352525251515050504F4FD0
:1022F0004F4E4E4D4D4D4C4C4C4B4B4B4A4A4A4920
:102300004949484848474747474646464545454462
:10231000444444434343434242424241414100001A
:1023200046EA0646A3F570534FEA164646EA425679
:102330004FEAD22242EA415210B54FEAD121A3F12D
:10234000010300F02FF820F0004000F1020C00F033
:10235000004701EB00501146BCF5006F40EA070052
:1023600000D210BDBAF1000F0AD01CB503B44FF073
:1023700004004FF004014FF000000FBCBDE8104016
:102380004FF00001BBF1010FB9BF04484FF0FF311E
:102390000348002140EA070010BD00BFFFFFEF7FA8
:1023A0000000F07F002B9C4630D477002BD01CB56A
:1023B0004FEA370703B44FF010004FF01001BAF1A5
:1023C000000F06D0BCF1000FDCBF40F0080040F069
:1023D00008014FF000000FBCBDE810400BF1010BED
:1023E000BBF1010F08BF5FEA170722BF12F101021C
:1023F00011F101014FF0004143F1000300F00040F2
:1024000043EA00007047F9D35708D0E746EA06468A
:1024100013F1400F4FEA16461FDD13F1200FDFBF07
:1024200016430A46002120335B42BED0C3F1200789
:1024300046EA064602FA07F74FEA164646EA070654
:10244000C3F1200722FA03F201FA07F721FA03F198
:102450004FF0000342EA0702A7E746EA020646EA0F
:1024600006464FEA164646EA0106BCBF46EA06465D
:10247000360C4FF000034FF000024FF0000194E7DC
:102480002DE9804C9A46934670B491E8380007C80D
:1024900031EA400C48BF34EA430C03D5FFF7A3FDF3
:1024A000FFF780FFF0BCBDE8008C2DE9804C9A4618
:1024B000934670B491E8380007C831EA400C48BF31
:1024C00034EA430C03D5FFF78EFDFFF729FFF0BC7C
:1024D000BDE8008C2DE9804C9A46934670B491E893
:1024E000380007C810F0804F08BF13F0804F03D1A9
:1024F00000F01AF8FFF756FFF0BCBDE8008C2DE99C
:10250000804C9A46934670B491E8380007C810F0A2
:10251000804F08BF13F0804F03D100F005F8FFF79C
:10252000FFFEF0BCBDE8008C20F07F4780EA03008E
:1025300023F07F4C07EB0C03A3F57C5300F0004025
:10254000A3F1FE0392F0000F00F0B38095F0000FAE
:1025500000F077802DE901494FEA11404FEA144617
:1025600021EA004800FB06FC24EA064708FB06F6C1
:1025700007FB08F800FB07F718EB06484CEB164C76
:102580004FEA124B18EB07484FEA15464CEB174041
:1025900022EA0B4E0BFB06FC25EA06470EFB06F66D
:1025A00007FB0EFE0BFB07F71EEB064E4CEB164C23
:1025B0004FF000061EEB074E4CEB174B18EB0B08C9
:1025C00040F1000018EB0E0B58EB000840F1000042
:1025D0008F1A4FF000013CBFC943661B14BFB5EB17
:1025E000040C00213CBFC943F61B4FEA17444EEAD6
:1025F0008E0E27EA04454FEA1C4704FB07622CEACB
:10260000074C05FB07F70CFB05F604FB0CFC16EB6F
:10261000074642EB174216EB0C4642EB1C421BEB03
:10262000060658EB0202414146EA9E0601D5BDE886
:102630000189B619524141EB0101A3F10103BDE843
:1026400001894FEA14454FEA114724EA054621EA79
:10265000074C05FB07F406FB07F70CFB06F105FB2F
:102660000CFC11EB074144EB17444FEA124711EB06
:102670000C4144EB1C4422EA074C05FB07F206FB25
:1026800007F70CFB06F605FB0CFC16EB074642EBC6
:10269000174216EB0C4642EB1C456A1854F1000138
:1026A00048BF7047B619524141EB0101A3F1010344
:1026B000704795F0000F37D04FEA11424FEA1447A8
:1026C00021EA024624EA074C02FB07F106FB07F762
:1026D0000CFB06F402FB0CFC14EB074441EB174126
:1026E0004FEA154714EB0C4441EB1C4125EA074C1B
:1026F00002FB07F506FB07F70CFB06F602FB0CFCDA
:1027000016EB074645EB174516EB0C4645EB1C420E
:10271000121951F1000148BF7047B619524141EBFF
:102720000101A3F1010370474FEA14454FEA114735
:1027300024EA054621EA074C05FB07F106FB07F7EB
:102740000CFB06F24FF0000605FB0CFC12EB0742F7
:1027500041EB174112EB0C4251EB1C4148BF704753
:10276000921841EB0101A3F101037047B5EEC00AD5
:1027700010B5F1EE10FA02D2F1EE400A01E0F0EEEF
:10278000400A9FED351A354960EE810AB0EE081A0D
:1027900010EE900A20EE011A08443149884208D20E
:1027A00011EE100A07F036FA41EC100B9FED2D1BCD
:1027B0000EE010EE900A2D4908442D4988420AD2B5
:1027C00011EE100A07F026FA41EC100B9FED291BC1
:1027D00002F0B4FC15E010EE900A2849084428499C
:1027E000884213D210EE100A07F014FA9FED251B51
:1027F00053EC112B06F0E4FF41EC100B042002F027
:102800009DFC00EE100AB8EEC00A10BD10EE900A52
:102810001E49B0EE001A08441D4920EE010A884204
:1028200008D210EE100A07F0F5F941EC100B9FEDFD
:10283000191BCDE710EE900A1849884208DB10EE0C
:10284000100A07F0E7F941EC100B9FED151BBFE7ED
:102850009FED150A10BD00000000C842FFFFCBBD70
:10286000FFFF6B000000000000000440FFFF5FBDA1
:10287000FFFF4F000000000000000C40FFFF0FBDF5
:10288000FFFF63003333333333330340FFFFACBC0C
:10289000FFFF4200000000000000164000009643C9
:1028A000666666666666184000000000FEE7000087
:1028B00030B49FED202A20490123204A204C60EEAD
:1028C000820A61EE821A81F83030002582F83030B9
:1028D0009FED1C2A84F8305003280AD006280DD01A
:1028E000042823D0022810D0052813D00C281AD091
:1028F0001CE081ED022A82ED022A17E081ED022A16
:1029000082ED022A84F8303010E0D1ED020AD2EDD7
:10291000021A0BE0D1ED012A72EEA00AD2ED012AD3
:1029200072EEA11A02E0022084F8300030BC03F0FD
:10293000C5B9000007F06C41E40900204C0A0020F2
:10294000800A00200000000070B53C21124801F010
:102950001BFB022000F0E6FA3C21104801F014FBBA
:10296000022000F0DFFA00210D4801F0A1FE0C2149
:102970000B4801F09DFE03F007FB0A4801F0B2F995
:10298000094D00242C60094E3460094801F0AAF971
:102990002C60346070BD0000200100206801002020
:1029A000D8000020F8010020240400402408004042
:1029B000400200201D4810B53121017032214170C4
:1029C0003F2181702B22C2700171417181710220FF
:1029D00000F0A8FA01221649164802F01DFA02205A
:1029E00000F0A0FA12490122491C134802F014FA1F
:1029F000022000F097FA0E490122891C0F4802F0CC
:102A00000BFA022000F08EFA09490122C91C0C4879
:102A100002F002FA022000F085FA05490122BDE821
:102A20001040091D074802F0F7B90000B407002064
:102A30001C000020E80300202C040020700400206B
:102A400060030020A4030020014800F0F9B8000052
:102A5000F4060020014800F0F3B80000B4040020A0
:102A6000014800F0EDB8000054070020014800F0D4
:102A7000E7B8000014050020014800F0E1B80000AC
:102A800034060020014800F0DBB800009406002066
:102A9000014800F0D5B80000D4050020014800F03E
:102AA000CFB800007405002001681823CAB2103A9C
:102AB000B2FBF3F2054B6FF30901032A9B5CC3657C
:102AC00000D9091D8165084670470000109E000866
:102AD00010B5014600208B698A6A4FF0C07453B16B
:102AE000B3F5005F15D072B1012A0CD0022A0AD0CA
:102AF000032A09D104E01AB1012A06D0022A03D11F
:102B0000C96AC90100D5012010BDC96AA142FAD025
:102B100010BD002AF7D0012AF2D0022AF3D0032AEE
:102B2000F3D010BD30B50468256825F480252560F4
:102B3000046863608368402B036803D09960006871
:102B4000C26030BD9A600068C16030BD704710B58A
:102B50004FF4006000F034FA4FF4805000F030FA87
:102B60004FF4005000F02CFABDE810404FF4004044
:102B700000F026BA082000F023BA102000F020BA96
:102B800072B6FEE72DE9F0410446876D00F026FBA2
:102B9000064694F835000025022806D0802060659E
:102BA00084F834500120BDE8F0812068016821F0EC
:102BB000160101602068416921F080014161206CAB
:102BC00008B9A06C20B12068016821F008010160FB
:102BD0002068016821F0010101600CE000F0FEFABC
:102BE000801B052807D920206065032084F8350064
:102BF00084F83450D7E720680068C007EED194F815
:102C00005C103F208840B860012084F8350084F8CB
:102C100034500020C7E790F83510022903D08021F6
:102C2000416501207047052180F835100068016872
:102C300021F0010101600020704790F835007047D5
:102C40002DE9F84304464FF00009CDF800906348A1
:102C50004FF41651A56D0068B0FBF1F72E6894F89B
:102C60005C10082000FA01F131420FD021680A6897
:102C700052070BD50A6822F004020A6094F85C102F
:102C80008840A860606D40F00100606594F85C10B9
:102C90004FF0010808FA01F0304208D02168496974
:102CA000090604D5A860606D40F00200606594F8E4
:102CB0005C1004208840304208D0216809688907E8
:102CC00004D5A860606D40F00400606594F85C1065
:102CD00010208840304218D021680968090714D5AF
:102CE000A86020680168490304D50068000308D57E
:102CF000A16C07E00168C90503D4016821F008014F
:102D00000160216C09B12046884794F85C102020AE
:102D10008840304231D021680968C9062DD5A860A5
:102D200094F8350005282068016806D0490347D586
:102D3000006800031DD4616C1CE021F016010160E5
:102D40002068416921F080014161206C08B9A06CC4
:102D500020B12068016821F00801016094F85C103E
:102D60003F208840A86084F8358084F83490216D35
:102D70001FE0E16B09B120468847606D00282BD029
:102D8000606DC00714D0052084F835002068016804
:102D900021F0010101600098401C0090B84203D866
:102DA00020680068C007F6D184F8358084F8349034
:102DB000E16C002910D001B02046BDE8F04308477F
:102DC0000168C905D5D4016821F01001016084F8BB
:102DD000358084F83490CCE7BDE8F88310000020FB
:102DE0002DE9F041044600F0F9F906465CB10220F5
:102DF00084F83500002584F834502068016821F0FB
:102E0000010101600DE00120BDE8F08100F0E6F96C
:102E1000801B052805D920206065032084F8350033
:102E2000F2E720680068C007F0D1226811682048E6
:102E30000140D4E901031843D4E90336334318436E
:102E400063691843A3691843E3691843236A184365
:102E50000843616A042903D1D4E90B1319430843D9
:102E6000106020684069666A20F0070130460E4312
:102E7000012704280CD1A06A0643E06A40B120462D
:102E8000FFF726FE20B14020606584F83570BAE770
:102E9000206846612046FFF707FE94F85C203F213A
:102EA00091408160656584F835700020ACE70000D2
:102EB0003F8010F02DE9F0410446866D90F8340013
:102EC000002501280DD0012084F8340094F83570D5
:102ED0000020012F07D084F8340002252846BDE8E1
:102EE000F0810220FBE7022784F8357060652046F8
:102EF000FFF718FE94F85C103F208840B06020680F
:102F0000016841F016010160206C20B12068016861
:102F100041F0080101602068016841F00101016091
:102F2000DCE7000070B5044600F058F90546601C67
:102F300002D004480078044400F050F9401BA0423D
:102F4000FAD370BD040000202DE9F0410024124E98
:102F5000124F0546102802D0082D0CD017E010A003
:102F6000FDF716FA1021114800F02EF978B901206A
:102F700030803C800BE00E4804600EA0FDF708FA9C
:102F800034803C804FF41671002004F08BFB2846FF
:102F9000BDE8F04102F034B9140000201600002012
:102FA0006B6579302020200D0A00000000100240DF
:102FB000180000206B65793120200D0A0000000008
:102FC000044910B50A68024202D00860FFF7BCFF4E
:102FD00010BD0000143C01402DE9F84FDFF8BCA102
:102FE0000022012503264FF00F090AF1040BAAF174
:102FF000040E00BF0B6805FA02F42340A34270D10F
:103000000F7907F00307012F01D0022F16D187682F
:103010004FEA420806FA08FC27EA0C07D1F80CC070
:103020000CFA08FC4CEA070CC0F808C04768A74334
:103030000C79C4F3001494403C4344600C79E4439D
:10304000A4070AD0C4684FEA420C06FA0CF7BC4346
:103050008F6807FA0CF72743C7600C7904F0030464
:10306000022C12D1D40800EB840CDCF82040570766
:10307000FF0E09FA07F824EA0804D1F8108008FACC
:1030800007F848EA0408CCF8208004684FEA420CAC
:1030900006FA0CF7BC430F7907F0030707FA0CF7A1
:1030A000274307604C6814F4403F70D03C4C2768BD
:1030B00047F480472760246822F0030704F4804423
:1030C0000094384C07EB040CDCF8084897074FEAEB
:1030D000177809FA08F7BC43334FB84202D10027EA
:1030E00024E054E0314FB84201D101271EE0304FB7
:1030F000B84201D1022719E02E4FB84201D103276F
:1031000014E02D4FB84201D104270FE02B4FB842F5
:1031100001D105270AE02A4FB84201D1062705E070
:10312000284FB84201D1072700E0082707FA08F71F
:103130002743CCF80878DAF800405746D1F804C0A5
:103140009C435FEACC2C00D51C433C60DBF800407C
:103150005F46D1F804C09C435FEA8C2C00D51C4329
:103160003C60DEF800407746D1F804C09C435FEA3B
:103170008C3C00D51C433C60084F083F3C68D1F8AC
:1031800004C09C435FEACC3C00D51C433C60521C0D
:10319000102AFFF42FAFBDE8F88F0000083C014073
:1031A0004438024000300140000002400004024068
:1031B00000080240000C02400010024000140240CF
:1031C00000180240001C02400069084000D00120A5
:1031D00070470AB1816170470904FBE701488068C4
:1031E000704700000400002070B5040025D094F85A
:1031F0003D00002520B984F83C50204600F0B8F886
:10320000242084F83D002068016821F0010101605C
:103210002068016841F4004101602068016821F4E0
:103220000041016000F018FA4D4A6168914201D8EE
:103230004C4900E04C49884201D2012070BD4B4905
:103240002368B0FBF1F15E6826F03F060E435E6036
:103250006368934206D94FF4967359434FF47A73D7
:10326000B1FBF3F12368491C1E6A26F03F06314387
:1032700019626168914210D84900401EB0FBF1F21A
:10328000521CC2F30B02042A01D2042022E0B0FB3C
:10329000F1F0401CC0F30B001CE0A268F2B301EB9C
:1032A000C10303EB0116431EB3FBF6F35B1C43F4AF
:1032B00080431B0549D092B301EBC10202EB01111F
:1032C000401EB0FBF1F0401CC0F30B0040F4804006
:1032D00040F400402168CA694CF6FF739A431043DA
:1032E000C861D4E9071001432068026822F0C002D7
:1032F00011430160D4E9030101432068826848F268
:10330000FF339A4311438160D4E9050108432168E2
:10331000CA6822F0FF021043C86001E00EE016E028
:103320002068016841F0010101602564202084F8D3
:103330003D00256384F83E50002070BD01EB41063E
:10334000431EB3FBF6F35B1CB3E70120C2E701EBBE
:103350004101401EB0FBF1F0401CC0F30B00B7E789
:10336000A086010080841E0000093D0040420F003D
:1033700010B586B0044614216846FDF790FA14494A
:103380002068884221D113480021026842F00202DD
:103390000260006800F0020005904FF44070009059
:1033A0001220CDE901010320039004200490694616
:1033B0000948FFF711FE07481030016841F4001179
:1033C0000160006800F40010059006B010BD000018
:1033D0000054004030380240000402400248816836
:1033E0000278114481607047040000200B4810B53A
:1033F000016841F400710160016841F4806101607D
:10340000016841F480710160032000F071F803202D
:1034100000F006F800F024F8002010BD003C024047
:1034200070B50D4D04464FF47A712878B1FBF0F079
:103430000A490968B1FBF0F000F022FB48B9102CF2
:1034400007D200222146501E00F032F800206C60A6
:1034500070BD012070BD000004000020100000209D
:103460000B4882B0016841F480410160006800F4BB
:10347000804000900648001F016841F080510160C3
:10348000006800F080500090052002B000F030B8D5
:1034900044380240002809DB00F01F02012191405E
:1034A0004009800000F1E020C0F8001170470000E2
:1034B000F0B40E4B1B680C46C3F30223C3F107059F
:1034C000042D00D90425191D072901D2002300E08D
:1034D000DB1E012606FA05F1491E214099409E4057
:1034E000761E16403143F0BC05F0A5B90CED00E0A6
:1034F000064900F0070208684FF6FF03184040EA4B
:103500000220034A10430860704700000CED00E001
:103510000000FA05704700002DE9F0470E4605004F
:1035200065D0DFF81481D8F80000F7B200F007008A
:10353000B04207D288F80070D8F8000000F0070009
:10354000B04254D128683D4C810712D5400703D5BD
:10355000206840F4E05020602878000703D52068F8
:1035600040F4604020602068A96820F0F000084323
:1035700020602878C0072DD03049686808390128B4
:1035800012D0022813D0032811D009688907002916
:103590002DDA216821F0030101432160FFF71EFEAF
:1035A000814641F2883A0EE009688903EFE709682D
:1035B0008901ECE7FFF712FEA0EB0901514502D9A2
:1035C0000320BDE8F0872068696800F00C00B0EBCC
:1035D000810FEFD1D8F80010404601F00701B14249
:1035E00007D90770006800F00700B04201D0012041
:1035F000E7E72878400705D52068E96820F4E0501F
:10360000084320602878000706D52068296920F43F
:10361000604040EAC100206000F03EF82168084A9E
:10362000C1F30311515CC8400649086006480068B0
:10363000FFF7F6FE0020C4E7003C024008380240D5
:10364000189E0008100000200800002001490120F9
:10365000C86470470000474204480549006809688B
:10366000044AC1F38221515CC84070471000002019
:1036700008380240289E0008044805490068096887
:10368000044AC1F34231515CC84070471000002029
:1036900008380240289E0008154810B5006810F050
:1036A0000C02144813D04110042A0FD0082A0ED15E
:1036B0000F4C241F2268236802F03F025B0207D5EB
:1036C0002068C0F38810A0FB010106E0084610BD89
:1036D0002168C1F38811A1FB00010023FCF7E0FD84
:1036E0002168C1F30141491C4900B0FBF1F010BD54
:1036F000083802400024F400054810B500680006B0
:1037000005D5FFF707FF02498020891C087010BD0E
:103710000C3802402DE9F84F04006ED02078DFF815
:103720004C93C007A9F104054AD009F104000168CF
:10373000C1F38101012908D00068C0F3810002288B
:103740000AD1D9F80000400206D52868800337D591
:1037500060680028E1D033E06068B0F5803F10D0A9
:10376000B0F5A02F286810D020F480302860286899
:1037700020F4802028606068A8B1FFF72FFD06467E
:103780000DE0286840F48030F4E740F480202860A1
:10379000F7E700BFFFF722FD801B642873D8286875
:1037A0008003F7D50CE0FFF719FD064605E000BFE2
:1037B000FFF714FD801B6428F0D828688003F7D435
:1037C0002078DFF8AC8280074FF0000A3ED5A7488A
:1037D000001D016811F00C0F08D00068C0F38100D3
:1037E00002280BD1D9F80000400207D428688007CE
:1037F00016D5E068012800D112E033E1E068B8B1E5
:103800000120C8F80000FFF7E9FC064605E000BF0C
:10381000FFF7E4FC801B0228C0D828688007F7D592
:103820002868216920F0F80040EAC10028600DE016
:10383000C8F800A0FFF7D2FC064604E0FFF7CEFC74
:10384000801B02281FD828688007F7D4207800073B
:1038500022D5864F87486169703771B101210160B7
:10386000FFF7BCFC064604E0FFF7B8FC801B02280B
:1038700009D838688007F7D50EE0C0F800A0FFF738
:10388000ADFC064605E082E0FFF7A8FC801B02289D
:103890007DD838688007F7D42078400768D5DFF8EE
:1038A000CCB100270BF13C0BDBF80000C0000BD4BF
:1038B000DBF8001041F08051CBF80010DBF800007D
:1038C000012700F0805000906B4E3068C00510D486
:1038D000306840F480703060FFF780FC009005E0B5
:1038E000FFF77CFC0099401A022850D83068C005C8
:1038F000F6D55E4EA0686C3601280FD005283068DA
:1039000010D020F001003060306820F004003060FA
:10391000A068B8B1FFF762FC00900FE0306840F09B
:103920000100F4E740F004003060F7E7FFF756FCD1
:103930000099411A41F28830814266D83068800788
:10394000F4D50EE0FFF74AFC009007E0FFF746FCD5
:103950000099411A41F28830814256D83068800778
:10396000F4D42FB1DBF8001021F08051CBF8001017
:10397000A069C8B33D49091D0968C1F38101022945
:103980004AD00228504607D0C8F8600000E03CE06A
:10399000FFF724FC04463BE04746C8F86000FFF709
:1039A0001DFC064605E000BFFFF718FC801B02283F
:1039B0002BD828688001F7D4D4E907010843A16A0D
:1039C0002E4A490802EB0141626A41EA821108432A
:1039D00094F82C1040EA0161C9F800100120386603
:1039E000FFF7FCFB044606E03EE000BFFFF7F6FBF6
:1039F000001B022809D828688001F7D534E000BFF1
:103A0000FFF7ECFB001B022802D90320BDE8F88F6A
:103A100028688001F4D427E00128F7D0D9F8000005
:103A2000E26900F4800191421CD1226A00F03F015A
:103A3000914217D147F6C071626A0140B1EB821F13
:103A400010D1A26A4FF0FF3300F4403103EB520271
:103A5000B1EB024F06D194F82C1000F07060B0EB7F
:103A6000016F01D00120D1E70020CFE704380240E8
:103A700000004742800E4742007000400000FFFFF8
:103A800010B5401EB0F1807F01D3012010BD4FF072
:103A9000E02460610F21601704F0CDFE0020A061DA
:103AA00007202061002010BD7047704710B590F8C6
:103AB0003C20012A22D0012280F83C20CA688C6870
:103AC00022F4407222434C6822F4806222430C6844
:103AD00022F4006222430C6922F4805222434C6992
:103AE00022F400522243C969002322F480420A438F
:103AF00001684A6480F83C30002010BD022010BDEF
:103B000070B590F83C20012A32D0012480F83C4066
:103B1000022280F83D2003685A689D6822F07006F2
:103B20000A6832435A60134B02689A4214D0B2F1C9
:103B3000804F11D0104B9A420ED0104B9A420BD0AE
:103B40000F4B9A4208D00F4B9A4205D00E4B9A4227
:103B500002D00E4B9A4204D1496825F080031943E4
:103B6000916080F83D40002180F83C10084670BD0F
:103B7000022070BD00000140000400400008004029
:103B8000000C0040000401400040014000180040CB
:103B900010B5040003D094F83D0010B107E00120F7
:103BA00010BD002084F83C00204600F01FF80220E1
:103BB00084F83D00211D206803F0A0FF012084F857
:103BC000460084F83E0084F83F0084F8400084F802
:103BD000410084F8420084F8430084F8440084F8EB
:103BE000450084F83D00002010BD000008B50268C3
:103BF00034483549824207D1086840F00100086026
:103C0000086800F0010044E02F48304B001F9A4242
:103C10000ED1016841F0080101600068012200F046
:103C20000800009011463220FFF742FC322022E0CB
:103C3000274B9A420ED1016841F0100101600068E3
:103C4000002200F01000009001213620FFF730FC28
:103C5000362010E01F4B9A4211D1016841F020013B
:103C600001600068002200F0200000900121372050
:103C7000FFF71EFC3720BDE80840FFF70BBC164BD2
:103C80009A4208D1086840F002000860086800F015
:103C90000200009008BD114B9A4207D1086840F419
:103CA00080300860086800F48030F2E70C498A42EE
:103CB000F0D1016841F040010160006800F040006F
:103CC000E7E700000000014044380240000C0040DB
:103CD000001000400014004000040140004001407A
:103CE0000018004090F83D10012901D001207047D4
:103CF000022180F83D100168CA6842F00102CA60E2
:103D000000681149884214D0B0F1804F11D00F499A
:103D100088420ED00E4988420BD00E49884208D006
:103D20000D49884205D00D49884202D00C4988428D
:103D300004D1816801F00701062903D0016841F030
:103D400001010160002070470000014000040040B4
:103D500000080040000C0040000401400040014009
:103D60000018004070B5044690F83C00002501287A
:103D700017D0012684F83C60022084F83D002068BA
:103D8000826822F0770222F47F428260086850281D
:103D900038D00DDC20284FD005DC90B3102811D18D
:103DA0004AE0022070BD302846D040280AD13BE0CE
:103DB00060282FD070280DD0B0F5805F03D0B0F50B
:103DC000005F12D0012584F83D60002084F83C009B
:103DD000284670BDCB68D1E90121206803F0FFFEC1
:103DE0002068816841F0770109E0CB68D1E90121C1
:103DF000206803F0F4FE2068816841F4804181600E
:103E0000E1E719E0CA684968206803F0BDFF502166
:103E1000206806E0CA684968206803F0C6FF602190
:103E2000206803F0E6FECEE7CA684968206803F020
:103E3000ABFF40212068F4E7226801461046F0E716
:103E40002DE9F0410D46040003D094F83D0018B16F
:103E500008E00120BDE8F081002084F83C00204605
:103E600000F040F8022084F83D002068816844F2A8
:103E7000070291438160211D206803F03FFE226804
:103E800090689169166A2B68AF69034340F203306A
:103E9000814341EA0721A868EF6908434FF6FC41D6
:103EA0008843E96840EA0720014328692F6A000136
:103EB00040EA0730084369686D6926F0AA0646EAB9
:103EC0000515294393602268906154F8460B0162FE
:103ED000012004F81F09E0752076E0762077A075B0
:103EE0000020B7E730B587B0044614216846FCF7D8
:103EF000D6FC214824681F4D00231F4A1038022198
:103F0000AC4217D1146844F002041460126802F045
:103F100002020592026842F002020260006800F0AC
:103F20000200059030208DE80B0003910491694652
:103F300012481AE0124DAC4219D1146844F004043E
:103F40001460126802F004020592026842F008024E
:103F50000260006800F0080005904FF440508DE8C2
:103F60000B000391049169460648FFF735F807B046
:103F700030BD000000040040403802400004024010
:103F800000080040000C024070B590F83E60044606
:103F900090F83F5090F8423090F84320022021B131
:103FA00004290ED0012E1BD114E0012E18D1012BB3
:103FB00016D184F83E0084F84200012200212068D6
:103FC00020E0012D0CD1012A0AD184F83F0084F8A9
:103FD000430014E0012D03D1012B01D1012A01D0AE
:103FE000012070BD84F83E0084F83F0084F8420050
:103FF00084F8430001220021206803F0E3FD012240
:104000000421206803F0DEFD2068016841F0010111
:104010000160002070BD704770B5044600680169FA
:104020004FF00005C943890715D4C168C943890702
:1040300011D4E91E01610120207720688069800782
:10404000204602D0FFF7E7FF04E000F04BF92046DE
:1040500000F02CFB257720680169C943490717D474
:10406000C168C943490713D46FF0040101610220FC
:1040700020772068806910F4407F204602D0FFF747
:10408000CAFF04E000F02EF9204600F00FFB257770
:1040900020680169C943090716D4C168C9430907E3
:1040A00012D46FF008010161042020772068C069F4
:1040B0008007204602D0FFF7AEFF04E000F012F9BF
:1040C000204600F0F3FA257720680169C943C90644
:1040D00017D4C168C943C90613D46FF01001016138
:1040E000082020772068C06910F4407F204602D065
:1040F000FFF791FF04E000F0F5F8204600F0D6FA53
:10410000257720680169C943C90708D1C168C94337
:10411000C90704D1891E0161204600F02DFB2068EB
:104120000169C943090609D4C168C943090605D410
:104130006FF0800101612046FFF7B6FC206801693D
:10414000C943490609D4C168C943490605D46FF07B
:1041500040010161204600F018FB20680169C94355
:1041600089060BD4C168C943890607D46FF02001C2
:1041700001612046BDE87040FFF797BC70BD0000AC
:1041800070B586B0044614216846FCF788FB364EAD
:10419000236800243549022201253548B3420FD156
:1041A0000B6843F001030B60096801F00101059100
:1041B0004FF410618DE81600CDE90325694611E042
:1041C0002C4EB34212D10B6843F001030B60096817
:1041D000CDE9022501F0010105910F21CDE9001281
:1041E00069460492FEF7F8FE06B070BD224E032029
:1041F000B34211D10B6843F004030B6009680292CB
:1042000001F0040105914FF47071CDE90012CDE980
:10421000035069461948E5E7194EB34210D10B68BF
:1042200043F010030B600968029201F01001059140
:104230006021CDE90012CDE9035069461148D1E76C
:1042400011488342D0D1086840F002000860086835
:10425000694600F002000590D8008DE8150009209D
:10426000CDE903400948BDE7000001403038024075
:1042700000000240000C0040000401400008024021
:1042800000400140001002400018004000040240BD
:1042900070B5044690F83C00002501280FD001209D
:1042A00084F83C006AB1042A0FD0082A11D00C2AE5
:1042B00013D00125002084F83C00284670BD022060
:1042C00070BD206803F09EFCF4E7206803F0CAFC90
:1042D000F0E7206803F0FCFCECE7206803F02CFD1D
:1042E000E8E700002DE9F041204C05460068216810
:1042F000884238D1287F1E4F01280ED1012138462F
:10430000FEF762FF1B4E10B1304603F077FB2068CA
:10431000416A326901EB92014163287F02280FD183
:1043200002213846FEF750FF124E243610B13046B7
:1043300003F064FB2068416A326901EB92018163FA
:10434000287F04280FD104213846FEF73DFF094D90
:10435000483510B1284603F051FB2068416A2A69AC
:1043600001EB9201C163BDE8F0810000B0010020C3
:1043700000000240B40A002010B5040003D094F8F5
:104380003D0010B107E0012010BD002084F83C0082
:10439000204600F01EF8022084F83D00211D206810
:1043A00003F0ACFB012084F8460084F83E0084F85A
:1043B0003F0084F8400084F8410084F8420084F80B
:1043C000430084F8440084F8450084F83D00002050
:1043D00010BD704730B500250446022249B10429BA
:1043E00012D008294CD094F84100012853D0012064
:1043F00030BD94F83E000128F9D184F83E202068B1
:10440000C26842F0020209E094F83F000128EED1B0
:1044100084F83F202068C26842F00402C260012292
:10442000206803F0CFFB21492068214A884201D04F
:10443000904203D1436C43F40043436420688842B4
:1044400013D0B0F1804F10D01A4988420DD01A49CC
:1044500088420AD01949884207D0904205D01849AD
:10446000884202D01749884204D1816801F00701CF
:10447000062903D0016841F001010160284630BDE2
:1044800094F840000128B2D184F840202068C26826
:1044900042F00802C2E784F841200C2901D001252E
:1044A000ECE72068C26842F01002B7E70000014064
:1044B000000401400004004000080040000C0040DF
:1044C000004001400018004070B50D0004464FF058
:1044D000000607D0042D0AD0082D0DD00C2D10D0C9
:1044E00001263FE02068C16821F002010DE020684C
:1044F000C16821F0040108E02068C16821F00801CA
:1045000003E02068C16821F01001C1600022294643
:10451000206803F057FB194B41F2111120688A10F3
:10452000984202D0164B984209D1036A0B4206D139
:10453000036A134203D1436C23F4004343642068AD
:10454000036A0B4206D1016A114203D1016821F0CE
:104550000101016001203DB1042D08D0082D09D0D2
:1045600084F84100304670BD84F83E00FAE784F8D4
:104570003F00F7E784F84000F4E700000000014046
:104580000004014070B5044690F83C0000260D463A
:1045900001280FD0012084F83C006AB1042A1DD004
:1045A000082A2FD00C2A3FD00126002084F83C0096
:1045B000304670BD022070BD206803F023FB2068E8
:1045C000816941F0080181612068816921F004015D
:1045D0008161206881692A69114311E0206803F034
:1045E00041FB2068816941F4006181612068816933
:1045F00021F480618161206881692A6941EA022190
:104600008161D2E7206803F063FB2068C16941F053
:104610000801C1612068C16921F00401C1612068FD
:10462000C1692A69114311E0206803F085FB206805
:10463000C16941F40061C1612068C16921F48061F0
:10464000C1612068C1692A6941EA0221C161ACE700
:1046500010B5040003D094F83D0010B107E001202C
:1046600010BD002084F83C00204600F01EF8022017
:1046700084F83D00211D206803F040FA012084F8F1
:10468000460084F83E0084F83F0084F8400084F837
:10469000410084F8420084F8430084F8440084F820
:1046A000450084F83D00002010BD704770470000B1
:1046B00010B50446022249B104290ED0082913D0AE
:1046C00094F84100012816D0012010BD94F83E0056
:1046D0000128F9D184F83E200FE094F83F0001282A
:1046E000F2D184F83F2008E094F840000128EBD193
:1046F00084F8402001E084F841200122206803F082
:1047000061FA16492068164A884201D0904203D1C6
:10471000436C43F4004343642068884213D0B0F1F3
:10472000804F10D00F4988420DD00F4988420AD0DF
:104730000E49884207D0904205D00D49884202D0E8
:104740000C49884204D1816801F00701062903D091
:10475000016841F001010160002010BD000001402E
:10476000000401400004004000080040000C00402C
:10477000004001400018004010B5044603F096FDCB
:104780002046BDE8104003F023BB704770477047D8
:10479000F8B5016804460868CA684B6910F00F0F45
:1047A0004FF0000559D003F0010602F4907737432B
:1047B00065D0C10705D0D10503D5216C41F00101B9
:1047C0002164410705D5D90703D0216C41F00201CE
:1047D0002164810705D5D90703D0216C41F004017C
:1047E0002164010707D502F02001314303D0216C79
:1047F00041F008012164216C00293AD0800604D5DB
:10480000900602D5204603F0ABFE20684069216C7B
:10481000C0F38010090700D460B3204603F06BFE9C
:1048200020684069400621D52068143050E8001FF8
:1048300021F0400140E80012002AF5D1A06BA8B198
:104840006C490165A06BFEF7E6F9002811D0A06B5A
:10485000016D01B0BDE8F040084783060FD593060F
:104860000DD52046BDE8F84003F07ABE2046FFF79C
:104870008EFFF8BD2046FFF78AFF2564F8BD266B42
:104880002023012E79D1C60677D5D60675D50868BE
:10489000486800904869400640D5A16B08684068A8
:1048A0000004000CEAD0A28D8242E7D9E085C869F5
:1048B000B0F5807F2DD020680C3050E8001F21F427
:1048C000807140E80012002AF5D12068143050E8C9
:1048D000001F21F0010140E80012002AF5D12068F4
:1048E000143050E8001F21F0400140E80012002A77
:1048F000F5D184F83E30256320680C3050E8001F65
:1049000021F0100140E80012002AF5D1A06BFEF75B
:1049100039F9A08DE18D401A81B229E0A08DE18D99
:10492000401A81B2E08D0028A8D00029A6D02068C6
:104930000C3050E8002F22F4907240E80026002E40
:10494000F5D12068143050E8002F22F0010240E831
:104950000026002EF5D184F83E30256320680C3007
:1049600050E8002F22F0100240E80023002BF5D180
:104970002046FFF70BFFF8BDFFE705062BD5150610
:1049800029D594F83D002128F5D1A068B0F5805FC5
:1049900001D12069B0B1206A411C216221680078F0
:1049A0004860E08C401E0004000CE084E3D12068E5
:1049B000C16821F08001C1602068C16841F04001F8
:1049C000C160D8E7206A0088C0F308004860206A08
:1049D000801C2062E5E74006CDD55006CBD5CA68DD
:1049E000204622F04002CA6084F83D3000F026FBE9
:1049F000C1E700005184000870B5040004D094F8A9
:104A00003D00002510B106E0012070BD84F83C5047
:104A1000204600F023F8242084F83D002068C16877
:104A200021F40051C160204603F0FAFD20680169BD
:104A300021F4904101612068416921F02A0141611E
:104A40002068C16841F40051C1602564202084F8C9
:104A50003D0084F83E00002070BD00002DE9F04FBD
:104A600087B0044614216846FBF719FFDD48DD498D
:104A7000DB4B10382268DFF870E300254E05071580
:104A80004FF002084FF003094FF0080C4FF0400AB6
:104A90004FF4003B9A4254D10A6842F400220A6063
:104AA000096801F400210591016841F004010160E9
:104AB000006802AA00F0040005904FF44060CDE9C0
:104AC000000882E8201269467046FEF785FADFF892
:104AD0002093C6494846C9F80010C0E90165C0E9FD
:104AE0000357C9F81450C9F81850C9E9075BB04614
:104AF0005E46C9F82450FEF773F908B1FEF740F896
:104B0000BB4DBA48C4F8389060353030C9F83840E9
:104B100085E801050020C5E903076861A861C5E9CA
:104B2000070668622846FEF75BF908B1FEF728F829
:104B30006563002201213420AC63FEF7B9FC342008
:104B400035E0AC4B9A4237D10A6842F480120A60D1
:104B5000096801F480110591016841F004010160C8
:104B6000016801F004010591016841F0080101604C
:104B70000068029500F0080005909814CDE900083F
:104B8000CDE9039C644669467046FEF725FA042089
:104B9000CDE900080295CDE9039469469648FEF7F1
:104BA0001BFA002211463520FEF782FC3520FEF765
:104BB00071FC07B0BDE8F08F904B4FF0070C9A42A4
:104BC00057D18849091D0A6842F010020A60096835
:104BD00001F010010591016841F0010101600068D8
:104BE00002AA00F0010005904FF4C060CDE9000872
:104BF00082E8201269468248FEF7EEF9DFF8F0916C
:104C0000804909F1C0094846B846C0E90357C9F8C8
:104C10001450C9F81850C9F81C50C9F8205089E838
:104C20004204C9F82450FEF7DBF808B1FDF7A8FFED
:104C30007448754FC4F834907838C9F838403860F3
:104C4000C7E90165C7E9035880157D61C7E90650CA
:104C50003D6238467D62FEF7C3F808B1FDF790FF6C
:104C6000A763012211462520BC63FEF721FC252005
:104C70009DE7664B9A4258D10A6842F400320A60B6
:104C8000096801F400310591016841F008010160F3
:104C9000006802AA00F0080005906020CDE9000835
:104CA00082E8201269465448FEF796F9DFF85881E9
:104CB0004E4908F1600848314046C8F80010C0E984
:104CC00001650915C0E90351C8F820B08910C8F87A
:104CD0001450C8E90651B1465E46C8F82450FEF7A4
:104CE0007FF808B1FDF74CFF474F4048C4F83880C3
:104CF000C0376030C8F8384087E801060015C7E9BA
:104D000003507D61BD61C7E9075638467D62FEF7F5
:104D100067F808B1FDF734FF676300220121262000
:104D2000BC63FEF7C5FB262041E7394B9A427FF46E
:104D300040AF0A6842F480220A60096801F48021C9
:104D40000591016841F008010160006802AA00F0C5
:104D5000080005904FF44070CDE9000882E8201269
:104D600069462548FEF738F92049DFF8A880183948
:104D70004046C8F80010C0E901650915C0E90351B3
:104D8000C8F81450C8F81850C8E9075BB1465E4629
:104D9000C8F82450FEF724F808B1FDF7F1FE1D4FC6
:104DA0001248C4F8388060371830C8F8384087E8AF
:104DB00001060015C7E903507D61BD61C7E90756CB
:104DC00038467D62FEF70CF808B1FDF7D9FE67633F
:104DD000002201212720BC63FEF76AFB2720E6E6BC
:104DE000004C004040380240000802404060024051
:104DF000B404002000500040000C024000100140AC
:104E000000000240B8640240D40500200044004085
:104E100000480040F406002090F83E30202B0ED1D0
:104E200059B152B190F83C30012B08D0012380F8E1
:104E30003C300023036303F079BC0120704702205B
:104E40007047000010B5044600682149884209D126
:104E5000012220492048FFF7DFFF1E481F49007844
:104E600003F0C6FF1E49206888420CD1194901226F
:104E7000491C1C48FFF7D0FF16481849401C403118
:104E8000007804F01BF81849206888420CD11149B9
:104E90000122891C1548FFF7BFFF0E480F49801CEF
:104EA000C031007804F0A4F81149206888420DD17F
:104EB00008490122C91C0F48FFF7AEFF05480E49FB
:104EC000C01C0078BDE8104004F092B810BD00008E
:104ED000001001401C000020E803002070080020A2
:104EE000004400402C0400200048004070040020D2
:104EF000004C004060030020700900202DE9F843B9
:104F0000044690F83D001F4616460D4620284CD119
:104F1000C5B1BEB194F83C00012846D0012084F808
:104F20003C004FF00008C4F84080212084F83D0088
:104F3000FEF754F9A6848146E684A068B0F5805F48
:104F400003D004E00120BDE8F883206928B12E4693
:104F50005FF0000584F83C800EE00026FAE780212F
:104F6000204603F000FCA0B9AEB116F8010B216891
:104F70004860E08C401EE084E08C4B464FF000021D
:104F800000970028EBD14FF04001204603F0EBFBE7
:104F900030B10320D7E735F8020BC0F30800E6E78D
:104FA000202084F83D000020CDE70220CBE7000060
:104FB00070B5044690F83D00202836D191B38AB3ED
:104FC00094F83C00012830D0012084F83C00216294
:104FD000A284E28400252564212084F83D00636BCF
:104FE0001348D863636B13481864636B1248D86422
:104FF000606B134605652668606B321DFDF75AFF2E
:1050000021686FF04000086084F83C50206814303C
:1050100050E8001F41F0800140E80012002AF5D15D
:10502000002070BDFFE70120FBE70220F9E7000048
:10503000AB840008ED840008618400087047704765
:10504000FEE7000010B504462DED088B90ED010A37
:10505000D0ED020A30EE608A80ED038AB5EEC08A98
:10506000F1EE10FA02D2B1EE480A01E0B0EE480AC1
:1050700010EE100A94ED020A94ED011AD4ED049A90
:10508000F0EE000A31EE400A94ED079AB0F1804F3D
:10509000F0EE401A09EEE00AD4ED050A30EE201ACF
:1050A00031EEE90AD4ED081AD4ED0A0A60EE218A3D
:1050B0002DDA21EE200A10EE100A04F0ABFD41ECCF
:1050C0001B0B18EE100A04F0A5FD9FED1A1B53EC04
:1050D000112B04F075FB41EC1A0B18EE900A04F04A
:1050E00099FD53EC1A2B04F06BF853EC1B2B04F0D6
:1050F00067F841EC1A0B19EE100A04F08BFD53EC23
:105100001A2B04F05DF804F029F8E06109E094ED51
:10511000090A40EE088A40EE818A38EE890A84ED59
:10512000070AC4ED059A84ED048A94ED070ABDECE4
:10513000088B10BD9A99999999990140B1EE601A1E
:10514000B4EEC10AF1EE10FA01D2B0EE410AB4EEAB
:10515000E00AF1EE10FA01DDB0EE600A70470000DF
:1051600010B510EE100A2DED028BB0EE618AF0EE54
:10517000418A04F04FFD9FED201B53EC112B04F0EE
:105180001FFB03F0EBFF00EE100AB5EEC00AF1EED4
:1051900010FA02D2F1EE400A01E0F0EE400AF4EE1D
:1051A000C80AF1EE10FA0CDDB5EEC00AF1EE10FA05
:1051B00004DDB0EE480ABDEC028B10BDB1EE480A2A
:1051C000F9E7B5EEC00AF1EE10FA02D2F1EE400AAC
:1051D00001E0F0EE400AF4EEE80AF1EE10FAEAD24D
:1051E000B5EEC00AF1EE10FA02DDB0EE680AE2E7B1
:1051F000B1EE680ADFE700009A9999999999B93F49
:1052000070B54FF480510024114A884206D11046EF
:10521000FDF7DAFF00280ED10E4D09E04FF40051E2
:10522000884209D11046FDF7CFFF002803D10A4D6F
:10523000A86980476C6070BD4FF400618842FAD164
:105240000648FDF7C1FF0028F5D1054DF0E7000045
:1052500000100240D80A0020FC0A0020000402408E
:10526000B40A002070B504462DED028B002001F039
:1052700025F84FF41670FDF755FE9FED4F8AB0EEFE
:10528000480AB0EE401AF0EE400A02F001FB4FF47B
:105290002F71012002F006FA02F0EAFA0128FBD091
:1052A0009FED461A40F25235012C04D0022C2AD030
:1052B000032C50D076E0F2EE030ADFED418AB0EE27
:1052C000680A02F0E5FA2946012002F0EBF900BF76
:1052D00002F0CEFA0128FBD0022000F0EFFFC82038
:1052E000FDF720FEF0EE480AB0EE680AB0EE601A54
:1052F00002F0CEFA2946012002F0D4F902F0B8FA01
:105300000128FBD04EE09FED2F1AF1EE0E0AB0EE11
:10531000480A02F0BDFA2946012002F0C3F900BF95
:1053200002F0A6FA0128FBD0022000F0C7FFC82037
:10533000FDF7F8FDB0EE480AB0EE401AF0EE400A74
:1053400002F0A6FA2946012002F0ACF902F090FA28
:105350000128FBD026E0DFED1C8AF2EE030AB0EE56
:10536000680A02F095FA2946012002F09BF900BF75
:1053700002F07EFA0128FBD0022000F09FFFC82037
:10538000FDF7D0FDF0EE480AB0EE680AB0EE601A04
:1053900002F07EFA2946012002F084F902F068FA50
:1053A0000128FBD0012000F089FFBDEC028BC82052
:1053B000BDE87040FDF7B6BD0000000000001442DB
:1053C000000084C100000C4200008441294808B557
:1053D000016841F400110160016801F400110091BD
:1053E000016841F4800101600068002200F480003F
:1053F000009001210C20FEF75BF80C20FEF74AF824
:10540000002201210D20FEF753F80D20FEF742F88F
:10541000002201210E20FEF74BF80E20FEF73AF88D
:10542000002201210F20FEF743F80F20FEF732F88B
:10543000002201211020FEF73BF81020FEF72AF889
:10544000002201211120FEF733F81120FEF722F887
:10545000002211463A20FEF72BF83A20FEF71AF800
:10546000002211464620FEF723F8BDE808404620FA
:10547000FEF710B8303802402DE9F04F87B0142104
:105480006846FBF70CFA61480025016841F01001FD
:105490000160016801F010010591016841F02001EF
:1054A0000160016801F020010591016841F080016F
:1054B0000160016801F080010591016841F004017B
:1054C0000160016801F004010591016841F00101EA
:1054D0000160016801F001010591016841F00201DC
:1054E0000160016801F002010591016841F00801C5
:1054F00001600068DFF8189100F008004FF4C06602
:105500000590012231464846FDF763FEDFF804A10D
:1055100000221F215046FDF75CFE4FF48058002208
:1055200041463D48FDF755FE00221B213B48FDF753
:1055300050FE43F218004FF40417CDE90007DFF8DE
:10554000E0B00124694602945846FDF745FDCDE9D7
:10555000006469464846CDE90245FDF73DFD1F2040
:10556000022603958DE8510069465046FDF734FD4B
:10557000A003CDE90005694658460295FDF72CFDCC
:10558000E00300904FF48810CDE9010569465846C4
:10559000FDF722FDE002CDE90007694602942148AB
:1055A000FDF71AFDCDF800800395CDE90146694667
:1055B0001948FDF711FD0094CDE9014569461748EA
:1055C0000395FDF709FD1A208DE85100694613483F
:1055D0000396FDF701FD002211460920FDF768FF43
:1055E0000920FDF757FF002211460A20FDF760FF52
:1055F0000A20FDF74FFF002211462820FDF758FF33
:105600002820FDF747FF07B0BDE8F08F3038024093
:10561000001402400008024000000240000C02405A
:1056200000100240000402400D4810B50B49016013
:105630000C49416000214FF480428160C0E90312AF
:1056400041618161C1610162FDF7CEFD002803D097
:10565000BDE81040FDF794BA10BD000000540040B2
:1056600084000020801A060010B58CB00024079436
:10567000089409941C2168460A94FBF710F91E4807
:105680001C4901605321C0E9011444F61F61C0E9BF
:1056900003148461FEF77CFA08B1FDF771FA4FF448
:1056A0008050079007A91448FEF75CFB08B1FDF78E
:1056B00067FA1148FEF7CCFF08B1FDF761FA6020E8
:1056C000CDE900040294002269460B480494FEF7D9
:1056D00059FF08B1FDF754FA042269460648FEF75F
:1056E00051FF08B1FDF74CFA0348FEF749FD0CB035
:1056F00010BD0000001800401803002010B596B03F
:1057000000240F9410941194129413941C21684651
:105710001494FBF7C4F8202107A8FBF7C0F82D4824
:105720002B4901601421C0E9011440F60F61C0E962
:1057300003148021C0E90541FEF72AFA08B1FDF7FC
:105740001FFA4FF480500F900FA92248FEF70AFB72
:1057500008B1FDF715FA1F48FEF77AFF08B1FDF70B
:105760000FFA139413A91B481494FEF7C9F908B152
:10577000FDF706FA6020CDE9000404200294CDE98B
:10578000034005940022694612480694FEF7FAFE8B
:1057900008B1FDF7F5F90C2269460E48FEF7F2FE56
:1057A00008B1FDF7EDF90794089409944FF40050FF
:1057B0000A94CDE90B4007A906480E94FEF776F946
:1057C00008B1FDF7DDF90348FEF7DAFC16B010BDAD
:1057D00000000140D800002010B58CB0242168469C
:1057E000FBF75DF800241848099416490A94C0E9AB
:1057F00000144FF6FF71C0E9024104618461032087
:10580000CDE900040120CDE9020406210491CDE98F
:105810000540CDE9074169460B48FEF711FB08B189
:10582000FDF7AEF9099409A907480A94FEF768F94B
:1058300008B1FDF7A5F93C210348FEF7A5FB0CB024
:1058400010BD0000000400402001002010B58CB005
:1058500024216846FBF723F80024174809941549CA
:105860000A94C0E900144FF6FF71C0E902410461D7
:1058700084610320CDE900040120CDE902040494F1
:10588000CDE90540079469460B480894FEF7D8FA1D
:1058900008B1FDF775F9099409A907480A94FEF7BC
:1058A0002FF908B1FDF76CF93C210348FEF76CFBBA
:1058B0000CB010BD000800406801002010B58EB08B
:1058C00000240794089409940A940B941C216846B8
:1058D0000C94FAF7E4FF2B48294901605321C0E9F1
:1058E0000114611EC0E903148461FEF751F908B187
:1058F000FDF746F94FF48050079007A92148FEF7BD
:1059000031FA08B1FDF73CF91E48FEF735FD08B144
:10591000FDF736F90B940BA91A480C94FEF7F0F832
:1059200008B1FDF72DF93020CDE9000402940022E2
:10593000694614480494FEF7ABFC08B1FDF720F962
:10594000042269460F48FEF7A3FC08B1FDF718F9D9
:10595000082269460B48FEF79BFC08B1FDF710F9D9
:10596000022002900C2269460648FEF791FC08B11D
:10597000FDF706F90348FEF703FC0EB010BD00006A
:10598000000C0040B00100201CB500240E4800941B
:105990000C490194016042F2CF01C0E90114C72112
:1059A0008461C160FEF7F4F808B1FDF7E9F80094EE
:1059B000694605480194FEF7A3F8002801D0FDF7D9
:1059C000DFF81CBD00100040F80100201CB50024C9
:1059D0000E4800940C490194016042F2CF01C0E9E5
:1059E0000114C8218461C160FEF7D2F808B1FDF747
:1059F000C7F80094694605480194FEF781F800282D
:105A000001D0FDF7BDF81CBD00140040400200208D
:105A100010B596B000240F9410941194129413941E
:105A20001C2168461494FAF73AFF202107A8FAF7D8
:105A300036FF354833490160A721C0E9011444F617
:105A40001F61C0E903148021C0E90541FEF7A0F8F9
:105A500008B1FDF795F84FF480500F900FA92A4830
:105A6000FEF780F908B1FDF78BF82748FEF7F0FD47
:105A700008B1FDF785F8139413A923481494FEF791
:105A80003FF808B1FDF77CF86020CDE900040294EE
:105A9000039404940594002269461B480694FEF77B
:105AA00071FD08B1FDF76CF8042269461648FEF74F
:105AB00069FD08B1FDF764F8082269461248FEF74F
:105AC00061FD08B1FDF75CF80C2269460E48FEF74F
:105AD00059FD08B1FDF754F80794089409944FF460
