:020000040800F2
:10000000901100205902000845550008E1480008F9
:10001000F554000829220008556C00080000000073
:1000200000000000000000000000000075580008FB
:10003000AD240008000000009D570008715F000813
:1000400073020008730200087302000873020008BC
:1000500073020008730200087302000873020008AC
:1000600073020008D5240008DB240008730200088E
:10007000A9230008B5230008C1230008CD230008E8
:10008000D9230008E5230008730200087302000862
:10009000730200087302000873020008730200086C
:1000A000730200087302000873020008730200085C
:1000B000730200087302000873020008730200084C
:1000C000730200087302000873020008730200083C
:1000D00073020008316C00083D6C0008496C000890
:1000E000AF240008730200087302000873020008BE
:1000F000730200087302000873020008730200080C
:1001000073020008730200081960000873020008F7
:10011000016900080D6900082560000831600008C9
:100120007302000873020008F1230008730200083C
:1001300073020008730200087302000873020008CB
:1001400073020008730200087302000873020008BB
:100150007302000873020008FD2300087302000800
:10016000730200087302000873020008730200089B
:100170007302000873020008730200080000000008
:10018000730200087302000800F002F800F054F84F
:100190000AA090E8000C82448344AAF10107DA45E2
:1001A00001D100F049F8AFF2090EBAE80F0013F0E0
:1001B000010F18BFFB1A43F0010318473C810000F0
:1001C0005C810000103A24BF78C878C1FAD8520781
:1001D00024BF30C830C144BF04680C6070470000C1
:1001E0000023002400250026103A28BF78C1FBD840
:1001F000520728BF30C148BF0B607047642900F028
:100200002181732900F0C883002070471FB507F0D3
:1002100084FF00F097FE04000020002107F09AF907
:10022000401C60600020002107F07EF9E06000F0D3
:100230002BFB1FBD10B510BD01F0DEF81146FFF716
:10024000E5FF06F067FF01F02FFB03B4FFF7F2FFB5
:1002500003BC06F0C9FE0000094880470948004772
:10026000FEE7FEE7FEE7FEE7FEE7FEE7FEE7FEE766
:10027000FEE7FEE704480549054A064B70470000C3
:100280000960000889010008900B002090110020EF
:10029000900D0020900D00207047704753EA020C2B
:1002A00000F069802DE9F04B4FF00006002B1FBFD6
:1002B000B3FA83F503FA05F424FA05F65E4012BF9B
:1002C0001643B2FA82F502FA05F4C5F120051EBF05
:1002D00022FA05FC44EA0C04203556EA044C4FEAA5
:1002E000144418BF641C4FF000084FF000099042FE
:1002F00071EB030C39D3002919BFB1FA81F701FA68
:1003000007F6B0FA80F700FA07F6C7F120071EBF1C
:1003100020FA07FC46EA0C062037B6FBF4FCA7EBF4
:100320000507103F07F01F0BCBF120060CFA0BFB63
:100330002CFA06F644BFB3460026202FA4BF5E4623
:100340004FF0000B5BEA060C08BF4FF0010B19EBF6
:100350000B09ABFB027C48EB0608C01B06FB02CC7A
:100360000BFB03CC71EB0C01C1E70B460246414687
:100370004846BDE8F08B13B54FF000004FF0000188
:10038000AFF30080BDE81C40704700000FB4044983
:1003900010B503AA029800F003FB10BC5DF814FB33
:1003A0006800002070B5044685690068C10601D563
:1003B000302600E02026C00707D070BDD4E9012117
:1003C00030469047206A401C20626D1EF6D570BDF5
:1003D00070B5044685690078C00707D170BDD4E9BF
:1003E000012120209047206A401C20626D1EF6D516
:1003F00070BD70B50C460546012A05D028788006E8
:1004000000D5EA69002302E0012305E05B1C93426A
:1004100002D2E05C0028F9D1A869E618C01AA861E8
:10042000286A184428622846FFF7BCFF04E0D5E993
:10043000012114F8010B9047B442F8D32846FFF786
:10044000C7FF70BD2DE9F0410646002410687529EC
:10045000314616A510D0AFF30080002802DA4042E2
:1004600013A507E031688A0701D512A502E0490704
:1004700004D511A5012401E0AFF3008000210A2278
:1004800006F1240709E0B0FBF2FCB0FBF2F302FB3B
:100490001C00303078541846491C0028F3D12346FC
:1004A0002A463046BDE8F04100F00BBA00000000DB
:1004B0002D0000002B000000200000002DE9F04777
:1004C0004FF0000A89460446C0F820A02046E168A3
:1004D0008847002876D0252806D0D4E90121904706
:1004E000206A401C2062F1E7E16820460025884729
:1004F000C4F81CA006460027C4F818A02A2E09D06C
:10050000304606F0E8FC38B304EB8708303EC8F804
:10051000186019E059F8041B204604EB870291612A
:10052000E1688847012F064618D1E069002820DAE3
:1005300025F020051DE0D8F8180000EB800006EB40
:1005400040003038C8F818002046E1688847064661
:1005500006F0C1FC0028EED1012F0AD02E2E08D1C2
:100560002046E16888477F1C0646022F45F020059B
:10057000C4DBA069002803DA404245F00105A06110
:10058000E80701D025F01005B6B1A6F14100192801
:1005900002D8203645F400654A463146204625609B
:1005A0004D46FFF72BFE58B1012806D0ED1D25F072
:1005B000070000F1080989E704E005F1040985E76F
:1005C00030468AE7206ABDE8F08700000FB400B526
:1005D0008DB010A9099000910B904FF0FF300A9058
:1005E00000200C90064878440690064878446A46F5
:1005F00007900F9909A800F075FC0DB05DF814FB89
:100600001B090000330900002DE9FF5F1D464FF074
:10061000FF3B91464FF000085F46D5E90146A969C6
:1006200001987F1C8847296A824688470028F6D1AE
:10063000BAF1FF3F0CD0002E24F4C06419DD60062F
:1006400014D5BAF12B0F09D0BAF12D0F0ED103E05A
:10065000584604B0BDE8F09F44F48064A96901984D
:100660007F1C8847761E8246002E02DDBAF1300FCD
:1006700003D0B9F1000F26D032E0A969761E0198A7
:100680007F1C44F400748847002E824605DDBAF1D1
:10069000780F06D0BAF1580F03D0B9F1000F10D07F
:1006A0001EE0B9F1000F02D0B9F1100F18D1A969FD
:1006B000761E01987F1C24F400748847824610201F
:1006C00002E0082000E00A20814609E0A96908FB51
:1006D0000908761E01987F1C44F4007488478246FE
:1006E000002E05DD4946504600F06CF90028EDDA91
:1006F000E96901988847A00502D46FF00100A8E7D6
:10070000E00725D1600613D5600502D5C8F10000C9
:1007100000E0404629680A1D2A600968220501D5C3
:10072000087015E0220701D5088011E008600FE08D
:100730002868011D29600068210502D580F8008025
:1007400006E0210702D5A0F8008001E0C0F8008093
:1007500038467EE72DE9FF5F4FF0000899461446C2
:1007600046469169D2E901A7DDF838B0019888477B
:10077000054659EA0B0005D009E0A1690198761CED
:1007800088470546216A284688470028F5D1681C15
:1007900003D05FEACA7005D015E04FF0FF3004B017
:1007A000BDE8F09F2068011D2160D0F800800AE0BC
:1007B0005FEACA7001D108F8015BA169761C019853
:1007C0007F1E88470546002F1ADD681C18D0B9F136
:1007D000000F0DD0E81705EBD060421120F01F008C
:1007E00059F822102A1A012090400142E0D107E076
:1007F000BBF1000FDCD12846216A88470028D7D0FA
:10080000E16901988847BBF1000F07D1002E05DD93
:100810005FEACA7002D1002188F80010A068B842CF
:1008200003DDBBF1000F03D017B16FF00100B6E795
:100830003046B4E74FF0000200B5134694469646A2
:10084000203922BFA0E80C50A0E80C50B1F12001E3
:10085000BFF4F7AF090728BFA0E80C5048BF0CC091
:100860005DF804EB890028BF40F8042B08BF7047EF
:1008700048BF20F8022B11F0804F18BF00F8012B61
:10088000704770477047704770B5064C7C44064D02
:100890007D4403E0206820448047241DAC42F9D108
:1008A00070BD0000C47B0000C47B000010B500F0E8
:1008B0004DFB006810BD10B5044600F047FB046016
:1008C00010BD2DE9F0470D4699469246044600F1C9
:1008D00024080168880604D5E06921F01001216030
:1008E00000E00120A84201DD471B00E00027A169CC
:1008F0007A1902EB0900081AA0612078C00602D418
:100900002046FFF74FFD002608E0D4E901211AF840
:1009100006009047206A401C761C20624E45F4DB9E
:100920002078C0060AD52046FFF73CFD06E0D4E952
:10093000012130209047206A401C2062381EA7F118
:100940000107F4DC07E0D4E9012118F8050090471D
:10095000206A401C2062281EA5F10105F3DC204618
:10096000FFF736FD2078000602D50220BDE8F087AB
:100970000120FBE710B5436913B1AFF3008001E03C
:10098000FFF737FD012010BD127800F124010A7035
:1009900000224A700122EDE711684FF0FF32E9E7CB
:1009A000074B70B50D467B4400F0E3FA0446284639
:1009B00006F01BFB10B14FF0FF3070BD204670BD3C
:1009C000476600003A2800D2303820F02002412A41
:1009D00001D3A2F13700884201D34FF0FF307047B6
:1009E0002DE9FF4F06468BB00878FF2806D0491C3A
:1009F0002D2805D000244FF0000908E000200CE06D
:100A00000124F8E709EB8903491C00EB4309087846
:100A1000FF28F7D114B1C9F10000814610780025F4
:100A20002C46AA4629462D2801D02B2804D1521C39
:100A30002D2813D0002082468B461078FF280FD037
:100A40004FF0000C0A21521CA5FB017804FB018128
:100A500005FB0C11C5194BEB0104EEE70120EAE799
:100A6000002108464FF00000BAF1000F02D000EB61
:100A700080004008C0F38157012F01DD4FF0FF37A0
:100A80000E9955EA040009EB01080BD04FF002095A
:100A900018F5FA7F16DA4FEACA70002F706008DD89
:100AA000012007E04FEACA70C6E900B00FB0BDE808
:100AB000F08F0020306000F049FAC0F80090182153
:100AC000084616E0B8F5FA7F18DD002F02DAF7487D
:100AD000784401E0F6487844D0E90010C6E90010F7
:100AE00040EACA70706000F031FAC0F8009014213A
:100AF00008460FB0BDE8F04F07F019BB00210846CB
:100B00004FF00000B8F10001099002DAC7F10002CD
:100B100000E03A4601DAC8F1000106A800F0F6FB51
:100B200006AB93E8070003AB83E8070044F23E00FE
:100B30005BEA04010090584604D144F21E012C46A1
:100B40005D460091210C0904014306D1009924045B
:100B500044EA15442D041039009104F07F4101430B
:100B600006D10099240244EA15642D020839009147
:100B700004F07041014306D10099240144EA157440
:100B80002D01091F009104F04041014306D1009955
:100B9000A40044EA9574AD00891E009104F0004160
:100BA000084304D100986D196441401E00904FF035
:100BB00001033A466846B8F1000FCDE9014503A9A3
:100BC00002DD01F05AF901E001F02DF9BAF1000F50
:100BD00004460D4601D084F00044002108464FF041
:100BE0000000099940F2FF77484010F00C0F07D140
:100BF00024F00040284303D0C4F30A50B84212D175
:100C000000F0A4F9C0F80090C4F30A50B8420AD129
:100C1000A8487844D0E90010C6E9001004F000416B
:100C20000843706042E7C6E900543FE72DE9FF4FF3
:100C30001F464FF0000A4FF0FF38454691B0D7E904
:100C40000146CDF83CA000F07DF9C0680168405C29
:100C50001090B96912986D1C8847396A8146884797
:100C60000028F6D1B9F1FF3F0AD0002E24F4D06459
:100C700011DDB9F12B0F08D0B9F12D0F0BD102E026
:100C8000404615B013E744F48064B96912986D1CAE
:100C90008847761E8146600504A901D52D2000E015
:100CA0002B20002E01F1010B0DF130088DF8100002
:100CB0003FDDB9F1690F08D0B9F1490F05D0B9F19D
:100CC0006E0F02D0B9F14E0F1CD13B4601A8009522
:100CD00080E85002DDE912126FF0020007F08EFA90
:100CE000C11CCED10EE0B96912986D1C88478146AF
:100CF0001398761E44F4007405600F98401C002E73
:100D00000F9016DDB9F1300FEDD0B9F1780F02D0A8
:100D1000B9F1580F0DD10F9801280AD13B46CDE902
:100D20000054DDE91212001F029607F065FAC11C9B
:100D3000A7D1109989453ED144F0800406E013996B
:100D4000681CAAF1010A44F400740860B9696D1CBA
:100D50001298761E884730288146F0D02BE01099F3
:100D6000894505D1200603D4761E44F0800418E09E
:100D7000484606F0B0F808B3761E0DF123018B4506
:100D800044F4007408D2A9F130000BF8010B2006DE
:100D900007D5AAF1010003E0200602D40AF1010000
:100DA0008246A00502D51399681C0860B96912989B
:100DB0006D1C88478146002ED1DC53E0002E51DDAA
:100DC000B9F1650F02D0B9F1450F4BD1A00549D556
:100DD000B9696D1C1298761E24F440748847002E61
:100DE00081460CDD2B2804D0B9F12D0F07D144F436
:100DF0008074B96912986D1C8847761E8146E0059B
:100E000001D52D2100E02B2108F8011BCDF8008031
:100E100021E0761E0DF13901884544F400740CD2AE
:100E2000A9F1300010F0FF0088F8000002D100990D
:100E3000884509D908F1010806E0E00501D51E48FA
:100E400001E042F20F708246B96912986D1C884722
:100E5000814613980560002E04DD484606F03BF8F5
:100E60000028D6D1F96912988847FF2053468BF89D
:100E7000000088F8000000200A900B9004AA0CA93A
:100E80000AA8FFF7ADFDA00502D46FF00100F8E657
:100E900014F0240F12D0E0071CD13868DDE90A12E3
:100EA000031D3B600068C0E9001213E04C780000AD
:100EB0003E78000002770000F1D8FFFF0AA96846DB
:100EC00005F0F6FFE00705D13868009A011D39608A
:100ED000006802602846D4E6026811441378016075
:100EE00018467047D16005497944516104497944F5
:100EF000116200211161114600F04EB8EDFFFFFFB5
:100F000063000000426842B1016811F8013B23B15F
:100F1000521EC0E90012184670470121C160881EA8
:100F2000704742685AB1C368016843B983688B420D
:100F300005D0491E521CC0E90012002070474FF036
:100F4000FF307047004870474C0B00200048704746
:100F50002C0B002010B5044600F074FA0068005D08
:100F600000F0010010BD000001694A1C0261087810
:100F7000704700B58FB0CDE90131002105910549D9
:100F80007944CDE9031011466846FFF797FA0FB090
:100F900000BD0000E5FFFFFF2DE9F34F4FF0000A11
:100FA0000C4656468DB001200C9001F10C000B90C0
:100FB00062690B9801219047051E2DD0252D2CD05C
:100FC000216A8847C0B162690B9801219047216A64
:100FD00088470028F7D16269411E0B98904700E0CE
:100FE000761CA1690D988847216A88470028F7D1A7
:100FF000E1690D988847DBE7A1690D988847A84209
:10100000074601D1761CD3E7E1690D9888477F1C1C
:1010100002D1BAF1000F6FD06CE162690B98002722
:101020003D46394690472A2804D162690B98012130
:1010300090470125DFF8D08262690B980121904723
:10104000A0F130010A290AD24745E5DC07EB870108
:1010500000EB4107303FDFD445F01005ECE7E9062F
:1010600001D46FF000476C280AD04C2814D06828AF
:1010700015D06A280DD074281CD07A281AD01DE00B
:1010800062690B98012190476C2802D045F0040555
:1010900014E045F002050DE045F020050AE0626924
:1010A0000B9801219047682802D045F0080505E01B
:1010B00045F4006562690B9801219047C4E9015726
:1010C00065283DD019DC58287AD00CDC452837D06B
:1010D00004DC252826D041289ED131E046282FD097
:1010E000472899D12CE05B2877D0612828D0632845
:1010F0007CD0642823D15AE0F7E06F2848D008DC80
:1011000066281DD067281BD0692821D06E2816D1EB
:1011100027E0702845D0732868D0752847D07828F4
:101120000DD14DE0A1690D988847252805463FF46B
:1011300069AFE1690D9888476D1C3FF46AAFD9E04B
:101140000D9923466A466FF0010007F053F8C6E098
:1011500045F0400023464FF000026060A80736D4F7
:101160003EE0E8077FF447AF2068011D216000687A
:10117000290501D506701BE7290701D5068017E769
:10118000A90703D5F117C0E9006111E706600FE771
:1011900045F0400023464FF008026060A80716D4CF
:1011A0001EE040F60E0125EA0100606016E045F001
:1011B000400023464FF00A026060A80707D40FE002
:1011C00045F040006060A80708D5234610220D991D
:1011D0006FF00100AFF3008081E007E010222346AA
:1011E0000D996FF00100FFF70FFA78E04FF000095A
:1011F00063284F46C8464B46CB4602D05B2807D0F3
:1012000039E02079C00601D40120A060012732E036
:101210006269D4F80CB00B98012190475E2807D181
:101220004FF0010949466269D4F80CB00B98904719
:10123000216939B900210A4603AB43F82120491C32
:101240000829FADBD8B3216949B308F101086269BA
:101250000B98012190475D28F4D1B9F1000F09D016
:10126000002003A951F82020D24341F82020401C3F
:101270000828F7DB03AB2069002820794FEA40708B
:101280001ED05B462246CDF80080CDE901970D992E
:1012900000286FF0010020DAAFF300801FE0C117D3
:1012A00003AA00EBD1614B1121F01F0102EB830275
:1012B000411A13680120884003431360C7E719E00F
:1012C0000D99224600286FF00100009702DAAFF373
:1012D000008004E0FFF73EFA01E0AFF30080002851
:1012E0000ADA401C06D10C9820B14FF0FF300FB045
:1012F000BDE8F08F5046FAE7E90701D10AF1010A8B
:10130000064400200C9053E6CCCCCC0C2DE9F047E1
:10131000814616468AB0354878440DC88DE80D00E0
:1013200032487844801C03AC0DC884E80D0041F6B7
:101330009B300844372190FBF1F290FBF1F5A5F1C9
:10134000800501FB12041B3C02D56442012000E031
:101350000020DFF898A080460027FA44AAF1BE0AD0
:101360000EE0E0070AD03246684607EB470101234A
:101370000AEB810100F06CFD8DE8070064107F1C12
:10138000002CEED1194F7F44AE3F19E0E80715D08D
:1013900007EB04100DF1180A90E80E008AE80E0021
:1013A000C068F04201D1981908903246012306A97D
:1013B00003A800F04DFD03AB83E807006D10641C2B
:1013C000002DE3D14FF0010332466946B8F1000F1A
:1013D00003A802D000F012FD01E000F039FDC9E9D8
:1013E0000001C9F808200AB0BDE8F087C46F00000A
:1013F000004870472C0B00207546FFF7F9FFAE46FA
:1014000005006946534620F00700854618B020B510
:10141000FEF730FFBDE820404FF000064FF0000718
:101420004FF000084FF0000B21F00701AC46ACE88C
:10143000C009ACE8C009ACE8C009ACE8C0098D46F9
:101440007047000010B5FFF77DFD001D10BD00BF07
:10145000056100002DE9FF4F1F464FF03C0987B0A2
:101460004FF00042DDE9141001F10108DDF858A049
:1014700002EA40500390002005908346054604464A
:101480000490B969461E08988847AAF1010A02909B
:10149000BAF1000F3BDD02982E2815D01021FFF77E
:1014A00091FA00282EDB4FF0010B0599014317D06C
:1014B000B9F1000F0BDB4A46C11700F03FFA0543B4
:1014C0000C43A9F1040905E0012004900BE008B1E8
:1014D00045F0010501200590049820B9361D02E071
:1014E000049800B1361FB969089808F101088847C7
:1014F000BBF1000FAAF1010A0290C9D00999C1F805
:101500000080C5E70298702808D0502806D0F969F5
:1015100008988847BBF1000F14D04FE000200290DC
:101520000120BBF1000F049009D0B969089808F1B7
:1015300001088847AAF10109B9F1000F07DCF96930
:10154000089888476FF001000BB0BDE8F08F2B289A
:1015500004D02D280CD14FF0FF300490B9690898C1
:1015600008F101088847A9F10109B9F1000FE6DD8A
:10157000411CE4D00A21FFF725FA0028DFDB02999D
:1015800008F1010801EB810100EB41000290B9690B
:10159000089888470A21FFF715FA099AA9F1010965
:1015A000B9F1000FC2F8008001DD0028E7DAF9691F
:1015B000089888470499029800FB016655EA0400E0
:1015C00004D004F04041090002D006E0039898E0FE
:1015D000A40044EA9574AD00B61E04F00041080072
:1015E00002D16D196441761E159810F0240F03D0B6
:1015F0004FF00B095C4803E04FF028096FF07D00C5
:101600008246564507DAAAEB06018944B9F1410F33
:1016100001DD4FF0410901200021A9F1010200F094
:101620008DF9024628400B462140084301D0012194
:1016300000E00021501E029143F1FF31284021407B
:10164000084301D0012000E000200299834651EABE
:101650000B014FD0002108464FF00000039900F421
:10166000400039B100EB80004FF4400100EBD07036
:1016700001EA60008015012802DD4FF0FF3000E034
:1016800013D0401C36D0029860B3BBF1000F0CD1D0
:101690004A460120002100F051F92840214008432A
:1016A00001D0012000E00020E0B101204A460021E5
:1016B00000F044F9034640190A4661412D1A8C4155
:1016C00011D3B9F1400F09DD159810F0240F02D0A5
:1016D000AAF1340603E0AAF1170600E0761C002503
:1016E0004FF0004406E05B1E42F1FF3220EA0305A2
:1016F00021EA0204CAF10100B04206DA1B4903984C
:1017000008430190002000900EE0039AC4F3D32117
:10171000E80A0A43164940EA44500A433146CDE9F3
:101720000002684605F0CDFB159810F0240F0BD091
:101730001598C00715D13868DDE90012031D3B601C
:101740000068C0E900120CE002A8694605F0B0FB91
:101750001598C00705D13868029A011D39600068E4
:1017600002604046F0E6000002FCFFFF0000F07F50
:101770000000F03F2DE9FF4F92461D4685B04FF027
:101780000041DDE9124BDDE914727F1E01EA4B5086
:10179000414940F0FF4940EA0108002122F02000C1
:1017A0004928049102D04E2828D04CE03BA00126C5
:1017B00007C88DE80700A9690698641C88477F1E42
:1017C000014606D41DF8060018B121F0200181421F
:1017D0000BD0E96906988847032E34D0082E32D002
:1017E0006FF0010009B0BDE8F08F761C032E01D028
:1017F000082EE0D1601CCAF80000DCE7A969069851
:10180000641C88477F1E2AD420F02000412826D15E
:10181000A9690698641C88477F1E20D420F0200008
:101820004E281CD1A9690698641C88477F1E48F47D
:10183000002849F48009CAF8004001D4282806D0BD
:10184000E969069888475FEACB7012D022E0A9695F
:101850000698641C88477F1E01D4002803DAE969D2
:1018600006988847BCE72928F1D1641CCAF80040D3
:10187000E9E71BF0240F07D028680499031D2B60AB
:101880000068C0E9001805E02868021D2A600068A9
:10189000C0F800902046A5E70000F07F494E464979
:1018A0004E4954590000000010B50446AFF30080C3
:1018B0002046BDE81040FEF7C8BC00004FF0013CD8
:1018C00050F8042B51F8043B9A4221D1A2EB0C03AF
:1018D000934313EACC1317D150F8042B51F8043B6F
:1018E0009A4215D1A2EB0C03934313EACC130BD10C
:1018F00050F8042B51F8043B9A4209D1A2EB0C0397
:10190000934313EACC13DBD04FF00000704700BFC5
:10191000D01A01BAB1FA81F101F0180122FA01F0EE
:10192000CB40C1F12001DBB2C0B2C01A2CFA01F3E6
:10193000D11A914311EAC311E6D17047B2F12003E5
:101940000AD5C2F1200301FA02F120FA03F300FAEA
:1019500002F041EA0301704700FA03F14FF0000082
:10196000704720F07F4C80EA030023F07F47ACEB08
:10197000070303F57C5300F0004003F1FF032DE95A
:1019800080494FEA154B09B44FEA144325EA0B4E40
:1019900024EA03480FF2042606EB132749083E7891
:1019A0005FEA320203FB0667C7F5000707FB06F68E
:1019B0004FEA54374FEAD64606F1020607FB066C9B
:1019C000CCF1005C4FEA1C472CEA074C07FB06F4FD
:1019D0000CFB06F504EB15464FEA961634BF0020C3
:1019E0004FF000404FEAD13706FB07FC4FEA1C4C92
:1019F0000CFB0BF7D21B03FB0CF761EB07010CFB95
:101A00000EF7B0EB074072EB17420CFB08F734BF40
:101A1000A2EB0742B2EB074261EB17414FEA0C44DD
:101A20004FEA910706FB07FC4FEA1C4C0CFB0BF737
:101A3000B0EBC74072EB573203FB0CF734BFA2EB9D
:101A4000C742B2EBC74261EB57310CFB0EF7B0EB6C
:101A5000C70072EB57720CFB08F734BFA2EBC7024A
:101A6000B2EBC70261EB5771039F4FEA816141EA14
:101A7000921104EBCC044FEAD1374FEA826206FBA5
:101A800007FC42EA90124FEA80604FEA1C4C0CFBC4
:101A90000BF7D21B03FB0CF761EB07010CFB0EF7F6
:101AA000B0EB074072EB17420CFB08F734BFA2EB18
:101AB0000742B2EB074261EB17414FEA8C554FEA00
:101AC000910704EB9C2406FB07FC4FEA1C4C0CFB23
:101AD0000BF7B0EBC74072EB573203FB0CF734BF88
:101AE000A2EBC742B2EBC74261EB57310CFB0EF7DA
:101AF000B0EBC70072EB57720CFB08F734BFA2EBD8
:101B0000C702B2EBC70261EB577115EB4C254FEAE8
:101B1000816141EA92114FEA82624FEAD13742EA8B
:101B2000901206FB07FC44F100044FEA80604FEA84
:101B30001C4C0CFB0BF7D21B03FB0CF761EB0701F2
:101B40000CFB0EF7B0EB074072EB17420CFB08F7EB
:101B500034BFA2EB0742B2EB074261EB174115EB32
:101B60001C154FEA813141EA92414FEA823242EA42
:101B700090424FEA80304FEA0C7644F1000448EA84
:101B800003434EEA0B484FF0000EB2EB080C71EB2A
:101B9000030724BF624639464EEB0E0E4FF0000B92
:101BA0000018524149414BEB0B0BB2EB080C71EBA7
:101BB00003077BF1000B24BF624639464EEB0E0E45
:101BC0004FF0000B0018524149414BEB0B0BB2EBAD
:101BD000080C71EB03077BF1000B24BF624639460A
:101BE0004EEB0E0E51EA020718BF46F0010616EB47
:101BF0000E7655F1000254F1000103D5BDE88901CC
:101C0000BDE80088BDE88901BDE80048B619524129
:101C100041EB0101A3F10103704780807F7E7D7C51
:101C20007B7A7978777676757473727171706F6E6E
:101C30006E6D6C6C6B6A6A69686867666665646419
:101C4000636362616160605F5F5E5E5D5D5C5C5BA3
:101C50005B5A5A5959585857575656555555545412
:101C6000535352525251515050504F4F4F4E4E4D70
:101C70004D4D4C4C4C4B4B4B4A4A4A4949494848BC
:101C800048474747474646464545454444444443FC
:101C900043434342424242414141000046EA064634
:101CA000A3F570534FEA164646EA42564FEAD2224F
:101CB00042EA415210B54FEAD121A3F1010300F0ED
:101CC0002FF820F0004000F1020C00F0004701EB7B
:101CD00000501146BCF5006F40EA070000D210BD6D
:101CE000BAF1000F0AD01CB503B44FF004004FF056
:101CF00004014FF000000FBCBDE810404FF00001A0
:101D0000BBF1010FB9BF04484FF0FF310348002178
:101D100040EA070010BD00BFFFFFEF7F0000F07F2B
:101D2000002B9C4630D477002BD01CB54FEA3707E8
:101D300003B44FF010004FF01001BAF1000F06D0BD
:101D4000BCF1000FDCBF40F0080040F008014FF08C
:101D500000000FBCBDE810400BF1010BBBF1010FFF
:101D600008BF5FEA170722BF12F1010211F101015A
:101D70004FF0004143F1000300F0004043EA00004F
:101D80007047F9D35708D0E746EA064613F1400FEB
:101D90004FEA16461FDD13F1200FDFBF16430A4638
:101DA000002120335B42BED0C3F1200746EA06463D
:101DB00002FA07F74FEA164646EA0706C3F120077C
:101DC00022FA03F201FA07F721FA03F14FF00003B8
:101DD00042EA0702A7E746EA020646EA06464FEA53
:101DE000164646EA0106BCBF46EA0646360C4FF0E8
:101DF00000034FF000024FF0000194E72DE9804C02
:101E00009A46934670B491E8380007C831EA400C0E
:101E100048BF34EA430C03D5FFF7A3FDFFF780FF6B
:101E2000F0BCBDE8008C2DE9804C9A46934670B416
:101E300091E8380007C831EA400C48BF34EA430C47
:101E400003D5FFF78EFDFFF729FFF0BCBDE8008C3E
:101E50002DE9804C9A46934670B491E8380007C843
:101E600010F0804F08BF13F0804F03D100F01AF834
:101E7000FFF756FFF0BCBDE8008C2DE9804C9A4678
:101E8000934670B491E8380007C810F0804F08BF3F
:101E900013F0804F03D100F005F8FFF7FFFEF0BC10
:101EA000BDE8008C20F07F4780EA030023F07F4CE0
:101EB00007EB0C03A3F57C5300F00040A3F1FE03F5
:101EC00092F0000F00F0B38095F0000F00F07780E3
:101ED0002DE901494FEA11404FEA144621EA004832
:101EE00000FB06FC24EA064708FB06F607FB08F899
:101EF00000FB07F718EB06484CEB164C4FEA124B69
:101F000018EB07484FEA15464CEB174022EA0B4EF8
:101F10000BFB06FC25EA06470EFB06F607FB0EFE4A
:101F20000BFB07F71EEB064E4CEB164C4FF0000672
:101F30001EEB074E4CEB174B18EB0B0840F1000063
:101F400018EB0E0B58EB000840F100008F1A4FF011
:101F500000013CBFC943661B14BFB5EB040C002154
:101F60003CBFC943F61B4FEA17444EEA8E0E27EAE0
:101F700004454FEA1C4704FB07622CEA074C05FBAB
:101F800007F70CFB05F604FB0CFC16EB074642EBCF
:101F9000174216EB0C4642EB1C421BEB060658EBB5
:101FA0000202414146EA9E0601D5BDE80189B61903
:101FB000524141EB0101A3F10103BDE801894FEA60
:101FC00014454FEA114724EA054621EA074C05FB70
:101FD00007F406FB07F70CFB06F105FB0CFC11EB05
:101FE000074144EB17444FEA124711EB0C4144EB15
:101FF0001C4422EA074C05FB07F206FB07F70CFB23
:1020000006F605FB0CFC16EB074642EB174216EBF7
:102010000C4642EB1C456A1854F1000148BF70475A
:10202000B619524141EB0101A3F10103704795F04C
:10203000000F37D04FEA11424FEA144721EA024617
:1020400024EA074C02FB07F106FB07F70CFB06F43A
:1020500002FB0CFC14EB074441EB17414FEA154718
:1020600014EB0C4441EB1C4125EA074C02FB07F53D
:1020700006FB07F70CFB06F602FB0CFC16EB07460B
:1020800045EB174516EB0C4645EB1C42121951F176
:10209000000148BF7047B619524141EB0101A3F15D
:1020A000010370474FEA14454FEA114724EA0546F9
:1020B00021EA074C05FB07F106FB07F70CFB06F2CC
:1020C0004FF0000605FB0CFC12EB074241EB1741F9
:1020D00012EB0C4251EB1C4148BF7047921841EB88
:1020E0000101A3F101037047B5EEC00A10B5F1EE8E
:1020F00010FA02D2F1EE400A01E0F0EE400A9FED44
:10210000351A354960EE810AB0EE081A10EE900AD1
:1021100020EE011A08443149884208D211EE100A13
:1021200005F08AFF41EC100B9FED2D1B0EE010EE29
:10213000900A2D4908442D4988420AD211EE100A0E
:1021400005F07AFF41EC100B9FED291B02F046FCD5
:1021500015E010EE900A284908442849884213D215
:1021600010EE100A05F068FF9FED251B53EC112BB4
:1021700005F038FD41EC100B042002F02FFC00EEBE
:10218000100AB8EEC00A10BD10EE900A1E49B0EE5B
:10219000001A08441D4920EE010A884208D210EEB8
:1021A000100A05F049FF41EC100B9FED191BCDE71C
:1021B00010EE900A1849884208DB10EE100A05F06C
:1021C0003BFF41EC100B9FED151BBFE79FED150A80
:1021D00010BD00000000C842FFFFCBBDFFFF6B0039
:1021E0000000000000000440FFFF5FBDFFFF4F0044
:1021F0000000000000000C40FFFF0FBDFFFF630068
:102200003333333333330340FFFFACBCFFFF4200B3
:1022100000000000000016400000964366666666F7
:102220006666184000000000FEE7000030B49FED35
:10223000202A20490123204A204C60EE820A61EEC8
:10224000821A81F83030002582F830309FED1C2A48
:1022500084F8305003280AD006280DD0042823D053
:10226000022810D0052813D00C281AD01CE081EDCC
:10227000022A82ED022A17E081ED022A82ED022A6B
:1022800084F8303010E0D1ED020AD2ED021A0BE0F2
:10229000D1ED012A72EEA00AD2ED012A72EEA11A46
:1022A00002E0022084F8300030BC03F025B90000C1
:1022B00007F06C41CC090020340A0020680A002095
:1022C0000000000070B53C21124801F009FB02201B
:1022D00000F0D8FA3C21104801F002FB022000F087
:1022E000D1FA00210D4801F08DFE0C210B4801F0C0
:1022F00089FE03F015FA0A4801F0A0F9094D0024FF
:102300002C60094E3460094801F098F92C60346063
:1023100070BD00002001002068010020D8000020CE
:10232000F80100202404004024080040400200205E
:1023300010B5022000F0A6FA01221549154802F056
:1023400015FA022000F09EFA11490122491C124898
:1023500002F00CFA022000F095FA0D490122891CC6
:102360000E4802F003FA022000F08CFA084901221C
:10237000C91C0B4802F0FAF9022000F083FA044964
:102380000122BDE81040091D064802F0EFB9000027
:102390001C000020E80300202C0400207004002012
:1023A00060030020A4030020014800F0F9B80000F9
:1023B000F4060020014800F0F3B80000B404002047
:1023C000014800F0EDB8000054070020014800F07B
:1023D000E7B8000014050020014800F0E1B8000053
:1023E00034060020014800F0DBB80000940600200D
:1023F000014800F0D5B80000D4050020014800F0E5
:10240000CFB800007405002001681823CAB2103A42
:10241000B2FBF3F2054B6FF30901032A9B5CC36522
:1024200000D9091D81650846704700003082000808
:1024300010B5014600208B698A6A4FF0C07453B111
:10244000B3F5005F15D072B1012A0CD0022A0AD070
:10245000032A09D104E01AB1012A06D0022A03D1C5
:10246000C96AC90100D5012010BDC96AA142FAD0CC
:1024700010BD002AF7D0012AF2D0022AF3D0032A95
:10248000F3D010BD30B50468256825F4802525609B
:10249000046863608368402B036803D09960006818
:1024A000C26030BD9A600068C16030BD704710B531
:1024B0004FF4006000F030FA4FF4805000F02CFA36
:1024C0004FF4005000F028FABDE810404FF40040EF
:1024D00000F022BA082000F01FBA102000F01CBA49
:1024E00072B6FEE72DE9F0410446876D00F022FB4D
:1024F000064694F835000025022806D08020606545
:1025000084F834500120BDE8F0812068016821F092
:10251000160101602068416921F080014161206C51
:1025200008B9A06C20B12068016821F008010160A1
:102530002068016821F0010101600CE000F0FAFA66
:10254000801B052807D920206065032084F835000A
:1025500084F83450D7E720680068C007EED194F8BB
:102560005C103F208840B860012084F8350084F872
:1025700034500020C7E790F83510022903D080219D
:10258000416501207047052180F835100068016819
:1025900021F0010101600020704790F8350070477C
:1025A0002DE9F84304464FF00009CDF80090634848
:1025B0004FF41651A56D0068B0FBF1F72E6894F842
:1025C0005C10082000FA01F131420FD021680A683E
:1025D00052070BD50A6822F004020A6094F85C10D6
:1025E0008840A860606D40F00100606594F85C1060
:1025F0004FF0010808FA01F0304208D0216849691B
:10260000090604D5A860606D40F00200606594F88A
:102610005C1004208840304208D02168096889078E
:1026200004D5A860606D40F00400606594F85C100B
:1026300010208840304218D021680968090714D555
:10264000A86020680168490304D50068000308D524
:10265000A16C07E00168C90503D4016821F00801F5
:102660000160216C09B12046884794F85C10202055
:102670008840304231D021680968C9062DD5A8604C
:1026800094F8350005282068016806D0490347D52D
:10269000006800031DD4616C1CE021F0160101608C
:1026A0002068416921F080014161206C08B9A06C6B
:1026B00020B12068016821F00801016094F85C10E5
:1026C0003F208840A86084F8358084F83490216DDC
:1026D0001FE0E16B09B120468847606D00282BD0D0
:1026E000606DC00714D0052084F8350020680168AB
:1026F00021F0010101600098401C0090B84203D80D
:1027000020680068C007F6D184F8358084F83490DA
:10271000E16C002910D001B02046BDE8F043084725
:102720000168C905D5D4016821F01001016084F861
:10273000358084F83490CCE7BDE8F88310000020A1
:102740002DE9F041044600F0F5F906465CB102209F
:1027500084F83500002584F834502068016821F0A1
:10276000010101600DE00120BDE8F08100F0E2F917
:10277000801B052805D920206065032084F83500DA
:10278000F2E720680068C007F0D12268116820488D
:102790000140D4E901031843D4E903363343184315
:1027A00063691843A3691843E3691843236A18430C
:1027B0000843616A042903D1D4E90B131943084380
:1027C000106020684069666A20F0070130460E43B9
:1027D000012704280CD1A06A0643E06A40B12046D4
:1027E000FFF726FE20B14020606584F83570BAE717
:1027F000206846612046FFF707FE94F85C203F21E1
:1028000091408160656584F835700020ACE7000078
:102810003F8010F02DE9F0410446866D90F83400B9
:10282000002501280DD0012084F8340094F835707B
:102830000020012F07D084F8340002252846BDE887
:10284000F0810220FBE7022784F83570606520469E
:10285000FFF718FE94F85C103F208840B0602068B5
:10286000016841F016010160206C20B12068016808
:1028700041F0080101602068016841F00101016038
:10288000DCE7000070B5044600F054F90546601C12
:1028900002D004480078044400F04CF9401BA042E8
:1028A000FAD370BD0400002070B50024104D114E05
:1028B00010280FD0082819D10F4804600FA0FDF789
:1028C00065FD2C803480BDE870404FF41671002007
:1028D00003F08EB90CA0FDF759FD10210D4800F052
:1028E0001FF9002802D101202880348070BD00002B
:1028F0001400002016000020180000206B657931BC
:1029000020200D0A000000006B6579302020200D8A
:102910000A00000000100240044910B50A68024293
:1029200002D00860FFF7C0FF10BD0000143C01405A
:102930002DE9F84FDFF8BCA10022012503264FF056
:102940000F090AF1040BAAF1040E00BF0B6805FA87
:1029500002F42340A34270D10F7907F00307012F3F
:1029600001D0022F16D187684FEA420806FA08FC08
:1029700027EA0C07D1F80CC00CFA08FC4CEA070C4B
:10298000C0F808C04768A7430C79C4F3001494400A
:102990003C4344600C79E443A4070AD0C4684FEA7E
:1029A000420C06FA0CF7BC438F6807FA0CF7274372
:1029B000C7600C7904F00304022C12D1D40800EB98
:1029C000840CDCF820405707FF0E09FA07F824EAC8
:1029D0000804D1F8108008FA07F848EA0408CCF88F
:1029E000208004684FEA420C06FA0CF7BC430F79CA
:1029F00007F0030707FA0CF7274307604C6814F445
:102A0000403F70D03C4C276847F4804727602468DB
:102A100022F0030704F480440094384C07EB040CC4
:102A2000DCF8084897074FEA177809FA08F7BC431B
:102A3000334FB84202D1002724E054E0314FB8426E
:102A400001D101271EE0304FB84201D1022719E021
:102A50002E4FB84201D1032714E02D4FB84201D1C7
:102A600004270FE02B4FB84201D105270AE02A4F77
:102A7000B84201D1062705E0284FB84201D1072707
:102A800000E0082707FA08F72743CCF80878DAF8B7
:102A900000405746D1F804C09C435FEACC2C00D5D7
:102AA0001C433C60DBF800405F46D1F804C09C4307
:102AB0005FEA8C2C00D51C433C60DEF80040774672
:102AC000D1F804C09C435FEA8C3C00D51C433C60B9
:102AD000084F083F3C68D1F804C09C435FEACC3CF7
:102AE00000D51C433C60521C102AFFF42FAFBDE8F8
:102AF000F88F0000083C014044380240003001409B
:102B0000000002400004024000080240000C0240A5
:102B1000001002400014024000180240001C024055
:102B20000069084000D0012070470AB181617047F8
:102B30000904FBE70148806870470000040000209A
:102B400070B5040025D094F83D00002520B984F824
:102B50003C50204600F0B8F8242084F83D0020685E
:102B6000016821F0010101602068016841F4004121
:102B700001602068016821F40041016000F018FA4A
:102B80004D4A6168914201D84C4900E04C49884265
:102B900001D2012070BD4B492368B0FBF1F15E68A2
:102BA00026F03F060E435E606368934206D94FF4F9
:102BB000967359434FF47A73B1FBF3F12368491CC0
:102BC0001E6A26F03F06314319626168914210D8AF
:102BD0004900401EB0FBF1F2521CC2F30B02042A62
:102BE00001D2042022E0B0FBF1F0401CC0F30B0046
:102BF0001CE0A268F2B301EBC10303EB0116431E14
:102C0000B3FBF6F35B1C43F480431B0549D092B33E
:102C100001EBC10202EB0111401EB0FBF1F0401CC0
:102C2000C0F30B0040F4804040F400402168CA69C2
:102C30004CF6FF739A431043C861D4E9071001436F
:102C40002068026822F0C00211430160D4E9030148
:102C500001432068826848F2FF339A431143816040
:102C6000D4E9050108432168CA6822F0FF02104335
:102C7000C86001E00EE016E02068016841F0010143
:102C800001602564202084F83D00256384F83E50CF
:102C9000002070BD01EB4106431EB3FBF6F35B1C45
:102CA000B3E70120C2E701EB4101401EB0FBF1F0A8
:102CB000401CC0F30B00B7E7A086010080841E0013
:102CC00000093D0040420F0010B586B004461421B3
:102CD0006846FDF7AFFD14492068884221D11348AA
:102CE0000021026842F002020260006800F0020067
:102CF00005904FF4407000901220CDE901010320AF
:102D000003900420049069460948FFF711FE074824
:102D10001030016841F400110160006800F40010F7
:102D2000059006B010BD000000540040303802404D
:102D300000040240024881680278114481607047B3
:102D4000040000200B4810B5016841F400710160D7
:102D5000016841F480610160016841F480710160A3
:102D6000032000F071F8032000F006F800F024F8CA
:102D7000002010BD003C024070B50D4D04464FF4DC
:102D80007A712878B1FBF0F00A490968B1FBF0F0DC
:102D900000F022FB48B9102C07D200222146501E19
:102DA00000F032F800206C6070BD012070BD0000A2
:102DB00004000020100000200B4882B0016841F49C
:102DC00080410160006800F4804000900648001FC8
:102DD000016841F080510160006800F0805000906F
:102DE000052002B000F030B844380240002809DB6A
:102DF00000F01F02012191404009800000F1E02015
:102E0000C0F8001170470000F0B40E4B1B680C4670
:102E1000C3F30223C3F10705042D00D90425191DAE
:102E2000072901D2002300E0DB1E012606FA05F186
:102E3000491E214099409E40761E16403143F0BC09
:102E400003F009BF0CED00E0064900F00702086836
:102E50004FF6FF03184040EA0220034A104308607F
:102E6000704700000CED00E00000FA05704700001C
:102E70002DE9F0470E46050065D0DFF81481D8F83B
:102E80000000F7B200F00700B04207D288F80070E7
:102E9000D8F8000000F00700B04254D128683D4C3B
:102EA000810712D5400703D5206840F4E050206028
:102EB0002878000703D5206840F46040206020682F
:102EC000A96820F0F000084320602878C0072DD0C2
:102ED000304968680839012812D0022813D0032825
:102EE00011D00968890700292DDA216821F0030132
:102EF00001432160FFF71EFE814641F2883A0EE051
:102F000009688903EFE709688901ECE7FFF712FE1A
:102F1000A0EB0901514502D90320BDE8F0872068E4
:102F2000696800F00C00B0EB810FEFD1D8F8001009
:102F3000404601F00701B14207D90770006800F070
:102F40000700B04201D00120E7E72878400705D507
:102F50002068E96820F4E0500843206028780007E2
:102F600006D52068296920F4604040EAC10020604D
:102F700000F03EF82168084AC1F30311515CC840D3
:102F80000649086006480068FFF7F6FE0020C4E71F
:102F9000003C02400838024038820008100000203F
:102FA0000800002001490120C86470470000474222
:102FB0000448054900680968044AC1F38221515C4C
:102FC000C8407047100000200838024048820008BE
:102FD0000448054900680968044AC1F34231515C5C
:102FE000C84070471000002008380240488200089E
:102FF000154810B5006810F00C02144813D04110A9
:10300000042A0FD0082A0ED10F4C241F22682368EF
:1030100002F03F025B0207D52068C0F38810A0FBD6
:10302000010106E0084610BD2168C1F38811A1FB2B
:1030300000010023FDF732F92168C1F30141491C69
:103040004900B0FBF1F010BD083802400024F40044
:10305000054810B50068000605D5FFF707FF0249CF
:103060008020891C087010BD0C3802402DE9F84FF3
:1030700004006ED02078DFF84C93C007A9F1040556
:103080004AD009F104000168C1F38101012908D087
:103090000068C0F3810002280AD1D9F8000040027C
:1030A00006D52868800337D560680028E1D033E072
:1030B0006068B0F5803F10D0B0F5A02F286810D020
:1030C00020F480302860286820F480202860606820
:1030D000A8B1FFF72FFD06460DE0286840F48030C8
:1030E000F4E740F480202860F7E700BFFFF722FDF7
:1030F000801B642873D828688003F7D50CE0FFF79D
:1031000019FD064605E000BFFFF714FD801B64288B
:10311000F0D828688003F7D42078DFF8AC828007E5
:103120004FF0000A3ED5A748001D016811F00C0FB2
:1031300008D00068C0F3810002280BD1D9F8000044
:10314000400207D42868800716D5E068012800D11E
:1031500012E033E1E068B8B10120C8F80000FFF7E1
:10316000E9FC064605E000BFFFF7E4FC801B0228EF
:10317000C0D828688007F7D52868216920F0F800B2
:1031800040EAC10028600DE0C8F800A0FFF7D2FCBB
:10319000064604E0FFF7CEFC801B02281FD82868F3
:1031A0008007F7D42078000722D5864F87486169C9
:1031B000703771B101210160FFF7BCFC064604E0E5
:1031C000FFF7B8FC801B022809D838688007F7D5BC
:1031D0000EE0C0F800A0FFF7ADFC064605E082E077
:1031E000FFF7A8FC801B02287DD838688007F7D439
:1031F0002078400768D5DFF8CCB100270BF13C0BF5
:10320000DBF80000C0000BD4DBF8001041F0805167
:10321000CBF80010DBF80000012700F08050009090
:103220006B4E3068C00510D4306840F48070306058
:10323000FFF780FC009005E0FFF77CFC0099401A46
:10324000022850D83068C005F6D55E4EA0686C36AE
:1032500001280FD00528306810D020F00100306020
:10326000306820F004003060A068B8B1FFF762FC5D
:1032700000900FE0306840F00100F4E740F00400F7
:103280003060F7E7FFF756FC0099411A41F28830A9
:10329000814266D830688007F4D50EE0FFF74AFC1B
:1032A000009007E0FFF746FC0099411A41F2883090
:1032B000814256D830688007F4D42FB1DBF8001073
:1032C00021F08051CBF80010A069C8B33D49091D19
:1032D0000968C1F3810102294AD00228504607D06B
:1032E000C8F8600000E03CE0FFF724FC04463BE047
:1032F0004746C8F86000FFF71DFC064605E000BF22
:10330000FFF718FC801B02282BD828688001F7D40F
:10331000D4E907010843A16A2E4A490802EB01419A
:10332000626A41EA8211084394F82C1040EA016174
:10333000C9F8001001203866FFF7FCFB044606E0E0
:103340003EE000BFFFF7F6FB001B022809D8286803
:103350008001F7D534E000BFFFF7ECFB001B02282B
:1033600002D90320BDE8F88F28688001F4D427E053
:103370000128F7D0D9F80000E26900F480019142F9
:103380001CD1226A00F03F01914217D147F6C0716B
:10339000626A0140B1EB821F10D1A26A4FF0FF3385
:1033A00000F4403103EB5202B1EB024F06D194F826
:1033B0002C1000F07060B0EB016F01D00120D1E75C
:1033C0000020CFE70438024000004742800E474209
:1033D000007000400000FFFF10B5401EB0F1807F7C
:1033E00001D3012010BD4FF0E02460610F21601770
:1033F00003F031FC0020A06107202061002010BDF7
:103400007047704710B590F83C20012A22D0012265
:1034100080F83C20CA688C6822F4407222434C68D1
:1034200022F4806222430C6822F4006222430C6979
:1034300022F4805222434C6922F400522243C9698B
:10344000002322F480420A4301684A6480F83C3039
:10345000002010BD022010BD70B590F83C20012A5C
:1034600032D0012480F83C40022280F83D200368DD
:103470005A689D6822F070060A6832435A60134BFE
:1034800002689A4214D0B2F1804F11D0104B9A4288
:103490000ED0104B9A420BD00F4B9A4208D00F4BD4
:1034A0009A4205D00E4B9A4202D00E4B9A4204D15A
:1034B000496825F080031943916080F83D40002160
:1034C00080F83C10084670BD022070BD000001402D
:1034D0000004004000080040000C004000040140CF
:1034E000004001400018004010B5040003D094F8DB
:1034F0003D0010B107E0012010BD002084F83C0021
:10350000204600F01FF8022084F83D00211D2068AD
:1035100002F094FD012084F8460084F83E0084F80F
:103520003F0084F8400084F8410084F8420084F8A9
:10353000430084F8440084F8450084F83D000020EE
:1035400010BD000008B5026834483549824207D1F1
:10355000086840F001000860086800F0010044E0DD
:103560002F48304B001F9A420ED1016841F00801EC
:1035700001600068012200F008000090114632202E
:10358000FFF742FC322022E0274B9A420ED101681D
:1035900041F0100101600068002200F0100000906E
:1035A00001213620FFF730FC362010E01F4B9A42F5
:1035B00011D1016841F0200101600068002200F093
:1035C0002000009001213720FFF71EFC3720BDE8C6
:1035D0000840FFF70BBC164B9A4208D1086840F030
:1035E00002000860086800F00200009008BD114B5E
:1035F0009A4207D1086840F480300860086800F4F7
:103600008030F2E70C498A42F0D1016841F0400174
:103610000160006800F04000E7E7000000000140A2
:1036200044380240000C00400010004000140040EC
:1036300000040140004001400018004090F83D1097
:10364000012901D001207047022180F83D10016856
:10365000CA6842F00102CA6000681149884214D069
:10366000B0F1804F11D00F4988420ED00E498842E8
:103670000BD00E49884208D00D49884205D00D492B
:10368000884202D00C49884204D1816801F00701C8
:10369000062903D0016841F0010101600020704754
:1036A000000001400004004000080040000C004001
:1036B00000040140004001400018004070B504467D
:1036C00090F83C000025012817D0012684F83C60C2
:1036D000022084F83D002068826822F0770222F4FC
:1036E0007F4282600868502838D00DDC20284FD0F7
:1036F00005DC90B3102811D14AE0022070BD3028BB
:1037000046D040280AD13BE060282FD070280DD049
:10371000B0F5805F03D0B0F5005F12D0012584F8CA
:103720003D60002084F83C00284670BDCB68D1E99C
:103730000121206802F0F3FC2068816841F07701E4
:1037400009E0CB68D1E90121206802F0E8FC20689B
:10375000816841F480418160E1E719E0CA68496805
:10376000206802F0B1FD5021206806E0CA6849686F
:10377000206802F0BAFD6021206802F0DAFCCEE792
:10378000CA684968206802F09FFD40212068F4E77C
:10379000226801461046F0E72DE9F0410D4604008D
:1037A00003D094F83D0018B108E00120BDE8F08195
:1037B000002084F83C00204600F040F8022084F805
:1037C0003D002068816844F2070291438160211D19
:1037D000206802F033FC226890689169166A2B68B1
:1037E000AF69034340F20330814341EA0721A868EF
:1037F000EF6908434FF6FC418843E96840EA072037
:10380000014328692F6A000140EA073008436968CC
:103810006D6926F0AA0646EA0515294393602268D9
:10382000906154F8460B0162012004F81F09E0750D
:103830002076E0762077A0750020B7E730B587B016
:10384000044614216846FCF7F5FF214824681F4D03
:1038500000231F4A10380221AC4217D1146844F0EB
:1038600002041460126802F002020592026842F03B
:1038700002020260006800F00200059030208DE82E
:103880000B0003910491694612481AE0124DAC42B4
:1038900019D1146844F004041460126802F00402A0
:1038A0000592026842F008020260006800F0080019
:1038B00005904FF440508DE80B0003910491694648
:1038C0000648FFF735F807B030BD0000000400409F
:1038D000403802400004024000080040000C024052
:1038E00070B590F83E60044690F83F5090F8423032
:1038F00090F84320022021B104290ED0012E1BD1C3
:1039000014E0012E18D1012B16D184F83E0084F862
:10391000420001220021206820E0012D0CD1012A63
:103920000AD184F83F0084F8430014E0012D03D14C
:10393000012B01D1012A01D0012070BD84F83E0085
:1039400084F83F0084F8420084F8430001220021FB
:10395000206802F0D7FB01220421206802F0D2FB8C
:103960002068016841F001010160002070BD7047CE
:1039700070B50446006801694FF00005C943890726
:1039800015D4C168C943890711D4E91E016101201A
:103990002077206880698007204602D0FFF7E7FF84
:1039A00004E000F049F9204600F02AFB2577206862
:1039B0000169C943490717D4C168C943490713D4EA
:1039C0006FF004010161022020772068806910F403
:1039D000407F204602D0FFF7CAFF04E000F02CF938
:1039E000204600F00DFB257720680169C9430907CF
:1039F00016D4C168C943090712D46FF008010161E8
:103A0000042020772068C0698007204602D0FFF795
:103A1000AEFF04E000F010F9204600F0F1FA25773F
:103A200020680169C943C90617D4C168C943C906DA
:103A300013D46FF010010161082020772068C0695D
:103A400010F4407F204602D0FFF791FF04E000F021
:103A5000F3F8204600F0D4FA257720680169C943BD
:103A6000C90708D1C168C943C90704D1891E0161CA
:103A7000204600F02BFB20680169C943090609D4E0
:103A8000C168C943090605D46FF080010161204671
:103A9000FFF7B6FC20680169C943490609D4C1682B
:103AA000C943490605D46FF040010161204600F08A
:103AB00016FB20680169C94389060BD4C168C94354
:103AC000890607D46FF0200101612046BDE87040EF
:103AD000FFF797BC70BD000070B586B00446142196
:103AE0006846FCF7A7FE2468344E002334490222BE
:103AF00001253448B4420FD10C6844F001040C6035
:103B0000096801F0010105914FF410618DE80E0084
:103B1000CDE9032569460FE02B4EB44210D10C6865
:103B200044F001040C60096801F0010105910F21C6
:103B30008DE82E0069460492FEF7FAFE06B070BDCD
:103B4000224E0320B44211D10B6843F004030B60F2
:103B50000968029201F0040105914FF47071CDE9FA
:103B60000012CDE9035069461948E5E7194EB44201
:103B700010D10B6843F010030B600968029201F04A
:103B8000100105916021CDE90012CDE9035069468D
:103B90001148D1E711488442D0D1086840F00200B2
:103BA00008600868694600F002000590E0008DE8B2
:103BB0000D000920CDE903300948BDE700000140B0
:103BC0003038024000000240000C00400004014078
:103BD0000008024000400140001002400018004070
:103BE0000004024070B5044690F83C00002501280E
:103BF0000FD0012084F83C006AB1042A0FD0082AB3
:103C000011D00C2A13D00125002084F83C0028464E
:103C100070BD022070BD206802F094FAF4E72068BD
:103C200002F0C0FAF0E7206802F0F2FAECE7206850
:103C300002F022FBE8E700002DE9F041204C0546A8
:103C400000682168884238D1287F1E4F01280ED194
:103C500001213846FEF764FF1B4E10B1304602F0DA
:103C60006DF92068416A326901EB92014163287F56
:103C700002280FD102213846FEF752FF124E243699
:103C800010B1304602F05AF92068416A326901EBFE
:103C900092018163287F04280FD104213846FEF762
:103CA0003FFF094D483510B1284602F047F920681A
:103CB000416A2A6901EB9201C163BDE8F08100000D
:103CC000B0010020000002409C0A002010B5040052
:103CD00003D094F83D0010B107E0012010BD002092
:103CE00084F83C00204600F01EF8022084F83D00D5
:103CF000211D206802F0A2F9012084F8460084F812
:103D00003E0084F83F0084F8400084F8410084F8C5
:103D1000420084F8430084F8440084F8450084F8A5
:103D20003D00002010BD704730B50025044602223A
:103D300049B1042912D008294CD094F84100012837
:103D400053D0012030BD94F83E000128F9D184F809
:103D50003E202068C26842F0020209E094F83F0069
:103D60000128EED184F83F202068C26842F00402A6
:103D7000C2600122206802F0C5F921492068214A69
:103D8000884201D0904203D1436C43F40043436422
:103D90002068884213D0B0F1804F10D01A49884271
:103DA0000DD01A4988420AD01949884207D090425A
:103DB00005D01849884202D01749884204D1816849
:103DC00001F00701062903D0016841F001010160FB
:103DD000284630BD94F840000128B2D184F8402034
:103DE0002068C26842F00802C2E784F841200C292A
:103DF00001D00125ECE72068C26842F01002B7E765
:103E000000000140000401400004004000080040A0
:103E1000000C0040004001400018004070B50D004B
:103E200004464FF0000607D0042D0AD0082D0DD00F
:103E30000C2D10D001263FE02068C16821F002015E
:103E40000DE02068C16821F0040108E02068C16825
:103E500021F0080103E02068C16821F01001C16071
:103E600000222946206802F04DF9194B41F2111148
:103E700020688A10984202D0164B984209D1036AF2
:103E80000B4206D1036A134203D1436C23F400436F
:103E900043642068036A0B4206D1016A114203D1D0
:103EA000016821F00101016001203DB1042D08D01D
:103EB000082D09D084F84100304670BD84F83E00DA
:103EC000FAE784F83F00F7E784F84000F4E70000E1
:103ED000000001400004014070B5044690F83C0029
:103EE00000260D4601280FD0012084F83C006AB15D
:103EF000042A1DD0082A2FD00C2A3FD001260020EA
:103F000084F83C00304670BD022070BD206802F08D
:103F100019F92068816941F008018161206881698F
:103F200021F004018161206881692A69114311E04F
:103F3000206802F037F92068816941F400618161ED
:103F40002068816921F480618161206881692A6922
:103F500041EA02218161D2E7206802F059F9206824
:103F6000C16941F00801C1612068C16921F0040103
:103F7000C1612068C1692A69114311E0206802F01B
:103F80007BF92068C16941F40061C1612068C169A1
:103F900021F48061C1612068C1692A6941EA022176
:103FA000C161ACE710B5040003D094F83D0010B136
:103FB00007E0012010BD002084F83C00204600F0FE
:103FC0001EF8022084F83D00211D206802F036F81A
:103FD000012084F8460084F83E0084F83F0084F80D
:103FE000400084F8410084F8420084F8430084F8DB
:103FF000440084F8450084F83D00002010BD70475F
:104000007047000010B50446022249B104290ED0C1
:10401000082913D094F84100012816D0012010BDC2
:1040200094F83E000128F9D184F83E200FE094F87E
:104030003F000128F2D184F83F2008E094F84000C6
:104040000128EBD184F8402001E084F841200122CE
:10405000206802F057F816492068164A884201D0B5
:10406000904203D1436C43F4004343642068884288
:1040700013D0B0F1804F10D00F4988420DD00F49B6
:1040800088420AD00E49884207D0904205D00D4997
:10409000884202D00C49884204D1816801F00701AE
:1040A000062903D0016841F001010160002010BD24
:1040B00000000140000401400004004000080040EE
:1040C000000C0040004001400018004010B50446BC
:1040D00002F088FB2046BDE8104002F019B9704795
:1040E00070477047F8B5016804460868CA684B69AC
:1040F00010F00F0F4FF0000559D003F0010602F445
:104100009077374365D0C10705D0D10503D5216C21
:1041100041F001012164410705D5D90703D0216C85
:1041200041F002012164810705D5D90703D0216C34
:1041300041F004012164010707D502F02001314359
:1041400003D0216C41F008012164216C00293AD090
:10415000800604D5900602D5204602F065FC206852
:104160004069216CC0F38010090700D460B3204679
:1041700002F025FC20684069400621D520681430F3
:1041800050E8001F21F0400140E80012002AF5D15C
:10419000A06BA8B16C490165A06BFEF7ECF9002893
:1041A00011D0A06B016D01B0BDE8F0400847830657
:1041B0000FD593060DD52046BDE8F84002F034BC7B
:1041C0002046FFF78EFFF8BD2046FFF78AFF2564E3
:1041D000F8BD266B2023012E79D1C60677D5D606E9
:1041E00075D50868486800904869400640D5A16BBD
:1041F000086840680004000CEAD0A28D8242E7D92A
:10420000E085C869B0F5807F2DD020680C3050E87B
:10421000001F21F4807140E80012002AF5D12068C7
:10422000143050E8001F21F0010140E80012002A7C
:10423000F5D12068143050E8001F21F0400140E81B
:104240000012002AF5D184F83E30256320680C3036
:1042500050E8001F21F0100140E80012002AF5D1BB
:10426000A06BFEF73FF9A08DE18D401A81B229E0E5
:10427000A08DE18D401A81B2E08D0028A8D00029E0
:10428000A6D020680C3050E8002F22F4907240E84D
:104290000026002EF5D12068143050E8002F22F0BF
:1042A000010240E80026002EF5D184F83E30256357
:1042B00020680C3050E8002F22F0100240E8002364
:1042C000002BF5D12046FFF70BFFF8BDFFE70506F1
:1042D0002BD5150629D594F83D002128F5D1A068E5
:1042E000B0F5805F01D12069B0B1206A411C216224
:1042F000216800784860E08C401E0004000CE084D7
:10430000E3D12068C16821F08001C1602068C168E4
:1043100041F04001C160D8E7206A0088C0F308007E
:104320004860206A801C2062E5E74006CDD5500633
:10433000CBD5CA68204622F04002CA6084F83D30DE
:1043400000F0CCFAC1E700001969000870B504005C
:1043500004D094F83D00002510B106E0012070BDA6
:1043600084F83C50204600F023F8242084F83D00D7
:104370002068C16821F40051C160204602F0B4FBFE
:104380002068016921F4904101612068416921F0B0
:104390002A0141612068C16841F40051C16025646F
:1043A000202084F83D0084F83E00002070BD00000D
:1043B0002DE9F04F87B0044614216846FCF73AFA1D
:1043C000DD48DD49DB4B10382268DFF870E300255B
:1043D0004E0507154FF002084FF003094FF0080C87
:1043E0004FF0400A4FF4003B9A4254D10A6842F41D
:1043F00000220A60096801F400210591016841F07A
:1044000004010160006802AA00F0040005904FF466
:104410004060CDE9000882E8201269467046FEF748
:1044200087FADFF82093C6494846C9F80010C0E96A
:104430000165C0E90357C9F81450C9F81850C9E913
:10444000075BB0465E46C9F82450FEF779F908B11B
:10445000FEF746F8BB4DBA48C4F8389060353030A6
:10446000C9F8384085E801050020C5E903076861FF
:10447000A861C5E9070668622846FEF761F908B138
:10448000FEF72EF86563002201213420AC63FEF7AD
:10449000BBFC342035E0AC4B9A4237D10A6842F479
:1044A00080120A60096801F480110591016841F0E9
:1044B00004010160016801F004010591016841F007
:1044C000080101600068029500F00800059098144A
:1044D000CDE90008CDE9039C644669467046FEF7C5
:1044E00027FA0420CDE900080295CDE90394694636
:1044F0009648FEF71DFA002211463520FEF784FC8F
:104500003520FEF773FC07B0BDE8F08F904B4FF0FD
:10451000070C9A4257D18849091D0A6842F01002D7
:104520000A60096801F010010591016841F001017C
:104530000160006802AA00F0010005904FF4C0601D
:10454000CDE9000882E8201269468248FEF7F0F9BA
:10455000DFF8F091804909F1C0094846B846C0E942
:104560000357C9F81450C9F81850C9F81C50C9F8B5
:10457000205089E84204C9F82450FEF7E1F808B158
:10458000FDF7AEFF7448754FC4F834907838C9F819
:1045900038403860C7E90165C7E9035880157D6177
:1045A000C7E906503D6238467D62FEF7C9F808B19A
:1045B000FDF796FFA763012211462520BC63FEF795
:1045C00023FC25209DE7664B9A4258D10A6842F4A5
:1045D00000320A60096801F400310591016841F078
:1045E00008010160006802AA00F008000590602040
:1045F000CDE9000882E8201269465448FEF798F990
:10460000DFF858814E4908F1600848314046C8F843
:104610000010C0E901650915C0E90351C8F820B0D0
:104620008910C8F81450C8E90651B1465E46C8F86A
:104630002450FEF785F808B1FDF752FF474F404878
:10464000C4F83880C0376030C8F8384087E80106C1
:104650000015C7E903507D61BD61C7E907563846BB
:104660007D62FEF76DF808B1FDF73AFF676300223F
:1046700001212620BC63FEF7C7FB262041E7394B0A
:104680009A427FF440AF0A6842F480220A600968C7
:1046900001F480210591016841F008010160006882
:1046A00002AA00F0080005904FF44070CDE9000820
:1046B00082E8201269462548FEF73AF92049DFF8DA
:1046C000A88018394046C8F80010C0E901650915EE
:1046D000C0E90351C8F81450C8F81850C8E9075B7E
:1046E000B1465E46C8F82450FEF72AF808B1FDF737
:1046F000F7FE1D4F1248C4F8388060371830C8F8EC
:10470000384087E801060015C7E903507D61BD61A7
:10471000C7E9075638467D62FEF712F808B1FDF783
:10472000DFFE6763002201212720BC63FEF76CFBDC
:104730002720E6E6004C00404038024000080240D6
:1047400040600240B404002000500040000C0240D1
:104750000010014000000240B8640240D40500206F
:104760000044004000480040F406002090F83E302D
:10477000202B0ED159B152B190F83C30012B08D00A
:10478000012380F83C300023036302F033BA012098
:10479000704702207047000010B5044600682149A8
:1047A000884209D1012220492048FFF7DFFF1E4837
:1047B0001F49007802F036FD1E49206888420CD15E
:1047C00019490122491C1C48FFF7D0FF1648184917
:1047D000401C4031007802F08BFD18492068884267
:1047E0000CD111490122891C1548FFF7BFFF0E4863
:1047F0000F49801CC031007802F014FE1149206876
:1048000088420DD108490122C91C0F48FFF7AEFFAD
:1048100005480E49C01C0078BDE8104002F002BEF9
:1048200010BD0000001001401C000020E803002023
:1048300058080020004400402C040020004800409C
:1048400070040020004C0040600300205809002044
:1048500070B5044690F83D00202836D191B38AB354
:1048600094F83C00012830D0012084F83C002162FB
:10487000A284E28400252564212084F83D00636B36
:104880001348D863636B13481864636B1248D86489
:10489000606B134605652668606B321DFDF7BAFF35
:1048A00021686FF04000086084F83C5020681430A4
:1048B00050E8001F41F0800140E80012002AF5D1C5
:1048C000002070BDFFE70120FBE70220F9E70000B0
:1048D00073690008B56900082969000870477047C6
:1048E000FEE7000010B504462DED088B90ED010A9F
:1048F000D0ED020A30EE608A80ED038AB5EEC08A00
:10490000F1EE10FA02D2B1EE480A01E0B0EE480A28
:1049100010EE100A94ED020A94ED011AD4ED049AF7
:10492000F0EE000A31EE400A94ED079AB0F1804FA4
:10493000F0EE401A09EEE00AD4ED050A30EE201A36
:1049400031EEE90AD4ED081AD4ED0A0A60EE218AA4
:104950002DDA21EE200A10EE100A03F06DFB41EC77
:104960001B0B18EE100A03F067FB9FED1A1B53ECAC
:10497000112B03F037F941EC1A0B18EE900A03F0F3
:104980005BFB53EC1A2B02F02DFE53EC1B2B02F0B9
:1049900029FE41EC1A0B19EE100A03F04DFB53EC03
:1049A0001A2B02F01FFE02F0EBFDE06109E094ED2E
:1049B000090A40EE088A40EE818A38EE890A84EDC1
:1049C000070AC4ED059A84ED048A94ED070ABDEC4C
:1049D000088B10BD9A99999999990140B1EE601A86
:1049E000B4EEC10AF1EE10FA01D2B0EE410AB4EE13
:1049F000E00AF1EE10FA01DDB0EE600A7047000047
:104A000010B510EE100A2DED028BB0EE618AF0EEBB
:104A1000418A03F011FB9FED201B53EC112B03F097
:104A2000E1F802F0ADFD00EE100AB5EEC00AF1EEBD
:104A300010FA02D2F1EE400A01E0F0EE400AF4EE84
:104A4000C80AF1EE10FA0CDDB5EEC00AF1EE10FA6C
:104A500004DDB0EE480ABDEC028B10BDB1EE480A91
:104A6000F9E7B5EEC00AF1EE10FA02D2F1EE400A13
:104A700001E0F0EE400AF4EEE80AF1EE10FAEAD2B4
:104A8000B5EEC00AF1EE10FA02DDB0EE680AE2E718
:104A9000B1EE680ADFE700009A9999999999B93FB0
:104AA00070B504462DED028B002000F0EFFE4FF4B0
:104AB0001670FDF7E7FE9FED4F8AB0EE480AB0EEA4
:104AC000401AF0EE400A01F083F94FF42F710120F3
:104AD00001F08EF801F06CF90128FBD09FED461A29
:104AE00040F25235012C04D0022C2AD0032C50D095
:104AF00076E0F2EE030ADFED418AB0EE680A01F0DB
:104B000067F92946012001F073F800BF01F050F960
:104B10000128FBD0022000F0B9FEC820FDF7B2FE4C
:104B2000F0EE480AB0EE680AB0EE601A01F050F9F3
:104B30002946012001F05CF801F03AF90128FBD088
:104B40004EE09FED2F1AF1EE0E0AB0EE480A01F08A
:104B50003FF92946012001F04BF800BF01F028F988
:104B60000128FBD0022000F091FEC820FDF78AFE4C
:104B7000B0EE480AB0EE401AF0EE400A01F028F913
:104B80002946012001F034F801F012F90128FBD088
:104B900026E0DFED1C8AF2EE030AB0EE680A01F0AF
:104BA00017F92946012001F023F800BF01F000F9B0
:104BB0000128FBD0022000F069FEC820FDF762FE4C
:104BC000F0EE480AB0EE680AB0EE601A01F000F9A3
:104BD0002946012001F00CF801F0EAF80128FBD089
:104BE000012000F053FEBDEC028BC820BDE87040F0
:104BF000FDF748BE0000000000001442000084C120
:104C000000000C4200008441294808B5016841F4C5
:104C100000110160016801F400110091016841F484
:104C2000800101600068002200F4800000900121F2
:104C30000C20FEF7E9F80C20FEF7D8F8002201213D
:104C40000D20FEF7E1F80D20FEF7D0F8002201213B
:104C50000E20FEF7D9F80E20FEF7C8F80022012139
:104C60000F20FEF7D1F80F20FEF7C0F80022012137
:104C70001020FEF7C9F81020FEF7B8F80022012135
:104C80001120FEF7C1F81120FEF7B0F800221146FE
:104C90003A20FEF7B9F83A20FEF7A8F800221146AC
:104CA0004620FEF7B1F8BDE808404620FEF79EB862
:104CB000303802402DE9F04F87B014216846FBF7E9
:104CC000B9FD61480025016841F0100101600168EB
:104CD00001F010010591016841F0200101600168B7
:104CE00001F020010591016841F080010160016837
:104CF00001F080010591016841F004010160016843
:104D000001F004010591016841F0010101600168B1
:104D100001F001010591016841F0020101600168A3
:104D200001F002010591016841F00801016000688D
:104D3000DFF8189100F008004FF4C06605900122DA
:104D400031464846FDF7F1FEDFF804A100221F219D
:104D50005046FDF7EAFE4FF48058002241463D4898
:104D6000FDF7E3FE00221B213B48FDF7DEFE43F288
:104D700018004FF40417CDE90007DFF8E0B0012474
:104D8000694602945846FDF7D3FDCDE900646946B3
:104D90004846CDE90245FDF7CBFD1F2002260395CD
:104DA0008DE8510069465046FDF7C2FDA003CDE9EC
:104DB0000005694658460295FDF7BAFDE0030090EC
:104DC0004FF48810CDE9010569465846FDF7B0FD5E
:104DD000E002CDE90007694602942148FDF7A8FDED
:104DE000CDF800800395CDE9014669461948FDF7E5
:104DF0009FFD0094CDE90145694617480395FDF7ED
:104E000097FD1A208DE85100694613480396FDF777
:104E10008FFD002211460920FDF7F6FF0920FDF75E
:104E2000E5FF002211460A20FDF7EEFF0A20FDF7FC
:104E3000DDFF002211462820FDF7E6FF2820FDF7C0
:104E4000D5FF07B0BDE8F08F3038024000140240B3
:104E50000008024000000240000C02400010024026
:104E6000000402400D4810B50B4901600C49416037
:104E700000214FF480428160C0E9031241618161E9
:104E8000C1610162FDF75CFE002803D0BDE810405F
:104E9000FDF726BB10BD0000005400408400002038
:104EA000801A060010B58CB0002407940894099469
:104EB0001C2168460A94FBF7BDFC1E481C49016092
:104EC0005321C0E9011444F61F61C0E90314846151
:104ED000FEF70AFB08B1FDF703FB4FF48050079083
:104EE00007A91448FEF7EAFB08B1FDF7F9FA1148E3
:104EF000FFF758F808B1FDF7F3FA6020CDE9000498
:104F00000294002269460B480494FEF7E5FF08B1BD
:104F1000FDF7E6FA042269460648FEF7DDFF08B110
:104F2000FDF7DEFA0348FEF7D7FD0CB010BD000018
:104F3000001800401803002010B596B000240F940C
:104F400010941194129413941C2168461494FBF746
:104F500071FC202107A8FBF76DFC2D482B4901604F
:104F60001421C0E9011440F60F61C0E90314802147
:104F7000C0E90541FEF7B8FA08B1FDF7B1FA4FF400
:104F800080500F900FA92248FEF798FB08B1FDF75B
:104F9000A7FA1F48FFF706F808B1FDF7A1FA139426
:104FA00013A91B481494FEF757FA08B1FDF798FAB5
:104FB0006020CDE9000404200294CDE9034005946B
:104FC0000022694612480694FEF786FF08B1FDF7F5
:104FD00087FA0C2269460E48FEF77EFF08B1FDF7FE
:104FE0007FFA0794089409944FF400500A94CDE98D
:104FF0000B4007A906480E94FEF704FA08B1FDF726
:105000006FFA0348FEF768FD16B010BD00000140BE
:10501000D800002010B58CB024216846FBF70AFCAC
:1050200000241848099416490A94C0E900144FF660
:10503000FF71C0E90241046184610320CDE90004ED
:105040000120CDE9020406210491CDE90540CDE916
:10505000074169460B48FEF79FFB08B1FDF740FA90
:10506000099409A907480A94FEF7F6F908B1FDF773
:1050700037FA3C210348FEF733FC0CB010BD0000AA
:10508000000400402001002010B58CB024216846A7
:10509000FBF7D0FB00241748099415490A94C0E98E
:1050A00000144FF6FF71C0E90241046184610320DE
:1050B000CDE900040120CDE902040494CDE90540C6
:1050C000079469460B480894FEF766FB08B1FDF7A4
:1050D00007FA099409A907480A94FEF7BDF908B12F
:1050E000FDF7FEF93C210348FEF7FAFB0CB010BDBA
:1050F000000800406801002010B58EB0002407941D
:10510000089409940A940B941C2168460C94FBF7AC
:1051100091FB2B48294901605321C0E90114611E0C
:10512000C0E903148461FEF7DFF908B1FDF7D8F98F
:105130004FF48050079007A92148FEF7BFFA08B145
:10514000FDF7CEF91E48FEF7C1FD08B1FDF7C8F91D
:105150000B940BA91A480C94FEF77EF908B1FDF7E1
:10516000BFF93020CDE900040294002269461448BA
:105170000494FEF737FD08B1FDF7B2F90422694641
:105180000F48FEF72FFD08B1FDF7AAF9082269467E
:105190000B48FEF727FD08B1FDF7A2F902200290A7
:1051A0000C2269460648FEF71DFD08B1FDF798F987
:1051B0000348FEF791FC0EB010BD0000000C00404B
:1051C000B00100201CB500240E4800940C49019445
:1051D000016042F2CF01C0E90114C7218461C160BE
:1051E000FEF782F908B1FDF77BF90094694605489E
:1051F0000194FEF731F9002801D0FDF771F91CBDCB
:1052000000100040F80100201CB500240E48009456
:105210000C490194016042F2CF01C0E90114C82198
:105220008461C160FEF760F908B1FDF759F9009497
:10523000694605480194FEF70FF9002801D0FDF7F3
:105240004FF91CBD001400404002002010B596B07C
:1052500000240F9410941194129413941C21684606
:105260001494FBF7E7FA202107A8FBF7E3FA354887
:1052700033490160A721C0E9011444F61F61C0E968
:1052800003148021C0E90541FEF72EF908B1FDF7AE
:1052900027F94FF480500F900FA92A48FEF70EFA15
:1052A00008B1FDF71DF92748FEF77CFE08B1FDF7B0
:1052B00017F9139413A923481494FEF7CDF808B1F5
:1052C000FDF70EF96020CDE90004029403940494E4
:1052D0000594002269461B480694FEF7FDFD08B1BF
:1052E000FDF7FEF8042269461648FEF7F5FD08B101
:1052F000FDF7F6F8082269461248FEF7EDFD08B101
:10530000FDF7EEF80C2269460E48FEF7E5FD08B100
:10531000FDF7E6F80794089409944FF400500A94B6
:10532000CDE90B4007A907480E94FEF76BF808B1CA
:10533000FDF7D6F80348FEF7CFFB16B010BD00000E
:10534000000401408802002010B58CB000240794AE
:10535000089409941C2168460A94FBF76BFA1E48CE
:105360001C490160A721C0E9011444F61F61C0E98E
:10537000031480218161FEF7B7F808B1FDF7B0F89A
:105380004FF48050079007A91348FEF797F908B12A
:10539000FDF7A6F81048FEF705FE08B1FDF7A0F8E6
:1053A0006020CDE900040294002269460A48049472
:1053B000FEF792FD08B1FDF793F80422694606480E
:1053C000FEF78AFD08B1FDF78BF80348FEF784FB72
:1053D0000CB010BD00400140D00200200C4810B5B8
:1053E0000A4901604FF4E1314160002181600C22E3
:1053F000C160C0E904128161C161FEF7A7FF002806
:1054000003D0BDE81040FDF76BB810BD004C004064
:10541000600300200C4810B50A4901604FF4E131E7
:105420004160002181600C22C160C0E904128161E9
:10543000C161FEF78BFF002803D0BDE81040FDF7E7
:105440004FB810BD00500040A40300200C4810B518
:105450000A4901604FF4E1314160002181600C2272
:10546000C160C0E904128161C161FEF76FFF0028CD
:1054700003D0BDE81040FDF733B810BD0010014067
:10548000E80300200C4810B50A4901604FF4E131EF
:105490004160002181600C22C160C0E90412816179
:1054A000C161FEF753FF002803D0BDE81040FDF7AF
:1054B00017B810BD004400402C0400200C4810B563
:1054C0000A4901604FF4E1314160002181600C2202
:1054D000C160C0E904128161C161FEF737FF002895
:1054E00003D0BDE81040FCF7FBBF10BD00480040F2
:1054F00070040020FEE700000D480F490F4A80EDC0
:10550000010A80ED000A0B480D4B80ED011A80ED79
:10551000001AC1ED010AC2ED011A83ED012A012032
:1055200081F82E0082F82E0083F82E0070470000CC
:1055300098090020000A0020CC090020340A00202D
:10554000680A0020FDF784FDFEE7000070B50C46F8
:10555000054601F09FFDD4ED001AD5ED030A95ED47
:10556000070AB2EE001AFFF74BFA174984ED010A59
:1055700091F83000012802D0022818D01BE091EDEC
:10558000020AFCF7B1FD114880ED0C0A94F82C00DA
:10559000022802D0012805D00DE0D4ED010A30EE3A
:1055A000800A06E0D4ED010A30EEC00A01E094ED75
:1055B000000A84ED010A2046FFF794F921462846A7
:1055C000BDE8704000F02AB8680A002034000020CE
:1055D0001148114990F83000D039022818D001F153
:1055E000340090F82E20683090F82E000AB9002878
:1055F0000DD091ED000A08496839D1ED000AB4EEEA
:10560000600AF1EE10FA01D1002800D001207047A5
:1056100091F82E00F8E70000680A002030B52D4B05
:10562000002293F8304024B1012C02D0022C47D143
:1056300031E090ED030AB5EEC00AF1EE10FA02D2A5
:10564000F1EE400A01E0F0EE400A10EE904A224DE1
:10565000AC4235DC90F82F305B1CDBB280F82F3089
:105660000C2B07D980F82F20D0ED010AC0ED000ADD
:1056700080F82E20B5EEC00AF1EE10FA01D2B1EE9C
:10568000400A10EE100A154A904203DA9FED140A00
:1056900081ED070A30BD91ED021AD1ED010A31EE1C
:1056A000600AB5EEC00AF1EE10FA01D230EEC10A7E
:1056B00010EE104AB4F1804F02DA81F82E2030BD8E
:1056C00083F82F20012183F82E1080F82F2080F8F6
:1056D0002E1030BD680A00200378C64107F06C41E7
:1056E00000000000DFED0D1A00F1200CC0ED011AE2
:1056F000C0ED021AC0ED031AC0ED041AC0ED051A80
:10570000C0ED061AC0ED071A8CEC030A80F82C10C5
:1057100080F82D2080F82E30704700000000000037
:1057200010B51C4C002304F1240C01229CEC030A4C
:1057300003211948FFF7D6FF17490020034681F8D7
:1057400030001548022294EC030A11469C38FFF7FA
:10575000C9FF0C341048002394EC030A01220221F3
:10576000D0380C3CFFF7BEFF0B48002394EC030A33
:10577000022201213438FFF7B5FF07480122002338
:1057800068381834114694EC030ABDE81040FFF75E
:10579000A9BF000034000020680A00207047000004
:1057A00010B504461048FCF7F8FE0128FAD1413C38
:1057B000052C17D2DFE804F00906030C0F000222C3
:1057C0000AA10AE002220AA107E0022209A104E0DC
:1057D000022209A101E0022208A1BDE81040084808
:1057E000FFF736B810BD00009406002043430000C8
:1057F0004242000041410000444400004545000091
:105800002C0400209FED171A1749412815D0422873
:10581000DFED160A9FED160A14D0432812D0442853
:105820000FD1012201EB8200521CC0ED1B0A80ED5A
:10583000170A80ED240A042AF4DB81ED041A81EDB5
:10584000051A70475FF0010001EB8002401CC2EDB9
:105850001B0A82ED170AC2ED240A82ED200A0428F1
:10586000F2DB704700000000B40700200000334363
:1058700000C0794470470000092202490248FEF73F
:10588000E7BF000057820008700400200A49012881
:1058900007D0022808D058B1032808D14FF461700E
:1058A00004E04FF4487001E040F28A2048637047FA
:1058B0004FF4DC70FAE700000040014010B50446E8
:1058C0005A30B5281ED202F03AF99FED101B53EC66
:1058D000112B02F087F99FED0F1B53EC112B02F0F7
:1058E000B5FA02F0FFF801460C48816314F15A0F33
:1058F00009D024B15A2C05D14FF4D77101E040F200
:10590000DC51816310BD40F63811FAE78B6CE7FB80
:10591000A9712540000000000070A2400040014035
:1059200010B53C210B48FEF76DFB00210948FEF73E
:1059300069FB04210748FEF765FB3C210648FEF79A
:1059400061FB0320FFF7A2FFBDE810405A20FFF7DC
:10595000B5BF0000D002002088020020044A0128C0
:1059600003D0022800D19163704751637047000053
:105970000040014070B5414D0E1E044607DD012276
:1059800010212846FDF7D1F80022082107E009DAA6
:10599000012208212846FDF7C8F8002210212846D8
:1059A000FDF7C3F8002C09DD4FF001024FF00201B2
:1059B0002846FDF7BAF80022012108E00ADA4FF084
:1059C000010211462846FDF7B0F8002202212846C0
:1059D000FDF7ABF82A4A54EA060031D000EE106A0F
:1059E000DFED281AB8EEC00AF0EE610AFEF7F6FF06
:1059F000BDEEC00AF0EE610A10EE101A00EE104A79
:105A0000B8EEC00AFEF7EAFFBDEEC00A002910EEAC
:105A1000100A02DAC1F1000300E00B46936301DAD9
:105A2000C1F100011164002803DA00BFC0F10001D8
:105A300000E00146516301DAC0F10000D06370BD9F
:105A40004FF000005063D0639063106402464FF043
:105A500002012846FDF769F8002201212846FDF7DA
:105A600064F8002210212846FDF75FF82846BDE8BB
:105A7000704000220821FDF758B80000000C0240D9
:105A80000000014000E05D450349002001228870CC
:105A900011460248FDF749B89C0A00200008024060
:105AA000034901200022887001460248FDF73DB8F5
:105AB0009C0A002000080240074910B501204870E8
:105AC00000210648FEF730F904480068416A01F5F4
:105AD0009661416310BD00009C0A0020B0010020C7
