:020000040800F2
:10000000C01300205D020008BD640008C55500084B
:100010006D640008752B0008B9910008000000000D
:100020000000000000000000000000009D6B0008C0
:100030000D3100080000000001680008A1830008DD
:1000400077020008770200087702000877020008AC
:10005000770200087702000877020008770200089C
:10006000770200082D3100083331000877020008BC
:10007000FD2F000809300008153000082130000865
:100080002D30000839300008770200087702000898
:10009000770200087702000877020008770200085C
:1000A00077020008498400087702000877020008F8
:1000B000770200087702000877020008770200083C
:1000C000770200087702000877020008770200082C
:1000D0007702000895910008A1910008AD910008F1
:1000E0000F31000877020008770200087702000845
:1000F0007702000877020008770200084530000800
:10010000770200087702000865840008770200087B
:10011000F58D0008018E0008718400087D840008B8
:1001200077020008770200085130000877020008C3
:1001300077020008770200087702000877020008BB
:1001400077020008770200087702000877020008AB
:1001500077020008770200085D3000087702000887
:10016000770200087702000877020008770200088B
:1001700077020008770200087702000800000000FC
:10018000770200087702000800F002F800F057F844
:100190000AA090E8000C82448344AAF10107DA45E2
:1001A00001D100F04CF8AFF2090EBAE80F0013F0DD
:1001B000010F18BFFB1A43F001031847B8C1000034
:1001C000D8C10000103A24BF78C878C1FAD85207C5
:1001D00024BF30C830C144BF04680C6070470000C1
:1001E0000023002400250026103A28BF78C1FBD840
:1001F000520728BF30C148BF0B60704766290BF01B
:10020000A586642900F03481732900F02886002037
:1002100070471FB50BF08DFE01F0F8F804000020C8
:1002200000210AF0B7FF401C6060002000210AF0A6
:100230009BFFE06000F05EFB1FBD10B510BD01F03C
:10024000ABFB1146FFF7E5FF0AF01CFD01F0FCFDDA
:1002500003B4FFF7F2FF03BC0AF06AFC09488047C9
:1002600009480047FEE7FEE7FEE7FEE7FEE7FEE798
:10027000FEE7FEE7FEE7FEE704480549054A064BB0
:10028000704700003984000889010008C00D002073
:10029000C0130020C00F0020C00F0020704770471F
:1002A00053EA020C00F069802DE9F04B4FF0000694
:1002B000002B1FBFB3FA83F503FA05F424FA05F601
:1002C0005E4012BF1643B2FA82F502FA05F4C5F198
:1002D00020051EBF22FA05FC44EA0C04203556EA2C
:1002E000044C4FEA144418BF641C4FF000084FF050
:1002F0000009904271EB030C39D3002919BFB1FA00
:1003000081F701FA07F6B0FA80F700FA07F6C7F1AD
:1003100020071EBF20FA07FC46EA0C062037B6FB72
:10032000F4FCA7EB0507103F07F01F0BCBF12006ED
:100330000CFA0BFB2CFA06F644BFB3460026202F1E
:10034000A4BF5E464FF0000B5BEA060C08BF4FF0FF
:10035000010B19EB0B09ABFB027C48EB0608C01B39
:1003600006FB02CC0BFB03CC71EB0C01C1E70B4687
:10037000024641464846BDE8F08B13B54FF00000F9
:100380004FF00001AFF30080BDE81C407047000053
:100390000FB4044910B503AA029800F065FD10BC23
:1003A0005DF814FB700000200FB41CB5074B06AAC3
:1003B0007B4469460090059800F027FD00206946BF
:1003C00000F036FD1CBC5DF814FB00007D0A000047
:1003D00070B5044685690068C10601D5302600E085
:1003E0002026C00707D070BDD4E9012130469047D0
:1003F000206A401C20626D1EF6D570BD70B50446A3
:1004000085690078C00707D170BDD4E9012120209B
:100410009047206A401C20626D1EF6D570BD70B5F5
:100420000C460546012A05D02878800600D5EA69E1
:10043000002302E0012305E05B1C934202D2E05C52
:100440000028F9D1A869E618C01AA861286A1844DA
:1004500028622846FFF7BCFF04E0D5E9012114F823
:10046000010B9047B442F8D32846FFF7C7FF70BD91
:100470002DE9F0410646002410687529314616A57D
:1004800010D0AFF30080002802DA404213A507E045
:1004900031688A0701D512A502E0490704D511A5E4
:1004A000012401E0AFF3008000210A2206F12407B5
:1004B00009E0B0FBF2FCB0FBF2F302FB1C003030B1
:1004C00078541846491C0028F3D123462A46304662
:1004D000BDE8F04100F02BBA000000002D00000044
:1004E0002B000000200000002DE9F0474FF0000A2B
:1004F00089460446C0F820A02046E16888470028C5
:1005000076D0252806D0D4E901219047206A401CE6
:100510002062F1E7E168204600258847C4F81CA066
:1005200006460027C4F818A02A2E09D030460AF043
:1005300076FA38B304EB8708303EC8F8186019E043
:1005400059F8041B204604EB87029161E168884753
:10055000012F064618D1E069002820DA25F0200591
:100560001DE0D8F8180000EB800006EB40003038A2
:10057000C8F818002046E168884706460AF04FFA96
:100580000028EED1012F0AD02E2E08D12046E16896
:1005900088477F1C0646022F45F02005C4DBA06972
:1005A000002803DA404245F00105A061E80701D0C8
:1005B00025F01005B6B1A6F14100192802D8203661
:1005C00045F400654A463146204625604D46FFF712
:1005D00015FE58B1012806D0ED1D25F0070000F1E9
:1005E000080989E704E005F1040985E730468AE750
:1005F000206ABDE8F08700000FB400B58DB010A9E7
:10060000099000910B904FF0FF300A9000200C9061
:10061000064878440690064878446A4607900F9941
:1006200009A800F0C3FE0DB05DF814FBB70D000083
:10063000CF0D00002DE9FF5F1D464FF0FF3B9146B7
:100640004FF000085F46D5E90146A96901987F1C73
:100650008847296A824688470028F6D1BAF1FF3FC9
:100660000CD0002E24F4C06419DD600614D5BAF154
:100670002B0F09D0BAF12D0F0ED103E0584604B06C
:10068000BDE8F09F44F48064A96901987F1C884705
:10069000761E8246002E02DDBAF1300F03D0B9F18A
:1006A000000F26D032E0A969761E01987F1C44F421
:1006B00000748847002E824605DDBAF1780F06D017
:1006C000BAF1580F03D0B9F1000F10D01EE0B9F104
:1006D000000F02D0B9F1100F18D1A969761E019848
:1006E0007F1C24F4007488478246102002E0082012
:1006F00000E00A20814609E0A96908FB0908761E86
:1007000001987F1C44F4007488478246002E05DD62
:100710004946504600F0BAFB0028EDDAE969019835
:100720008847A00502D46FF00100A8E7E00725D1B3
:10073000600613D5600502D5C8F1000000E0404610
:1007400029680A1D2A600968220501D5087015E08C
:10075000220701D5088011E008600FE02868011D1C
:1007600029600068210502D580F8008006E0210795
:1007700002D5A0F8008001E0C0F8008038467EE78E
:100780002DE9FF5F4FF000089946144646469169EF
:10079000D2E901A7DDF838B001988847054659EA43
:1007A0000B0005D009E0A1690198761C8847054631
:1007B000216A284688470028F5D1681C03D05FEAE3
:1007C000CA7005D015E04FF0FF3004B0BDE8F09FCF
:1007D0002068011D2160D0F800800AE05FEACA703D
:1007E00001D108F8015BA169761C01987F1E88473A
:1007F0000546002F1ADD681C18D0B9F1000F0DD086
:10080000E81705EBD060421120F01F0059F82210C4
:100810002A1A012090400142E0D107E0BBF1000F0D
:10082000DCD12846216A88470028D7D0E1690198A1
:100830008847BBF1000F07D1002E05DD5FEACA70C3
:1008400002D1002188F80010A068B84203DDBBF196
:10085000000F03D017B16FF00100B6E73046B4E7E0
:1008600010B5431C02E010F8011B71B18107FAD1E9
:100870004FF0013202C88C1A8C4314EAC211F9D02D
:10088000C01A0A0603D0C01E10BDC01A10BD0A044B
:1008900001D0801E10BD0902FCD0401E10BD4FF0DB
:1008A000000200B5134694469646203922BFA0E8C0
:1008B0000C50A0E80C50B1F12001BFF4F7AF0907CC
:1008C00028BFA0E80C5048BF0CC05DF804EB8900BD
:1008D00028BF40F8042B08BF704748BF20F8022B00
:1008E00011F0804F18BF00F8012B70477047704718
:1008F0007047000070B5064C7C44064D7D4403E013
:10090000206820448047241DAC42F9D170BD00000E
:10091000D4BB0000D4BB000010B500F07BFD006824
:1009200010BD10B5044600F075FD046010BD2DE942
:10093000F0470D4699469246044600F124080168A6
:10094000880604D5E06921F01001216000E0012053
:10095000A84201DD471B00E00027A1697A1902EBDC
:100960000900081AA0612078C00602D42046FFF7CB
:100970002FFD002608E0D4E901211AF8060090476F
:10098000206A401C761C20624E45F4DB2078C006AD
:100990000AD52046FFF71CFD06E0D4E901213020EE
:1009A0009047206A401C2062381EA7F10107F4DC42
:1009B00007E0D4E9012118F805009047206A401C9F
:1009C0002062281EA5F10105F3DC2046FFF716FD85
:1009D0002078000602D50220BDE8F0870120FBE761
:1009E00070472DE9FF4F0C461E464FF0FF378BB086
:1009F000D2E90001DDF860800A908A46C1F30A5509
:100A000005B93D46002108464FF00000BAF1000F3D
:100A100000F4400005DA00EB80004FF4400101EAE9
:100A200050004FEA9059B9F1010F00DDB9460A981C
:100A300050EA4A000ED044F61050A5F2FF35454367
:100A40002F14B8F1000F1ED07542291E1EDDC9F10A
:100A500000021CE0B8F1010F4FF0000001D030217E
:100A600003E0F24305E02154401CB042FBDB30467A
:100A70000022002121540B99C1F80880C1E900200F
:100A80000FB0BDE8F08FBD1B6D1CDEE74A4600DAF3
:100A9000694206A800F00AFF06AB93E8070003AB23
:100AA00083E8070050460A9901F02BFA8DE8070009
:100AB000A0F500501F3800900398002D0ADD42F287
:100AC0001F014A460844002303A90390684601F029
:100AD000D7FC09E0A0F500504A461F38002303A9BF
:100AE0000390684601F0F6FC8DE807000004000C56
:100AF00003D04FF0FF30410800E01046B8F1000F7E
:100B000003D00022009215461EE0751E05D400F0A9
:100B100085FC303262556D1EF9D5B346012208437B
:100B200002D000227F1C04E02078302801D100226E
:100B30007F1E002A099784D01DE0112D07DA00F0EE
:100B40006DFC303262556D1C50EA0102F5D108434C
:100B500002D00098C8B10EE00021681E05E0235CB9
:100B6000625C63542254401E491C8142F7DBAB4651
:100B7000A81B401E0990002004F80B000B98099A4E
:100B8000C0F80880C0E9002B7AE711264FF0000872
:100B900057E72DE9F04F88460446D21D22F00701A1
:100BA00091B0D1E90001CDE90A0108F006FB024647
:100BB0000B98C00F01D02D2007E02068810701D5D8
:100BC0002B2002E0202101EAC000032A099001D075
:100BD000072A05DB03464146204600F06DFC0BE189
:100BE0002078800601D5E06900E00620B8F1650FA5
:100BF000814606D0B8F1660F18D0B8F1670F70D1F2
:100C000031E00020B9F1110F009001DB112301E068
:100C100009F101030AAA01A90CA8FFF7E2FEDDE928
:100C20000C70002609F10105834647E001204B4680
:100C300000904FF000470AAA01A90CA8FFF7D1FEC7
:100C4000DDE90DB00C995D46002610B909F10100EF
:100C50000D18B9EB050003D4C0F1FF3609F1010509
:100C6000A5EB09002BE0B9F1010F01DA4FF0010902
:100C70000020B9F1110F0090484601DD112300E07A
:100C800003460AAA01A90CA8FFF7ABFEDDE90C7028
:100C90004D4600268346207800070AD4AB4500DA8B
:100CA0005D4601A8012D04DD411911F8011C302910
:100CB00007D04F4502DA17F1040F04DA012082460B
:100CC0000FE06D1EEEE7002F02DCED1B3E4403E05B
:100CD000781CA84200DD7D1CB81B00F1010A4FF012
:100CE00000472078000703D4AA4501DB4FF0FF3A04
:100CF0000021B7F1004F0DF143088DF8431024D0C7
:100D000002202B23002F01DA7F422D230A21021E0D
:100D1000A0F1010000DC5FB197FBF1FC97FBF1F261
:100D200001FB1C7C17460CF1300C08F801CDEEE7F6
:100D3000A8F1010003702188090501D5452100E0D3
:100D40006521A0F1010800F8011C09980FA9A1EB89
:100D50000807FF1D00B10120411901EBEA70A169EC
:100D60003844081A401EA0612078C00602D42046EC
:100D7000FFF72EFB099828B1D4E901219047206A9A
:100D8000401C20622078C00622D52046FFF720FBB9
:100D90001EE0002E04DBB34502DD01A8805D00E00B
:100DA0003020D4E901219047206A401C2062761C43
:100DB000AAF101005FEA000A0AD100F027FBC0682F
:100DC0000168405CD4E901219047206A401C206200
:100DD000281EA5F10105DCDC07E0D4E9012118F8A3
:100DE000010B9047206A401C2062381EA7F10107C2
:100DF000F3DC2046FFF702FB032011B041E60000C0
:100E000001694A1C02610878704700B58FB0CDE9CE
:100E100001310021059105497944CDE903101146BE
:100E20006846FFF761FB0FB000BD0000E5FFFFFF64
:100E30000A6802F8010B0A60704710B5436913B1E4
:100E4000AFF3008001E0FFF7EAFA012010BD12784D
:100E500000F124010A7000224A700122EDE71168B6
:100E60004FF0FF32E9E70000074B70B50D467B44B9
:100E7000FFF7CBFF0446284609F06FFE10B14FF094
:100E8000FF3070BD204670BDEF9C00003A2800D2B4
:100E9000303820F02002412A01D3A2F137008842E5
:100EA00001D34FF0FF3070472DE9FF4F06468BB05E
:100EB0000878FF2806D0491C2D2805D000244FF0C3
:100EC000000908E000200CE00124F8E709EB8903A1
:100ED000491C00EB43090878FF28F7D114B1C9F188
:100EE00000008146107800252C46AA4629462D2868
:100EF00001D02B2804D1521C2D2813D0002082466B
:100F00008B461078FF280FD04FF0000C0A21521C9E
:100F1000A5FB017804FB018105FB0C11C5194BEB06
:100F20000104EEE70120EAE7002108464FF0000047
:100F3000BAF1000F02D000EB80004008C0F38157E7
:100F4000012F01DD4FF0FF370E9955EA040009EB40
:100F500001080BD04FF0020918F5FA7F16DA4FEAB4
:100F6000CA70002F706008DD012007E04FEACA70E8
:100F7000C6E900B00FB0BDE8F08F0020306000F08F
:100F800049FAC0F800901821084616E0B8F5FA7F33
:100F900018DD002F02DAF748784401E0F64878447B
:100FA000D0E90010C6E9001040EACA70706000F095
:100FB00031FAC0F80090142108460FB0BDE8F04F98
:100FC0000AF0C1BF002108464FF00000B8F100014F
:100FD000099002DAC7F1000200E03A4601DAC8F1EE
:100FE000000106A800F062FC06AB93E8070003AB23
:100FF00083E8070044F23E005BEA04010090584693
:1010000004D144F21E012C465D460091210C0904D6
:10101000014306D10099240444EA15442D041039F3
:10102000009104F07F41014306D10099240244EA73
:1010300015642D020839009104F07041014306D176
:101040000099240144EA15742D01091F009104F050
:101050004041014306D10099A40044EA9574AD00D3
:10106000891E009104F00041084304D100986D19D5
:101070006441401E00904FF001033A466846B8F1C3
:10108000000FCDE9014503A902DD01F038FA01E0C6
:1010900001F00BFABAF1000F04460D4601D084F0BE
:1010A0000044002108464FF00000099940F2FF7704
:1010B000484010F00C0F07D124F00040284303D023
:1010C000C4F30A50B84212D100F0A4F9C0F800905D
:1010D000C4F30A50B8420AD1A8487844D0E90010B5
:1010E000C6E9001004F000410843706042E7C6E919
:1010F00000543FE72DE9FF4F1F464FF0000A4FF025
:10110000FF38454691B0D7E90146CDF83CA000F044
:101110007DF9C0680168405C1090B96912986D1C37
:101120008847396A814688470028F6D1B9F1FF3FE0
:101130000AD0002E24F4D06411DDB9F12B0F08D0B1
:10114000B9F12D0F0BD102E0404615B013E744F47E
:101150008064B96912986D1C8847761E81466005C7
:1011600004A901D52D2000E02B20002E01F1010B58
:101170000DF130088DF810003FDDB9F1690F08D08E
:10118000B9F1490F05D0B9F16E0F02D0B9F14E0F88
:101190001CD13B4601A8009580E85002DDE91212FF
:1011A0006FF002000AF038FFC11CCED10EE0B96921
:1011B00012986D1C884781461398761E44F400747B
:1011C00005600F98401C002E0F9016DDB9F1300F0E
:1011D000EDD0B9F1780F02D0B9F1580F0DD10F98B9
:1011E00001280AD13B46CDE90054DDE91212001F67
:1011F00002960AF00FFFC11CA7D1109989453ED174
:1012000044F0800406E01399681CAAF1010A44F432
:1012100000740860B9696D1C1298761E88473028E2
:101220008146F0D02BE01099894505D1200603D4E2
:10123000761E44F0800418E0484609F0F0FB08B33D
:10124000761E0DF123018B4544F4007408D2A9F1F8
:1012500030000BF8010B200607D5AAF1010003E0CE
:10126000200602D40AF101008246A00502D5139996
:10127000681C0860B96912986D1C88478146002E69
:10128000D1DC53E0002E51DDB9F1650F02D0B9F188
:10129000450F4BD1A00549D5B9696D1C1298761E32
:1012A00024F440748847002E81460CDD2B2804D09E
:1012B000B9F12D0F07D144F48074B96912986D1CEF
:1012C0008847761E8146E00501D52D2100E02B21BF
:1012D00008F8011BCDF8008021E0761E0DF13901E0
:1012E000884544F400740CD2A9F1300010F0FF00DE
:1012F00088F8000002D10099884509D908F1010851
:1013000006E0E00501D51E4801E042F20F7082467A
:10131000B96912986D1C8847814613980560002EA4
:1013200004DD484609F07BFB0028D6D1F969129804
:101330008847FF2053468BF8000088F80000002003
:101340000A900B9004AA0CA90AA8FFF7ADFDA0050E
:1013500002D46FF00100F8E614F0240F12D0E00779
:101360001CD13868DDE90A12031D3B600068C0E942
:10137000001213E000B40000F2B30000B6B20000A7
:10138000F1D8FFFF0AA9684609F036FBE00705D14E
:101390003868009A011D3960006802602846D4E66A
:1013A000026811441378016018467047D1600549FE
:1013B0007944516104497944116200211161114657
:1013C00000F0BAB8EDFFFFFFED000000426842B147
:1013D000016811F8013B23B1521EC0E90012184602
:1013E00070470121C160881E704742685AB1C368C6
:1013F000016843B983688B4205D0491E521CC0E97D
:101400000012002070474FF0FF30704700487047CF
:10141000800D002000487047600D002030B5B0F10D
:101420000A024FEA900E71F100034EEA817EB0EBA2
:101430000E0061EB91014FEA101E4EEA017E10EBA7
:101440000E0041EB11114FEA102E4EEA016E10EB27
:101450000E0041EB11214FEA104E4EEA014E10EB07
:101460000E0041EB1141401841F100014FEAD0005C
:1014700040EA41704FEAD10110EB80054FEA810448
:1014800044EA907444EB01046D1944EB0404521BCC
:10149000A3414FF0000348BF0A3200D530BD401CC5
:1014A00041F1000130BD10B5044600F09BFA006820
:1014B000005D00F0010010BD2DE9F0411F4604461B
:1014C00003260168072A01F4006004DB08B116A5B1
:1014D00005E016A503E008B115A500E015A521F06B
:1014E00010002060A069C01EA0610FB1401EA06165
:1014F0002046FEF76DFF4FB1D4E9012138469047F1
:10150000206A401C2062C01C206206E0206AFAE7C4
:10151000D4E9012115F8010B9047761EF8D2204638
:10152000FEF76CFFBDE8F0814E414E006E616E002B
:10153000494E4600696E66002DE9F34F4FF0000AF0
:101540000C4656468DB001200C9001F10C000B901A
:1015500062690B9801219047051E2DD0252D2CD0B6
:10156000216A8847C0B162690B9801219047216ABE
:1015700088470028F7D16269411E0B98904700E028
:10158000761CA1690D988847216A88470028F7D101
:10159000E1690D988847DBE7A1690D988847A84263
:1015A000074601D1761CD3E7E1690D9888477F1C77
:1015B00002D1BAF1000F6FD06CE162690B9800277D
:1015C0003D46394690472A2804D162690B9801218B
:1015D00090470125DFF8D08262690B98012190477E
:1015E000A0F130010A290AD24745E5DC07EB870163
:1015F00000EB4107303FDFD445F01005ECE7E9068A
:1016000001D46FF000476C280AD04C2814D0682809
:1016100015D06A280DD074281CD07A281AD01DE065
:1016200062690B98012190476C2802D045F00405AF
:1016300014E045F002050DE045F020050AE062697E
:101640000B9801219047682802D045F0080505E075
:1016500045F4006562690B9801219047C4E9015780
:1016600065283DD019DC58287AD00CDC452837D0C5
:1016700004DC252826D041289ED131E046282FD0F1
:10168000472899D12CE05B2877D0612828D063289F
:101690007CD0642823D15AE0F7E06F2848D008DCDA
:1016A00066281DD067281BD0692821D06E2816D146
:1016B00027E0702845D0732868D0752847D078284F
:1016C0000DD14DE0A1690D988847252805463FF4C6
:1016D00069AFE1690D9888476D1C3FF46AAFD9E0A6
:1016E0000D9923466A466FF001000AF091FCC6E0AE
:1016F00045F0400023464FF000026060A80736D452
:101700003EE0E8077FF447AF2068011D21600068D4
:10171000290501D506701BE7290701D5068017E7C3
:10172000A90703D5F117C0E9006111E706600FE7CB
:1017300045F0400023464FF008026060A80716D429
:101740001EE040F60E0125EA0100606016E045F05B
:10175000400023464FF00A026060A80707D40FE05C
:1017600045F040006060A80708D5234610220D9977
:101770006FF00100AFF3008081E007E01022234604
:101780000D996FF00100FEF755FF78E04FF000096A
:1017900063284F46C8464B46CB4602D05B2807D04D
:1017A00039E02079C00601D40120A060012732E091
:1017B0006269D4F80CB00B98012190475E2807D1DC
:1017C0004FF0010949466269D4F80CB00B98904774
:1017D000216939B900210A4603AB43F82120491C8D
:1017E0000829FADBD8B3216949B308F10108626915
:1017F0000B98012190475D28F4D1B9F1000F09D071
:10180000002003A951F82020D24341F82020401C99
:101810000828F7DB03AB2069002820794FEA4070E5
:101820001ED05B462246CDF80080CDE901970D9988
:1018300000286FF0010020DAAFF300801FE0C1172D
:1018400003AA00EBD1614B1121F01F0102EB8302CF
:10185000411A13680120884003431360C7E719E069
:101860000D99224600286FF00100009702DAAFF3CD
:10187000008004E0FEF784FF01E0AFF30080002861
:101880000ADA401C06D10C9820B14FF0FF300FB09F
:10189000BDE8F08F5046FAE7E90701D10AF1010AE5
:1018A000064400200C9053E6CCCCCC0C2DE9F0473C
:1018B000814616468AB0354878440DC88DE80D003B
:1018C00032487844801C03AC0DC884E80D0041F612
:1018D0009B300844372190FBF1F290FBF1F5A5F124
:1018E000800501FB12041B3C02D56442012000E08C
:1018F0000020DFF898A080460027FA44AAF1BE0A2B
:101900000EE0E0070AD03246684607EB47010123A4
:101910000AEB810100F0DEFD8DE8070064107F1CFA
:10192000002CEED1194F7F44AE3F19E0E80715D0E7
:1019300007EB04100DF1180A90E80E008AE80E007B
:10194000C068F04201D1981908903246012306A9D7
:1019500003A800F0BFFD03AB83E807006D10641C13
:10196000002DE3D14FF0010332466946B8F1000F74
:1019700003A802D000F084FD01E000F0ABFDC9E94E
:101980000001C9F808200AB0BDE8F087A0AA00004D
:1019900000487047600D00207546FFF7F9FFAE461E
:1019A00005006946534620F00700854618B020B56B
:1019B000FEF762FCBDE820404FF000064FF0000744
:1019C0004FF000084FF0000B21F00701AC46ACE8E7
:1019D000C009ACE8C009ACE8C009ACE8C0098D4654
:1019E0007047000010B5FFF711FD001D10BD00BFCE
:1019F000A59700002DE9FF4F1F464FF03C0987B027
:101A00004FF00042DDE9141001F10108DDF858A0A3
:101A100002EA4050039000200590834605460446A4
:101A20000490B969461E08988847AAF1010A0290F5
:101A3000BAF1000F3BDD02982E2815D01021FFF7D8
:101A400025FA00282EDB4FF0010B0599014317D032
:101A5000B9F1000F0BDB4A46C11700F03FFA05430E
:101A60000C43A9F1040905E0012004900BE008B142
:101A700045F0010501200590049820B9361D02E0CB
:101A8000049800B1361FB969089808F10108884721
:101A9000BBF1000FAAF1010A0290C9D00999C1F85F
:101AA0000080C5E70298702808D0502806D0F96950
:101AB00008988847BBF1000F14D04FE00020029037
:101AC0000120BBF1000F049009D0B969089808F112
:101AD00001088847AAF10109B9F1000F07DCF9698B
:101AE000089888476FF001000BB0BDE8F08F2B28F5
:101AF00004D02D280CD14FF0FF300490B96908981C
:101B000008F101088847A9F10109B9F1000FE6DDE4
:101B1000411CE4D00A21FFF7B9F90028DFDB029964
:101B200008F1010801EB810100EB41000290B96965
:101B3000089888470A21FFF7A9F9099AA9F101092C
:101B4000B9F1000FC2F8008001DD0028E7DAF96979
:101B5000089888470499029800FB016655EA04003A
:101B600004D004F04041090002D006E0039898E058
:101B7000A40044EA9574AD00B61E04F000410800CC
:101B800002D16D196441761E159810F0240F03D010
:101B90004FF00B095C4803E04FF028096FF07D001F
:101BA0008246564507DAAAEB06018944B9F1410F8E
:101BB00001DD4FF0410901200021A9F1010200F0EF
:101BC0008DF9024628400B462140084301D00121EF
:101BD00000E00021501E029143F1FF3128402140D6
:101BE000084301D0012000E000200299834651EA19
:101BF0000B014FD0002108464FF00000039900F47C
:101C0000400039B100EB80004FF4400100EBD07090
:101C100001EA60008015012802DD4FF0FF3000E08E
:101C200013D0401C36D0029860B3BBF1000F0CD12A
:101C30004A460120002100F051F928402140084384
:101C400001D0012000E00020E0B101204A4600213F
:101C500000F044F9034640190A4661412D1A8C41AF
:101C600011D3B9F1400F09DD159810F0240F02D0FF
:101C7000AAF1340603E0AAF1170600E0761C00255D
:101C80004FF0004406E05B1E42F1FF3220EA0305FC
:101C900021EA0204CAF10100B04206DA1B490398A6
:101CA00008430190002000900EE0039AC4F3D32172
:101CB000E80A0A43164940EA44500A433146CDE94E
:101CC0000002684608F0A1FE159810F0240F0BD012
:101CD0001598C00715D13868DDE90012031D3B6077
:101CE0000068C0E900120CE002A8694608F084FE12
:101CF0001598C00705D13868029A011D396000683F
:101D000002604046F0E6000002FCFFFF0000F07FAA
:101D10000000F03F2DE9FF4F92461D4685B04FF081
:101D20000041DDE9124BDDE914727F1E01EA4B50E0
:101D3000414940F0FF4940EA0108002122F020001B
:101D40004928049102D04E2828D04CE03BA001261F
:101D500007C88DE80700A9690698641C88477F1E9C
:101D6000014606D41DF8060018B121F02001814279
:101D70000BD0E96906988847032E34D0082E32D05C
:101D80006FF0010009B0BDE8F08F761C032E01D082
:101D9000082EE0D1601CCAF80000DCE7A9690698AB
:101DA000641C88477F1E2AD420F02000412826D1B9
:101DB000A9690698641C88477F1E20D420F0200063
:101DC0004E281CD1A9690698641C88477F1E48F4D8
:101DD000002849F48009CAF8004001D4282806D018
:101DE000E969069888475FEACB7012D022E0A969BA
:101DF0000698641C88477F1E01D4002803DAE9692D
:101E000006988847BCE72928F1D1641CCAF800402D
:101E1000E9E71BF0240F07D028680499031D2B6005
:101E20000068C0E9001805E02868021D2A60006803
:101E3000C0F800902046A5E70000F07F494E4649D3
:101E40004E4954590000000010B50446AFF300801D
:101E50002046BDE81040FEF7FBB900004FF0013C02
:101E600050F8042B51F8043B9A4221D1A2EB0C0309
:101E7000934313EACC1317D150F8042B51F8043BC9
:101E80009A4215D1A2EB0C03934313EACC130BD166
:101E900050F8042B51F8043B9A4209D1A2EB0C03F1
:101EA000934313EACC13DBD04FF00000704700BF20
:101EB000D01A01BAB1FA81F101F0180122FA01F049
:101EC000CB40C1F12001DBB2C0B2C01A2CFA01F341
:101ED000D11A914311EAC311E6D17047B2F1200340
:101EE0000AD5C2F1200301FA02F120FA03F300FA45
:101EF00002F041EA0301704700FA03F14FF00000DD
:101F000070475FEA400C08BF91F0000F4FEA8C2346
:101F10004FEAC12243EA51514FEA1C5018BF00F565
:101F2000F0404FEA300018BF41F000415FEA6C5CBE
:101F300000F02980BCF1FF3F08BF40F080407047AF
:101F4000130C06BF12044FF0100C4FF0000C130ED0
:101F500004BF12020CF1080C130F04BF12010CF1A4
:101F6000040C930F04BF92000CF1020CD30F04BFBA
:101F700052000CF1010C11464FF00002A0F11F00BD
:101F8000A0EB0C00704711F0004F08BF704731F014
:101F900000413FF4D5AF0B0C06BF09044FF0100C05
:101FA0004FF0000C0B0E04BF09020CF1080C0B0FD4
:101FB00004BF09010CF1040C8B0F04BF89000CF164
:101FC000020CCB0F04BF49000CF1010CCCF1200333
:101FD000A0EB0C0022FA03F302FA0CF241EA03012F
:101FE00000F10100704720F07F4C80EA030023F0ED
:101FF0007F47ACEB070303F57C5300F0004003F18F
:10200000FF032DE980494FEA154B09B44FEA144309
:1020100025EA0B4E24EA03480FF2042606EB1327A9
:1020200049083E785FEA320203FB0667C7F50007FE
:1020300007FB06F64FEA54374FEAD64606F102068A
:1020400007FB066CCCF1005C4FEA1C472CEA074CFE
:1020500007FB06F40CFB06F504EB15464FEA961653
:1020600034BF00204FF000404FEAD13706FB07FC99
:102070004FEA1C4C0CFB0BF7D21B03FB0CF761EB7C
:1020800007010CFB0EF7B0EB074072EB17420CFB9D
:1020900008F734BFA2EB0742B2EB074261EB1741EE
:1020A0004FEA0C444FEA910706FB07FC4FEA1C4C31
:1020B0000CFB0BF7B0EBC74072EB573203FB0CF78E
:1020C00034BFA2EBC742B2EBC74261EB57310CFB06
:1020D0000EF7B0EBC70072EB57720CFB08F734BF7A
:1020E000A2EBC702B2EBC70261EB5771039F4FEA45
:1020F000816141EA921104EBCC044FEAD1374FEAF7
:10210000826206FB07FC42EA90124FEA80604FEAC7
:102110001C4C0CFB0BF7D21B03FB0CF761EB07010C
:102120000CFB0EF7B0EB074072EB17420CFB08F705
:1021300034BFA2EB0742B2EB074261EB17414FEA13
:102140008C554FEA910704EB9C2406FB07FC4FEAF1
:102150001C4C0CFB0BF7B0EBC74072EB573203FB88
:102160000CF734BFA2EBC742B2EBC74261EB573169
:102170000CFB0EF7B0EBC70072EB57720CFB08F7C5
:1021800034BFA2EBC702B2EBC70261EB577115EB8C
:102190004C254FEA816141EA92114FEA82624FEA8F
:1021A000D13742EA901206FB07FC44F100044FEAE3
:1021B00080604FEA1C4C0CFB0BF7D21B03FB0CF7A7
:1021C00061EB07010CFB0EF7B0EB074072EB174217
:1021D0000CFB08F734BFA2EB0742B2EB074261EBFE
:1021E000174115EB1C154FEA813141EA92414FEA44
:1021F000823242EA90424FEA80304FEA0C7644F154
:10220000000448EA03434EEA0B484FF0000EB2EBDD
:10221000080C71EB030724BF624639464EEB0E0EE5
:102220004FF0000B0018524149414BEB0B0BB2EB46
:10223000080C71EB03077BF1000B24BF62463946A3
:102240004EEB0E0E4FF0000B0018524149414BEB84
:102250000B0BB2EB080C71EB03077BF1000B24BFF7
:10226000624639464EEB0E0E51EA020718BF46F0A1
:10227000010616EB0E7655F1000254F1000103D56C
:10228000BDE88901BDE80088BDE88901BDE80048D6
:10229000B619524141EB0101A3F10103704780805F
:1022A0007F7E7D7C7B7A79787776767574737271B0
:1022B00071706F6E6E6D6C6C6B6A6A696868676668
:1022C00066656464636362616160605F5F5E5E5DFA
:1022D0005D5C5C5B5B5A5A5959585857575656556E
:1022E00055555454535352525251515050504F4FD0
:1022F0004F4E4E4D4D4D4C4C4C4B4B4B4A4A4A4920
:102300004949484848474747474646464545454462
:10231000444444434343434242424241414100001A
:1023200046EA0646A3F570534FEA164646EA425679
:102330004FEAD22242EA415210B54FEAD121A3F12D
:10234000010300F02FF820F0004000F1020C00F033
:10235000004701EB00501146BCF5006F40EA070052
:1023600000D210BDBAF1000F0AD01CB503B44FF073
:1023700004004FF004014FF000000FBCBDE8104016
:102380004FF00001BBF1010FB9BF04484FF0FF311E
:102390000348002140EA070010BD00BFFFFFEF7FA8
:1023A0000000F07F002B9C4630D477002BD01CB56A
:1023B0004FEA370703B44FF010004FF01001BAF1A5
:1023C000000F06D0BCF1000FDCBF40F0080040F069
:1023D00008014FF000000FBCBDE810400BF1010BED
:1023E000BBF1010F08BF5FEA170722BF12F101021C
:1023F00011F101014FF0004143F1000300F00040F2
:1024000043EA00007047F9D35708D0E746EA06468A
:1024100013F1400F4FEA16461FDD13F1200FDFBF07
:1024200016430A46002120335B42BED0C3F1200789
:1024300046EA064602FA07F74FEA164646EA070654
:10244000C3F1200722FA03F201FA07F721FA03F198
:102450004FF0000342EA0702A7E746EA020646EA0F
:1024600006464FEA164646EA0106BCBF46EA06465D
:10247000360C4FF000034FF000024FF0000194E7DC
:102480002DE9804C9A46934670B491E8380007C80D
:1024900031EA400C48BF34EA430C03D5FFF7A3FDF3
:1024A000FFF780FFF0BCBDE8008C2DE9804C9A4618
:1024B000934670B491E8380007C831EA400C48BF31
:1024C00034EA430C03D5FFF78EFDFFF729FFF0BC7C
:1024D000BDE8008C2DE9804C9A46934670B491E893
:1024E000380007C810F0804F08BF13F0804F03D1A9
:1024F00000F01AF8FFF756FFF0BCBDE8008C2DE99C
:10250000804C9A46934670B491E8380007C810F0A2
:10251000804F08BF13F0804F03D100F005F8FFF79C
:10252000FFFEF0BCBDE8008C20F07F4780EA03008E
:1025300023F07F4C07EB0C03A3F57C5300F0004025
:10254000A3F1FE0392F0000F00F0B38095F0000FAE
:1025500000F077802DE901494FEA11404FEA144617
:1025600021EA004800FB06FC24EA064708FB06F6C1
:1025700007FB08F800FB07F718EB06484CEB164C76
:102580004FEA124B18EB07484FEA15464CEB174041
:1025900022EA0B4E0BFB06FC25EA06470EFB06F66D
:1025A00007FB0EFE0BFB07F71EEB064E4CEB164C23
:1025B0004FF000061EEB074E4CEB174B18EB0B08C9
:1025C00040F1000018EB0E0B58EB000840F1000042
:1025D0008F1A4FF000013CBFC943661B14BFB5EB17
:1025E000040C00213CBFC943F61B4FEA17444EEAD6
:1025F0008E0E27EA04454FEA1C4704FB07622CEACB
:10260000074C05FB07F70CFB05F604FB0CFC16EB6F
:10261000074642EB174216EB0C4642EB1C421BEB03
:10262000060658EB0202414146EA9E0601D5BDE886
:102630000189B619524141EB0101A3F10103BDE843
:1026400001894FEA14454FEA114724EA054621EA79
:10265000074C05FB07F406FB07F70CFB06F105FB2F
:102660000CFC11EB074144EB17444FEA124711EB06
:102670000C4144EB1C4422EA074C05FB07F206FB25
:1026800007F70CFB06F605FB0CFC16EB074642EBC6
:10269000174216EB0C4642EB1C456A1854F1000138
:1026A00048BF7047B619524141EB0101A3F1010344
:1026B000704795F0000F37D04FEA11424FEA1447A8
:1026C00021EA024624EA074C02FB07F106FB07F762
:1026D0000CFB06F402FB0CFC14EB074441EB174126
:1026E0004FEA154714EB0C4441EB1C4125EA074C1B
:1026F00002FB07F506FB07F70CFB06F602FB0CFCDA
:1027000016EB074645EB174516EB0C4645EB1C420E
:10271000121951F1000148BF7047B619524141EBFF
:102720000101A3F1010370474FEA14454FEA114735
:1027300024EA054621EA074C05FB07F106FB07F7EB
:102740000CFB06F24FF0000605FB0CFC12EB0742F7
:1027500041EB174112EB0C4251EB1C4148BF704753
:10276000921841EB0101A3F101037047B5EEC00AD5
:10277000F1EE10FA02D2F1EE400A01E0F0EE400A6A
:102780009FED1F1A1F4960EE810A30EE001A10EE0D
:10279000900A71EE001A08441B4931EE800A884203
:1027A00002D2F0EE0C0A26E010EE900A1749084417
:1027B0001749884202D2DFED170A1CE010EE900A9A
:1027C000154908441549884202D2F1EE0A0A12E07E
:1027D00010EE900A124908441249884202D2DFEDF5
:1027E000120A08E010EE900A1049884205DBB0EEAC
:1027F000410ADFED0F0A02F063BF9FED0E0A70473A
:102800000000C842FFFFF3BDFFFF9300FFFF5FBD65
:10281000FFFF4F009A999940FFFF0FBDFFFF430054
:10282000FFFFCBBCFFFF3B006666F640000096430F
:10283000CDCC0C410000000070B52DED0A8BF0EE00
:1028400040AAB0EE60AA2AEEAA0A0AEE0A0A10EE20
:10285000100A09F0FDFA41EC100B07F061FC51EC95
:10286000100B08F0B9FC08EE100ADFEDA70A48EEDD
:10287000480A9FEDA61A80EE810A10EE100A09F0B0
:10288000E7FA41EC100B06F053FD9FEDA19B51ECD4
:10289000100B53EC192B08F08DFD08F09DFC08EE91
:1028A000900A9FED9D0ADFED9D0A9FED9DCAF5EE12
:1028B000C0AA9C4CF1EE10FA28D808EE080A68EE7F
:1028C000200A30EE4C1A81EE200A10EE100A09F0B0
:1028D000BFFA41EC100B06F02BFD53EC192B51EC19
:1028E000100B08F067FD8AEE080A41EC1B0B10EE96
:1028F000100A09F0ADFA41EC100B06F0C5FE53ECDE
:10290000192B51EC100B08F055FD32E0F5EEC0AA82
:10291000F1EE10FA3EDD08EE080A68EE200A30EE0D
:102920004C1A81EE200A10EE100A09F091FA41ECDF
:10293000100B06F0FDFC53EC192B51EC100B08F0BA
:1029400039FD8AEE080A41EC1B0B10EE100A09F063
:102950007FFA41EC100B06F097FE53EC192B51EC6B
:10296000100B08F027FD9FED701B53EC112B09F0A5
:10297000ADF853EC1B2B09F081F941EC1A0B18EE62
:10298000900A09F065FA53EC1A2B09F077F908F070
:1029900023FC20609FED660A30EE680A10EE100AF4
:1029A00009F056FA53EC192B08F05CFF41EC100BC0
:1029B00007F086FA9FED5F1B51EC100B53EC112BC7
:1029C00008F050FF9FED5D1B53EC112B08F04AFF00
:1029D0009FED5C1B53EC112B08F044FF9FED5B1B3C
:1029E00053EC112B09F072F841EC100B07F098FB37
:1029F00051EC100B08F0F0FB08EE100AB0EE4C0A98
:102A000008EE080ADFED530A70EE600A9FED520AE5
:102A100028EE001A80EE810A10EE100A09F018FA6A
:102A200041EC100B06F084FC53EC192B51EC100B0D
:102A300008F0C0FC08F0D0FB08EE900A9FED470AB2
:102A400008EE080A70EE4C0A9FED450A28EE001ABF
:102A500080EE810A10EE100A09F0FAF941EC100B31
:102A600006F066FC53EC192B51EC100B08F0A2FC9D
:102A700008F0B2FB94ED008ADFED3A0A00EE100A8E
:102A800078EE200A70EEE80A70EEC08AC4ED018A82
:102A9000354C606808F07FFE9FED343B53EC132B00
:102AA00008F0E0FE08F098FB00EE100AB0EE681A9D
:102AB000F0EE480A05F0A4FB04F1800504F14001A2
:102AC000A868896890FBF1F140F6C410414300D535
:102AD00049424FF4C8763246002005F079FA0CE0FE
:102AE000607850B9687840B900223146104605F048
:102AF0006FFA05F075FB0128FBD005F071FB01288A
:102B0000EED0BDEC0A8B70BD00743D4700F0394734
:102B10005F40D42247DF913F00C8E1460000AA434E
:102B200000209946B40000200000000000806640AC
:102B300000003443000000000000004000000000DE
:102B400000003440000000000080614000000000F0
:102B50000088D3400000C84300008C43000061445B
:102B6000000070420000B442600C00200AD7A3703D
:102B70003D0A873FFEE7000030B49FED202A204940
:102B80000124204A204B60EE820A61EE821A81F80D
:102B90003040002582F830409FED1C2A83F83050E9
:102BA00003280AD006280DD0042823D0022810D0EC
:102BB000052813D00C281AD01CE081ED022A82EDE2
:102BC000022A17E081ED022A82ED022A83F83040C2
:102BD00010E0D1ED020AD2ED021A0BE0D1ED012A8C
:102BE00072EEA00AD2ED012A72EEA11A02E00220D2
:102BF00083F8300030BC03F03BBC000007F06C41B0
:102C0000900B0020F80B00202C0C0020000000008E
:102C100010B500EB81042DED028B94ED470A60EEB8
:102C2000000A94ED430A40EE000A10EE900A09F003
:102C30000FF941EC100B07F073FA51EC100B08F090
:102C4000CBFA1849C4F8EC00884206DA9FED160A60
:102C500084ED3F0ABDEC028B10BDD4F81C01FC349E
:102C600009F0F6F841EC180B206909F0F1F841EC95
:102C7000100BB0EE481AF0EE681A07F021F89FED3D
:102C80000B1B51EC100B53EC112B08F0EBFD9FEDDF
:102C9000091B53EC112B08F08DFB08F09DFA206006
:102CA000D8E700000000F0410000B442000000003E
:102CB00000806640A7E8482EFF21094010B5734CFC
:102CC0002DED0A8B606808F066FD9FED71AB53EC4B
:102CD0001A2B08F0C7FD41EC180B04F140004068C6
:102CE00008F059FD53EC1A2B08F0BCFD9FED6A1B50
:102CF00053EC112B08F0A2FA9FED691B53EC112B3A
:102D000008F0E4FE53EC182B08F098FA08F064FA87
:102D100009F09EF89FED649B53EC192B08F0A2FD7F
:102D200041EC100B07F0CCF89FED611B51EC100B40
:102D300053EC112B08F096FD9FED5FBB53EC1B2B62
:102D400008F090FD9FED5E1B53EC112B08F08AFDFF
:102D50009FED5D1B53EC112B08F0B8FE41EC100BFE
:102D600007F0DEF951EC100B08F036FA08EE100A05
:102D7000DFED578AB0EE680A08EE080ADFED550A63
:102D800070EE600A9FED540A28EE001A80EE810A68
:102D900010EE100A09F05CF841EC100B06F0C8FACE
:102DA00053EC192B51EC100B08F004FB08F014FA4B
:102DB0000CEE100A9FED490A08EE080A70EE680A48
:102DC0009FED470A28EE001A80EE810A10EE100AE5
:102DD00009F03EF841EC100B06F0AAFA53EC192B5F
:102DE00051EC100B08F0E6FA08F0F6F90CEE900A38
:102DF000606808F0D0FC53EC1A2B08F033FD9FED0F
:102E0000390A41EC180B30EE4C0A30EE6C0A10EE29
:102E1000100A09F01DF853EC182B08F02FFF08F0EA
:102E2000DBF909F015F853EC192B08F01BFD41EC08
:102E3000100B07F011F99FED2C1B51EC100B53EC0C
:102E4000112B08F00FFD41EC180B606808F0A3FC93
:102E500053EC1A2B08F006FD53EC192B08F002FD79
:102E600041EC100B07F0F8F853EC1B2B51EC100B56
:102E700008F0F8FC53EC182B08F0E0F908F0ACF976
:102E8000BDEC0A8B00EE100A10BD0000A00C002063
:102E90000AD7A3703D0A873F0000000000003D40B4
:102EA00000000000008056405F40D42247DF913F81
:102EB00000000000000000400000000000806140B1
:102EC0000000000000003E40000000000005D4406B
:102ED000002099460000614400008C430000C84374
:102EE0000000204200003443000000000040654024
:102EF00070B53C21124801F02DFB022000F0EEFAE3
:102F00003C21104801F026FB022000F0E7FA0021E6
:102F10000D4801F0BFFE0C210B4801F0BBFE03F091
:102F200031FC0A4801F0C4F9094E00243460094D0F
:102F30002C60094801F0BCF934602C6070BD0000C1
:102F400070010020B8010020280100204802002064
:102F5000240400402408004090020020204810B5BE
:102F60004321017068214170692181706E21C17017
:102F700061210171212141715F2181711A21C0F804
:102F8000A810022000F0AAFA01221649164802F001
:102F90005FFA022000F0A2FA12490122491C1348EC
:102FA00002F056FA022000F099FA0E490122891C1B
:102FB0000F4802F04DFA022000F090FA0949012270
:102FC000C91C0C4802F044FA022000F087FA0549B7
:102FD0000122BDE81040091D074802F039BA00007F
:102FE000AC0800202400002080040020C40400203D
:102FF00008050020F80300203C040020014800F0F0
:10300000FBB80000EC070020014800F0F5B8000014
:103010004C050020014800F0EFB800004C080020EB
:10302000014800F0E9B80000AC050020014800F0BC
:10303000E3B800002C070020014800F0DDB80000D4
:103040008C070020014800F0D7B800000C060020D3
:10305000014800F0D1B80000CC060020014800F083
:10306000CBB800006C06002001681823CAB2103AE1
:10307000B2FBF3F2054B6FF30901032A9B5CC365B6
:1030800000D9091D81650846704700004CC0000842
:1030900010B5014600208B698A6A4FF0C07453B1A5
:1030A000B3F5005F15D072B1012A0CD0022A0AD004
:1030B000032A09D104E01AB1012A06D0022A03D159
:1030C000C96AC90100D5012010BDC96AA142FAD060
:1030D00010BD002AF7D0012AF2D0022AF3D0032A29
:1030E000F3D010BD30B50468256825F4802525602F
:1030F000046863608368402B036803D099600068AC
:10310000C26030BD9A600068C16030BD704710B5C4
:103110004FF4006000F030FA4FF4805000F02CFAC9
:10312000BDE810404FF4004000F026BA082000F03F
:1031300023BA102000F020BA72B6FEE72DE9F04164
:103140000446876D00F016FB054694F8350000260E
:10315000022806D08020606584F834600120BDE834
:10316000F0812068016821F0160101602068416942
:1031700021F080014161206C08B9A06C20B1206869
:10318000016821F0080101602068016821F0010157
:1031900001600CE000F0EEFA401B052807D9202062
:1031A0006065032084F8350084F83460D7E7206830
:1031B0000068C007EED194F85C103F208840B860EA
:1031C000012084F8350084F834600020C7E790F8C7
:1031D0003510022903D08021416501207047052167
:1031E00080F835100068016821F0010101600020BD
:1031F000704790F8350070472DE9F84304464FF0CA
:103200000009CDF8009063484FF41651A56D006891
:10321000B0FBF1F72E6894F85C20082101FA02F067
:1032200030420FD02068026852070BD5026822F0A6
:103230000402026094F85C008140A960606D40F077
:103240000100606594F85C104FF0010808FA01F085
:10325000304208D021684969090604D5A860606D2C
:1032600040F00200606594F85C1004208840304211
:1032700008D021680968890704D5A860606D40F00E
:103280000400606594F85C1010208840304218D02B
:1032900021680968090714D5A860206801684903F6
:1032A00004D50068000308D5A16C07E00168C905D2
:1032B00003D4016821F008010160216C09B12046A6
:1032C000884794F85C1020208840304231D0216833
:1032D0000968C9062DD5A86094F83500052820682E
:1032E000016806D0490347D5006800031DD4616C0E
:1032F0001CE021F0160101602068416921F0800185
:103300004161206C08B9A06C20B12068016821F0EF
:103310000801016094F85C103F208840A86084F8A0
:10332000358084F83490216D1FE0E16B09B12046AF
:103330008847606D00282BD0606DC00714D0052031
:1033400084F835002068016821F0010101600098CF
:10335000401C0090B84203D820680068C007F6D12E
:1033600084F8358084F83490E16C002910D001B0E5
:103370002046BDE8F04308470168C905D5D4016877
:1033800021F01001016084F8358084F83490CCE796
:10339000BDE8F883100000202DE9F041044600F05C
:1033A000E9F905465CB1022084F83500002684F86E
:1033B00034602068016821F0010101600DE0012006
:1033C000BDE8F08100F0D6F9401B052805D9202082
:1033D0006065032084F83500F2E720680068C007C4
:1033E000F0D121680A6820480240D4E9010318435B
:1033F000D4E903352B43184363691843A369184381
:10340000E3691843236A18431043626A042A03D10C
:10341000D4E90B231A431043086020684069656AA9
:1034200020F0070128460D43012704280CD1A06A8B
:103430000543E06A40B12046FFF72AFE20B1402054
:10344000606584F83570BAE7206845612046FFF76B
:103450000BFE94F85C203F2191408160666584F802
:1034600035700020ACE700003F8010F02DE9F041FE
:103470000446866D90F83400002501280DD0012007
:1034800084F8340094F835700020012F07D084F8B8
:10349000340002252846BDE8F0810220FBE7022720
:1034A00084F8357060652046FFF71CFE94F85C10C8
:1034B0003F208840B0602068016841F0160101603B
:1034C000206C20B12068016841F00801016020688B
:1034D000016841F001010160DCE7000070B50446BD
:1034E00000F048F90546601C02D004480078044406
:1034F00000F040F9401BA042FAD370BD0400002048
:103500002DE9F0410024124E124F0546102802D03A
:10351000082D0CD017E010A0FCF73AFF102111483D
:1035200000F01EF978B9012030603C600BE00E48D5
:1035300004600EA0FCF72CFF34604FF416710020DD
:103540003C6004F063FD2846BDE8F04102F01AB982
:10355000180000201C0000206B6579302020200D11
:103560000A00000000100240200000206B65793145
:1035700020200D0A00000000044910B50A6802422C
:1035800002D00860FFF7BCFF10BD0000143C0140F2
:103590002DE9F84FDFF89C910022A9F1040B0327D5
:1035A0004FF00F0C09F1040AABF1040E01250B6872
:1035B00095402B40AB426ED10C7904F00304012CF2
:1035C00001D0022C15D18668540007FA04F826EAC7
:1035D0000806D1F80C8008FA04F848EA0608C0F892
:1035E00008804468AC430D79C5F300159540254328
:1035F00045600C79E443A40708D0C568540007FA75
:1036000004F6B5438E68A6402E43C6600C7904F0DC
:103610000304022C11D1D40800EB8406356A540748
:10362000E40E0CFA04F825EA0805D1F8108008FA2F
:1036300004F848EA0508C6F820800568540007FA2F
:1036400004F6B5430E7906F00306A6402E43066045
:103650004C6814F4403F66D0374C256845F48045EB
:103660002560246822F0030504F480440094334C60
:1036700005EB0408D8F808589407260F0CFA06F44E
:10368000A5432F4CA04201D1002424E02D4CA042A0
:1036900002D101241FE046E02B4CA04201D10224BC
:1036A00019E02A4CA04201D1032414E0284CA04286
:1036B00001D104240FE0274CA04201D105240AE0E7
:1036C000254CA04201D1062405E0244CA04201D1A2
:1036D000072400E00824B4402C43C8F80848D9F86F
:1036E00000404D464E689C43F60200D51C432C60BA
:1036F000DAF8004055464E689C43B60200D51C439C
:103700002C60DBF800405D464E689C43B60300D554
:103710001C432C60DEF8004075464E689C43F6035F
:1037200000D51C432C60521C102AFFF43FAFBDE8AB
:10373000F88F0000083C014044380240003001404E
:10374000000002400004024000080240000C024059
:10375000001002400014024000180240001C024009
:103760000069084000D0012070470AB181617047AC
:103770000904FBE70148806870470000040000204E
:1037800070B5040025D094F83D00002520B984F8D8
:103790003C50204600F0B8F8242084F83D00206812
:1037A000016821F0010101602068016841F40041D5
:1037B00001602068016821F40041016000F028FAEE
:1037C0004D4B6168994201D84C4900E04C49884210
:1037D00001D2012070BD4B492268B0FBF1F156685F
:1037E00026F03F060E43566062689A4206D94FF4AF
:1037F000967251434FF47A72B1FBF2F12268491C80
:10380000166A26F03F06314311626168994210D86A
:103810004900401EB0FBF1F2521CC2F30B02042A15
:1038200001D2042022E0B0FBF1F0401CC0F30B00F9
:103830001CE0A268F2B301EBC10303EB0116431EC7
:10384000B3FBF6F35B1C43F480431B0549D092B3F2
:1038500001EBC10202EB0111401EB0FBF1F0401C74
:10386000C0F30B0040F4804040F400402168CA6976
:103870004CF6FF739A431043C861D4E90710014323
:103880002068026822F0C00211430160D4E90301FC
:1038900001432068826848F2FF339A4311438160F4
:1038A000D4E9051001432068C26822F0FF021143E9
:1038B000C16001E00EE016E02068016841F00101FE
:1038C00001602564202084F83D00256384F83E5083
:1038D000002070BD01EB4106431EB3FBF6F35B1CF9
:1038E000B3E70120C2E701EB4101401EB0FBF1F05C
:1038F000401CC0F30B00B7E7A086010080841E00C7
:1039000000093D0040420F0010B586B00446142166
:103910006846FCF7C4FF14492068884221D1134847
:103920000021026842F002020260006800F002001A
:1039300005904FF4407000901220CDE90101032062
:1039400003900420049069460948FFF721FE0748C8
:103950001030016841F400110160006800F40010AB
:10396000059006B010BD0000005400403038024001
:103970000004024002488168027811448160704767
:10398000040000200B4810B5016841F4007101608B
:10399000016841F480610160016841F48071016057
:1039A000032000F081F8032000F006F800F024F86E
:1039B000002010BD003C024070B50D4D04464FF490
:1039C0007A712878B1FBF0F00A490968B1FBF0F090
:1039D00000F028FB48B9102C07D200222146501EC7
:1039E00000F042F800206C6070BD012070BD000046
:1039F00004000020100000200B4882B0016841F450
:103A000080410160006800F4804000900648001F7B
:103A1000016841F080510160006800F08050009022
:103A2000052002B000F040B84438024000280DDB09
:103A300000F01F02012191404009800000F1E020C8
:103A4000C0F88011BFF34F8FBFF36F8F704700280E
:103A500009DB00F01F02012191404009800000F1C4
:103A6000E020C0F800117047F0B40E4B1B68C3F3A0
:103A70000223C3F10704042C00D904241D1D072DC3
:103A800001D2002300E0DB1E012606FA04F56D1EBC
:103A90000D409D409E40761E164045EA0601F0BC52
:103AA00005F0A3BB0CED00E0064A00F0070110682A
:103AB0004FF6FF03184040EA012003490843106015
:103AC000704700000CED00E00000FA0570470000B0
:103AD0002DE9F0470D46040065D0DFF81491D9F8C0
:103AE0000000EFB200F00700A84207D289F800708A
:103AF000D9F8000000F00700A84254D120683D4EDC
:103B0000810712D5400703D5306840F4E05030609B
:103B10002078000703D5306840F46040306030689A
:103B2000A16820F0F000084330602078C0072DD055
:103B3000304960680839012812D0022813D00328C0
:103B400011D00968890700292DDA316821F00301B5
:103B500001433160FFF70EFE804641F2883A0EE0E5
:103B600009688903EFE709688901ECE7FFF702FEBE
:103B7000A0EB0801514502D90320BDE8F087306869
:103B8000616800F00C00B0EB810FEFD1D9F80010A4
:103B9000484601F00701A94207D90770006800F004
:103BA0000700A84201D00120E7E72078400705D5AB
:103BB0003068E16820F4E050084330602078000766
:103BC00006D53068216920F4604040EAC1003060C9
:103BD00000F03EF83168084AC1F30311515CC84057
:103BE0000649086006480068FFF7E6FE0020C4E7C3
:103BF000003C02400838024054C000081000002079
:103C00000800002001490120C864704700004742B5
:103C10000448054900680968044AC1F38221515CDF
:103C2000C8407047100000200838024064C00008F7
:103C30000448054900680968044AC1F34231515CEF
:103C4000C8407047100000200838024064C00008D7
:103C5000154810B5006810F00C01144813D043103B
:103C600004290FD008290ED10F4C241F216801F020
:103C70003F022168490207D52068C0F38810A0FBE5
:103C8000030106E0184610BD2168C1F38811A1FBAD
:103C900000010023FCF704FB2168C1F30141491C2A
:103CA0004900B0FBF1F010BD083802400024F400D8
:103CB000054810B50068000605D5FFF707FF024963
:103CC0008020891C087010BD0C3802402DE9F84F87
:103CD000040075D02078DFF838A3C007AAF10405E6
:103CE00048D00AF104000168C1F38101012908D01C
:103CF0000068C0F3810002280AD1DAF8000040020F
:103D000006D52868800335D560680028E1D031E009
:103D10006068B0F5803F10D0B0F5A02F286810D0B3
:103D200020F480302860286820F4802028606068B3
:103D3000A0B1FFF71FFD06460CE0286840F4803074
:103D4000F4E740F480202860F7E7FFF713FD801BBD
:103D5000642871D828688003F7D50BE0FFF70AFDC7
:103D6000064604E0FFF706FD801B6428F1D82868AA
:103D70008003F7D42078DFF89C9280074FF0000B87
:103D80003DD5A348001D016811F00C0F08D0006854
:103D9000C0F3810002280AD1DAF80000400206D4FC
:103DA0002868800715D5E068012809D111E0E0688E
:103DB000B8B10120C9F80000FFF7DCFC064605E0B9
:103DC00022E1FFF7D7FC801B0228C2D828688007B1
:103DD000F7D52868216920F0F80040EAC100286082
:103DE0000DE0C9F800B0FFF7C5FC064604E0FFF798
:103DF000C1FC801B02281FD828688007F7D42078D0
:103E0000000722D5824F84486169703771B1012162
:103E10000160FFF7AFFC064604E0FFF7ABFC801B38
:103E2000022809D838688007F7D50EE0C0F800B03E
:103E3000FFF7A0FC064605E082E0FFF79BFC801B35
:103E400002287DD838688007F7D42078400765D5E8
:103E50006F484FF000083C300068C0000BD46C483D
:103E60003C30016841F08051016000684FF001086A
:103E700000F080500090694F3868C0050FD4386852
:103E800040F480703860FFF775FC064604E0FFF7E9
:103E900071FC801B022853D83868C005F7D55C4FE9
:103EA000A0686C3701280FD00528386810D020F0A2
:103EB00001003860386820F004003860A068B0B1B4
:103EC000FFF758FC06460EE0386840F00100F4E7C2
:103ED00040F004003860F7E7FFF74CFC811B41F22B
:103EE0008830814263D838688007F5D50DE0FFF748
:103EF00041FC064606E0FFF73DFC811B41F288309D
:103F0000814254D838688007F5D4B8F1000F05D045
:103F10003F483C30016821F080510160A069B8B38E
:103F20003B49091D0968C1F38101022946D00228D5
:103F3000584606D0C9F86000FFF71CFC044639E07B
:103F400035E04F46C9F86000FFF714FC064604E070
:103F5000FFF710FC801B022829D828688001F7D4BD
:103F6000D4E907010843A16A2D4A490802EB01413F
:103F7000626A41EA8211084394F82C1040EA016118
:103F8000CAF8001001203866FFF7F4FB044605E08C
:103F90003CE0FFF7EFFB001B022808D828688001EF
:103FA000F7D533E0FFF7E6FB001B022802D9032018
:103FB000BDE8F88F28688001F4D427E00128F7D005
:103FC000DAF80000E26900F4800191421CD1226A13
:103FD00000F03F01914217D147F6C071626A01407B
:103FE000B1EB821F10D1A26A4FF0FF3300F44031D1
:103FF00003EB5202B1EB024F06D194F82C1000F003
:104000007060B0EB016F01D00120D1E70020CFE755
:104010000438024000004742800E474200700040D2
:104020000000FFFF10B5401EB0F1807F01D30120DA
:1040300010BD4FF0E02460610F21601705F0D5F846
:104040000020A06107202061002010BD704770474C
:1040500010B590F83C20012A22D0012280F83C20A3
:10406000CA688C6822F4407222434C6822F4806251
:1040700022430C6822F4006222430C6922F480522D
:1040800022434C6922F400522243C969002322F4DE
:1040900080420A4301684A6480F83C30002010BD29
:1040A000022010BD70B590F83C20012A32D00125C5
:1040B00080F83C50022280F83D20026853689468E2
:1040C00023F070060B6833435360134B02689A4227
:1040D00014D0B2F1804F11D0104B9A420ED0104B39
:1040E0009A420BD00F4B9A4208D00F4B9A4205D000
:1040F0000E4B9A4202D00E4B9A4204D1496824F0EA
:1041000080031943916080F83D50002180F83C10F5
:10411000084670BD022070BD000001400004004050
:1041200000080040000C0040000401400040014035
:104130000018004010B5040003D094F83D0010B101
:1041400007E0012010BD002084F83C00204600F06C
:104150001FF8022084F83D00211D206804F094F926
:10416000012084F8460084F83E0084F83F0084F87B
:10417000400084F8410084F8420084F8430084F849
:10418000440084F8450084F83D00002010BD000084
:1041900008B500683D4A3E49904207D1086840F0A2
:1041A00001000860086800F0010058E0384A394B07
:1041B000121F98420ED1106840F00800106010687D
:1041C000022200F00800009000213220FFF74CFC92
:1041D00032204BE0304B98420ED1106840F0100076
:1041E00010601068012200F0100000901146362087
:1041F000FFF73AFC362039E0284B98420ED1106880
:1042000040F0200010601068012200F020000090B3
:1042100011463720FFF728FC372027E0204B984233
:1042200007D1086840F002000860086800F002004A
:1042300009E01C4B984208D1086840F480300860BF
:10424000086800F48030009008BD174B984211D1E7
:10425000086840F400300860086800F400300090FE
:10426000002202211920FFF7FFFB1920BDE80840BA
:10427000FFF7EDBB0D498842E6D1106840F04000E1
:104280001060106800F04000DDE700000000014011
:1042900044380240000C0040001000400014004070
:1042A000000401400040014000440140001800406B
:1042B00090F83D10012901D001207047022180F8BB
:1042C0003D100168CA6842F00102CA6000681149E5
:1042D000884214D0B0F1804F11D00F4988420ED0DF
:1042E0000E4988420BD00E49884208D00D498842B9
:1042F00005D00D49884202D00C49884204D181681A
:1043000001F00701062903D0016841F001010160B5
:1043100000207047000001400004004000080040F9
:10432000000C004000040140004001400018004023
:1043300070B5044690F83C000025012817D00126EE
:1043400084F83C60022084F83D002068826822F0F6
:10435000770222F47F4282600868502838D00DDC52
:1043600020284FD005DC90B3102811D14AE002205C
:1043700070BD302846D040280AD13BE060282FD0BD
:1043800070280DD0B0F5805F03D0B0F5005F12D07B
:10439000012584F83D60002084F83C00284670BD6B
:1043A000CB68D1E90121206804F0DFF8206881683A
:1043B00041F0770109E0CB68D1E90121206804F0E0
:1043C000D4F82068816841F480418160E1E719E018
:1043D000CA684968206804F09DF95021206806E009
:1043E000CA684968206804F0A6F96021206804F0D2
:1043F000C6F8CEE7CA684968206804F08BF9402106
:104400002068F4E7226801461046F0E72DE9F04104
:104410000D46040003D094F83D0018B108E00120D7
:10442000BDE8F081002084F83C00204600F040F810
:10443000022084F83D002068816844F2070291431D
:104440008160211D206804F01FF82068816882695E
:10445000066A2B68AF690B4340F203318A4342EA94
:104460000722A968EF6911434FF6FC429143EA68BD
:1044700041EA07210A4329692F6A090141EA073104
:1044800011436A686D6926F0AA0646EA05152A43B3
:1044900083602068816154F8460B0262012004F8B1
:1044A0001F09E0752076E0762077A0750020B7E739
:1044B00030B587B0044614216846FCF7F0F9214A6C
:1044C0001F4D206800241F49103A0223A84217D12B
:1044D000086840F002000860086800F002000590DB
:1044E000106840F0020010601068694600F0020099
:1044F000059030208DE819000393134804931AE0C7
:10450000124DA84219D1086840F0040008600868FC
:1045100000F004000590106840F00800106010687A
:10452000694600F0080005904FF440508DE81900EE
:10453000039307480493FFF72BF807B030BD000042
:1045400000040040403802400004024000080040DF
:10455000000C024070B590F83E50044690F83F3091
:1045600090F8422090F84300022621B104290BD094
:10457000012D16D10FE0012D13D1012A11D184F89C
:104580003E6084F8426016E0012B0AD1012808D170
:1045900084F83F600DE0012B03D1012A01D10128ED
:1045A00001D0012070BD84F83E6084F83F6084F83B
:1045B000426084F8436091B1042904D001220021B3
:1045C000206803F0C5FF01220421206803F0C0FF2A
:1045D0002068016841F001010160002070BD0122E6
:1045E00000212068F2E7704770B504460068016951
:1045F0004FF00005C943890715D4C168C94389072D
:1046000011D4E91E016101202077206880698007AC
:10461000204602D0FFF7E7FF04E000F04BF9204608
:1046200000F036FB257720680169C943490717D494
:10463000C168C943490713D46FF004010161022026
:1046400020772068806910F4407F204602D0FFF771
:10465000CAFF04E000F02EF9204600F019FB257790
:1046600020680169C943090716D4C168C94309070D
:1046700012D46FF008010161042020772068C0691E
:104680008007204602D0FFF7AEFF04E000F012F9E9
:10469000204600F0FDFA257720680169C943C90664
:1046A00017D4C168C943C90613D46FF01001016162
:1046B000082020772068C06910F4407F204602D08F
:1046C000FFF791FF04E000F0F5F8204600F0E0FA73
:1046D000257720680169C943C90708D1C168C94362
:1046E000C90704D1891E0161204600F03BFB206808
:1046F0000169C943090609D4C168C943090605D43B
:104700006FF0800101612046FFF7A0FC206801697D
:10471000C943490609D4C168C943490605D46FF0A5
:1047200040010161204600F026FB20680169C94371
:1047300089060BD4C168C943890607D46FF02001EC
:1047400001612046BDE87040FFF781BC70BD0000EC
:1047500070B586B0044614216846FCF7A0F8364EC2
:1047600021680025354A022301243548B1420FD182
:10477000116841F001011160116801F0010105911A
:104780004FF410618DE82A00CDE90334694611E049
:104790002C4EB14212D1116841F001011160116833
:1047A000CDE9023401F0010105910F21CDE900139B
:1047B00069460493FEF7ECFE06B070BD224E03205E
:1047C000B14211D1116841F00401116011680293E6
:1047D00001F0040105914FF47071CDE90013CDE9AA
:1047E000034069461948E5E7194EB14210D11168F6
:1047F00041F0100111601168029301F01001059160
:104800006021CDE90013CDE9034069461148D1E7A5
:1048100011488142D0D1106840F002001060106849
:1048200000F00200059008148DE829000920CDE968
:10483000035069460948BDE7000001403038024096
:1048400000000240000C004000040140000802404B
:1048500000400140001002400018004000040240E7
:1048600070B5044690F83C00002501280FD00120C7
:1048700084F83C006AB1042A0FD0082A11D00C2A0F
:1048800013D00125002084F83C00284670BD02208A
:1048900070BD206803F07CFEF4E7206803F0A8FEFA
:1048A000F0E7206803F0DAFEECE7206803F00AFF87
:1048B000E8E700002DE9F041204C0546006821683A
:1048C000884238D1287F1E4F01280ED10121384659
:1048D000FEF746FF1B4E10B1304603F047FD20683F
:1048E000416A326901EB92014163287F02280FD1AE
:1048F00002213846FEF734FF124E403610B13046E2
:1049000003F034FD2068416A326901EB9201816352
:10491000287F04280FD104213846FEF721FF094DD6
:10492000803510B1284603F021FD2068416A2A69CC
:1049300001EB9201C163BDE8F0810000000200209C
:1049400000000240600C002010B5040003D094F871
:104950003D0010B107E0012010BD002084F83C00AC
:10496000204600F01EF8022084F83D00211D20683A
:1049700003F08AFD012084F8460084F83E0084F8A4
:104980003F0084F8400084F8410084F8420084F835
:10499000430084F8440084F8450084F83D0000207A
:1049A00010BD704730B50446002549B104290AD02E
:1049B00008290BD094F8410001280AD0012030BD0D
:1049C00094F83E00F8E794F83F00F5E794F84000CB
:1049D000F2E7022071B104290FD0082910D084F821
:1049E000410081B1042913D0082947D00C294AD0AD
:1049F000012541E084F83E00F3E784F83F00F0E74A
:104A000084F84000EDE72068C26842F0020203E04B
:104A10002068C26842F00402C2600122206803F0EC
:104A200097FD1B4920681B4A884201D0904203D160
:104A3000436C43F4004343642068884213D0B0F1D0
:104A4000804F10D0144988420DD0144988420AD0B2
:104A50001349884207D0904205D01249884202D0BB
:104A60001149884204D1816801F00701062903D069
:104A7000016841F001010160284630BD2068C2682C
:104A800042F00802C8E72068C26842F01002C3E79B
:104A90000000014000040140000400400008004004
:104AA000000C0040004001400018004070B50D00AF
:104AB00004464FF0000607D0042D0AD0082D3BD045
:104AC0000C2D3ED0012635E02068C16821F002019E
:104AD00003E02068C16821F00401C160002229467A
:104AE000206803F035FD1E4941F211122068931031
:104AF000884202D01B49884209D1016A114206D17D
:104B0000016A194203D1416C21F4004141642068DB
:104B1000016A114206D1016A194203D1016821F0EC
:104B20000101016001208DB1042D12D0082D13D098
:104B300084F84100304670BD2068C16821F008014A
:104B4000CBE72068C16821F01001C6E784F83E0079
:104B5000F0E784F83F00EDE784F84000EAE7000062
:104B6000000001400004014070B5044690F83C008C
:104B700000260D4601280FD0012084F83C006AB1C0
:104B8000042A1DD0082A2FD00C2A3FD0012600204D
:104B900084F83C00304670BD022070BD206803F0F0
:104BA000F7FC2068816941F0080181612068816912
:104BB00021F004018161206881692A69114311E0B3
:104BC000206803F015FD2068816941F4006181616E
:104BD0002068816921F480618161206881692A6986
:104BE00041EA02218161D2E7206803F037FD2068A5
:104BF000C16941F00801C1612068C16921F0040167
:104C0000C1612068C1692A69114311E0206803F07D
:104C100059FD2068C16941F40061C1612068C16922
:104C200021F48061C1612068C1692A6941EA0221D9
:104C3000C161ACE710B5040003D094F83D0010B199
:104C400007E0012010BD002084F83C00204600F061
:104C50001EF8022084F83D00211D206803F014FC9A
:104C6000012084F8460084F83E0084F83F0084F870
:104C7000400084F8410084F8420084F8430084F83E
:104C8000440084F8450084F83D00002010BD7047C2
:104C90007047000010B5044649B104290AD008291C
:104CA0000BD094F8410001280AD0012010BD94F8DF
:104CB0003E00F8E794F83F00F5E794F84000F2E78B
:104CC0000220B1B3042938D0082939D084F8410032
:104CD0000122206803F03CFC1B4920681B4A8842E3
:104CE00001D0904203D1436C43F4004343642068F5
:104CF000884213D0B0F1804F10D0154988420DD0B2
:104D0000144988420AD01449884207D0904205D0FD
:104D10001249884202D01249884204D1816801F0C8
:104D20000701062903D0016841F00101016000205C
:104D300010BDFFE784F83E00CAE784F83F00C7E7EC
:104D400084F84000C4E70000000001400004014076
:104D50000004004000080040000C004000400140FA
:104D60000018004010B5044603F0B6FF2046BDE829
:104D7000104003F0F3BC704770477047F8B5016806
:104D800004460868CA684B6910F00F0F4FF0000521
:104D900059D003F0010602F49077374365D0C1077C
:104DA00005D0D10503D5216C41F0010121644107F3
:104DB00005D5D90703D0216C41F002012164810798
:104DC00005D5D90703D0216C41F004012164010706
:104DD00007D502F02001314303D0216C41F00801D6
:104DE0002164216C00293AD0800604D5900602D5B2
:104DF000204604F0CBF820684069216CC0F3801095
:104E0000090700D460B3204604F053F820684069D5
:104E1000400621D52068143050E8001F21F04001E1
:104E200040E80012002AF5D1A06BA8B16C490165D9
:104E3000A06BFEF7CCF9002811D0A06B016D01B07A
:104E4000BDE8F040084783060FD593060DD52046F0
:104E5000BDE8F84004F09AB82046FFF78EFFF8BD91
:104E60002046FFF78AFF2564F8BD266B2023012E1C
:104E700079D1C60677D5D60675D5086848680090FA
:104E80004869400640D5A16B086840680004000CE2
:104E9000EAD0A28D8242E7D9E085C869B0F5807F6B
:104EA0002DD020680C3050E8001F21F4807140E8BC
:104EB0000012002AF5D12068143050E8001F21F0BC
:104EC000010140E80012002AF5D12068143050E8B2
:104ED000001F21F0400140E80012002AF5D184F8BB
:104EE0003E30256320680C3050E8001F21F010018F
:104EF00040E80012002AF5D1A06BFEF71FF9A08D43
:104F0000E18D401A81B229E0A08DE18D401A81B275
:104F1000E08D0028A8D00029A6D020680C3050E8E9
:104F2000002F22F4907240E80026002EF5D1206870
:104F3000143050E8002F22F0010240E80026002E35
:104F4000F5D184F83E30256320680C3050E8002FFE
:104F500022F0100240E80023002BF5D12046FFF795
:104F60000BFFF8BDFFE705062BD5150629D594F8EC
:104F70003D002128F5D1A068B0F5805F01D12069FE
:104F8000B0B1206A411C2162216800784860E08C41
:104F9000401E0004000CE084E3D12068C16821F0C9
:104FA0008001C1602068C16841F04001C160D8E75C
:104FB000206A0088C0F308004860206A801C2062D4
:104FC000E5E74006CDD55006CBD5CA68204622F08D
:104FD0004002CA6084F83D3000F0F2FAC1E70000F8
:104FE0000D8E000870B5040004D094F83D00002533
:104FF00010B106E0012070BD84F83C50204600F05E
:1050000023F8242084F83D002068C16821F4005171
:10501000C160204604F01AF82068016921F490412B
:1050200001612068416921F02A0141612068C1685D
:1050300041F40051C1602564202084F83D0084F8CB
:105040003E00002070BD00002DE9F04F87B00446FF
:1050500014216846FBF723FCF048DFF8BC831038C6
:105060000221D4F800C0ED4B032200258E0607155F
:105070004FF0080E4FF040094FF4003AC44550D1AC
:10508000D3F800C0AB464CF4002CC3F800C01B683A
:1050900003F400230593036843F0040303600068EE
:1050A00000F00400059090028DE82300CDE9032E66
:1050B0006946DB48FEF76CFADB48DA49B046016026
:1050C000C0E90165C0E9035745618561C0E9075A38
:1050D00056464562FEF760F908B1FEF72DF8D24852
:1050E000A063D14D8463CF486035303085E801033B
:1050F000C5E903B7C5F814B0C5F818B0C5E907B6D7
:105100002846C5F824B0FEF747F908B1FEF714F8B1
:105110006563002201213420AC63FEF7A5FC342036
:105120005BE0DFF80883C4455CD1D3F800C04CF4E1
:10513000801CC3F800C01B6803F480130593036848
:1051400043F004030360036803F00403059303685A
:1051500043F0080303600068884600F008000590EB
:105160004FF48050CDE90008CDE902529346F24653
:105170006946CDF810E0AA48FEF70AFA0420CDE906
:105180000008CDE9025B6946CDF810A0A848FEF7FB
:10519000FFF9DFF89482A34908F1C008404678314E
:1051A000C0E90357C8F81450C8F81850C8F81C5084
:1051B000C8F8205088E84202C8F82450FEF7ECF8FE
:1051C00008B1FDF7B9FFC4F834800022114635203C
:1051D000C8F83840FEF748FC3520FEF738FC07B029
:1051E000BDE8F08FDFF84C824FF0070BC44557D174
:1051F0008A4B1B1DD3F800C04CF0100CC3F800C044
:105200001B6803F010030593036843F00103036078
:10521000006800F0010005904FF4C0608DE82300A5
:10522000CDE9032B69468448FEF7B2F9DFF810A2F6
:1052300082495046B846C0E90357CAF81450CAF824
:105240001850CAF81C50CAF820508AE84202CAF81E
:105250002450FEF7A1F808B1FDF76EFF784F7748AC
:10526000C4F834A060377838CAF838403860C7E9E5
:105270000165C7E9035880157D61C7E906503D62A5
:1052800038467D62FEF788F808B1FDF755FFA76341
:10529000012211462520BC63FEF7E6FB25209CE792
:1052A000DFF8A081C44558D1D3F800C0A8464CF41B
:1052B000003CC3F800C01B6803F400330593036887
:1052C00043F008030360006800F0080005906020C8
:1052D0008DE82300CDE9032B69465548FEF758F9C0
:1052E000DFF85CB14F490BF1C00B48315846CBF8A1
:1052F0000010C0E90165C0E90357CBF820A089156B
:10530000CBF81450CBE90651CBF82450FEF744F803
:1053100008B1FDF711FF43484B4DC4F838B0603079
:10532000CBF8384085E84102C5E90387C5F8148009
:10533000C5F81880C5E9078A2846C5F82480FEF715
:105340002BF808B1FDF7F8FE656301220021262045
:10535000AC63FEF789FB26203FE7DFF8F080C44509
:105360007FF43DAFD3F800C0A8464CF4802CC3F8BE
:1053700000C01B6803F480230593036843F008030F
:105380000360006800F0080005904FF440708DE85D
:105390002300CDE9032B69462548FEF7F9F8DFF82D
:1053A000A8B020490BF1600B18395846CBF8001013
:1053B000C0E90165C0E90357CBF81450CBF8185089
:1053C000CBE9075ACBF82450FDF7E6FF08B1FDF70B
:1053D000B3FE1D4D1348C4F838B0C0351830CBF8B3
:1053E000384085E84102C5E90387C5F81480C5F84F
:1053F0001880C5E9078A2846C5F82480FDF7CCFF48
:1054000008B1FDF799FE6563002211462720AC63C1
:10541000FEF72AFB2720E0E6004C0040403802401F
:1054200000080240406002404C050020005000404F
:10543000000C02400010014000000240B86402402D
:105440006C060020004400408C070020004800400B
:1054500090F83E30202B0ED159B152B190F83C302B
:10546000012B08D0012380F83C300023036303F0B4
:1054700073BE0120704702207047000010B504463B
:1054800000682149884209D1012220492048FFF7BC
:10549000DFFF1E481F49007805F096FC1E49206872
:1054A00088420CD119490122491C1C48FFF7D0FF42
:1054B00016481849401C4031007805F0E9FC1849AD
:1054C000206888420CD111490122891C1548FFF738
:1054D000BFFF0E480F49801CC031007805F080FDE9
:1054E0001149206888420DD108490122C91C0F4882
:1054F000FFF7AEFF05480E49C01C0078BDE810401C
:1055000005F06EBD10BD0000001001402400002019
:1055100080040020DC09002000440040C404002076
:105520000048004008050020004C0040F80300201F
:10553000DC0A0020F7B5044690F83D00202837D15A
:10554000019991B38AB394F83C00012830D001202E
:1055500084F83C002162A284E28400252564212095
:1055600084F83D00636B1348D863636B124818647A
:10557000636B1248D864606B134605652668606BE0
:10558000321DFDF773FF21686FF04000086084F85A
:105590003C502068143050E8001F41F0800140E882
:1055A0000012002AF5D10020FEBDFFE70120FBE735
:1055B0000220F9E7678E0008A98E00081D8E0008FA
:1055C00070477047FEE7000010B504462DED088BCC
:1055D00090ED010AD0ED020A30EE608A80ED038A78
:1055E000B5EEC08AF1EE10FA02D2B1EE480A01E03F
:1055F000B0EE480AD4ED020A94ED011A10EE100A3A
:10560000D4ED048A31EE601AB0EE000A94ED07BAC8
:10561000B0F1804FF0EE410A71EE681A48EEC00A10
:1056200094ED050A94ED081A61EE81BA70EE800AD5
:1056300094ED0A0A2DDA20EE800A10EE100A06F028
:1056400007FC41EC190B18EE100A06F001FC9FED67
:105650001A1B53EC112B06F005F941EC1A0B1BEE4B
:10566000900A06F0F5FB53EC1A2B05F0E7FD53EC1E
:10567000192B05F0E3FD41EC190B1BEE100A06F0A7
:10568000E7FB53EC192B05F0D9FD05F0A5FDE06112
:1056900009E094ED091A41EE08BA40EE20BA3BEE5B
:1056A0008B0A84ED070AC4ED058A84ED048A94ED23
:1056B000070ABDEC088B10BD9A99999999990140F8
:1056C000B1EE601AB4EEC10AF1EE10FA01D2B0EEFA
:1056D000410AB4EEE00AF1EE10FA01DDB0EE600A24
:1056E0007047000010B510EE100A2DED028BB0EEE1
:1056F000618AF0EE418A06F0ABFB9FED201B53EC74
:10570000112B06F0AFF805F067FD00EE100AB5EEBC
:10571000C00AF1EE10FA02D2F1EE400A01E0F0EE1A
:10572000400AF4EEC80AF1EE10FA0CDDB5EEC00A3C
:10573000F1EE10FA04DDB0EE480ABDEC028B10BDAC
:10574000B1EE480AF9E7B5EEC00AF1EE10FA02D25E
:10575000F1EE400A01E0F0EE400AF4EEE80AF1EE64
:1057600010FAEAD2B5EEC00AF1EE10FA02DDB0EEA0
:10577000680AE2E7B1EE680ADFE700009A999999B2
:105780009999B93F70B54FF400610024174A8842D7
:1057900006D11046FDF7E4FF00280FD1144D0AE0B2
:1057A0004FF4805188420AD11248FDF7D9FF0028F2
:1057B00004D10F4D4035686B80476C6070BD4FF46D
:1057C00000418842FAD11046FDF7CAFF0028F5D102
:1057D000074D8035686B80475A206C6001F00AFAEB
:1057E000BDE87040012001F0EDB900000004024066
:1057F000600C00200010024070B5124D4FF40061A3
:105800002846FDF7ADFF002418B90F4E716B88478D
:1058100074604FF480510D48FDF7A2FF20B90A4E85
:105820004036716B884774604FF400412846FDF79D
:1058300097FF002804D1044D8035686B80476C6069
:1058400070BD000000040240600C00200010024007
:105850002DE9F0410446B5482DED048B406805F074
:105860009AFF9FEDB31B53EC112B05F0FBFF05F0E6
:10587000B3FC00EE100A9FEDB08AF0EE480AB0EEDD
:10588000601A02F0BDFCAD4D0120A96902F0BEFB1B
:1058900002F0A6FC0128FBD0B9EE041AF0EE480A8B
:1058A000BAEE040A02F0ACFC0120A96902F0AEFBDA
:1058B00002F096FC0128FBD040F6B8300246414287
:1058C00002F010FB6FF04F079FED9D9A4FF4167694
:1058D000012C55D1B2EE041AF3EE090ABBEE040A0C
:1058E00002F08EFC0120A96902F090FB02F078FC26
:1058F0000128FBD0384601F07DF93046FDF7EEFD7A
:10590000B0EE491ADFED8F0ABBEE040A02F078FC14
:105910000120296A02F07AFB02F062FC0128FBD028
:10592000022001F04FF9C820FDF7D8FD4FF47A703E
:10593000FDF7D4FDB2EE041AF3EE090ABBEE040A39
:1059400002F05EFC0120A96902F060FB02F048FC55
:105950000128FBD05A2001F04DF93046FDF7BEFD7D
:10596000B0EE480AB0EE401AF0EE400A02F048FCF1
:105970000120A96902F04AFB02F032FC0128FBD0A9
:10598000022C61D1B2EE041AF3EE090AB1EE040A58
:1059900002F036FC0120A96902F038FB02F020FC7D
:1059A0000128FBD0384601F025F93046FDF796FD79
:1059B0009FED651ADFED650AB1EE040A02F020FCE6
:1059C0000120296A02F022FB02F00AFC0128FBD028
:1059D000022001F0F7F8C820FDF780FDB1EE041AAF
:1059E000F3EE0E0AB1EE040A02F00AFC0120296A65
:1059F00002F00CFB02F0F4FB0128FBD0B2EE041A1B
:105A0000F3EE090AB1EE040A02F0FAFB0120296A5A
:105A100002F0FCFA02F0E4FB0128FBD05A2001F06E
:105A2000E9F83046FDF75AFDB0EE480AB0EE401AEC
:105A3000F0EE400A02F0E4FB0120A96902F0E6FA68
:105A400002F0CEFB0128FBD0032C64D1B2EE041A85
:105A5000DFED3F8AF3EE090AB0EE680A02F0D0FBF0
:105A60000120A96902F0D2FA02F0BAFB0128FBD0AA
:105A70006FF03B0001F0BEF83046FDF72FFDB0EEB1
:105A8000491ADFED340AB0EE680A02F0B9FB0120D2
:105A9000296A02F0BBFA02F0A3FB0128FBD0022026
:105AA00001F090F8C820FDF719FDB2EE041AF3EEEC
:105AB0000E0AB0EE680A02F0A3FB0120A96902F009
:105AC000A5FA02F08DFB0128FBD0B2EE041AF3EE2A
:105AD000090AB0EE680A02F093FB0120A96902F0FE
